{
  "_format": "hh-sol-artifact-1",
  "contractName": "AZNFT",
  "sourceName": "contracts/AZNFT.sol",
  "abi": [
    {
      "inputs": [
        {
          "internalType": "string",
          "name": "name",
          "type": "string"
        },
        {
          "internalType": "string",
          "name": "symbol",
          "type": "string"
        },
        {
          "internalType": "uint256",
          "name": "maxNftSupply",
          "type": "uint256"
        }
      ],
      "stateMutability": "nonpayable",
      "type": "constructor"
    },
    {
      "anonymous": false,
      "inputs": [
        {
          "indexed": true,
          "internalType": "address",
          "name": "owner",
          "type": "address"
        },
        {
          "indexed": true,
          "internalType": "address",
          "name": "approved",
          "type": "address"
        },
        {
          "indexed": true,
          "internalType": "uint256",
          "name": "tokenId",
          "type": "uint256"
        }
      ],
      "name": "Approval",
      "type": "event"
    },
    {
      "anonymous": false,
      "inputs": [
        {
          "indexed": true,
          "internalType": "address",
          "name": "owner",
          "type": "address"
        },
        {
          "indexed": true,
          "internalType": "address",
          "name": "operator",
          "type": "address"
        },
        {
          "indexed": false,
          "internalType": "bool",
          "name": "approved",
          "type": "bool"
        }
      ],
      "name": "ApprovalForAll",
      "type": "event"
    },
    {
      "anonymous": false,
      "inputs": [
        {
          "indexed": true,
          "internalType": "address",
          "name": "previousOwner",
          "type": "address"
        },
        {
          "indexed": true,
          "internalType": "address",
          "name": "newOwner",
          "type": "address"
        }
      ],
      "name": "OwnershipTransferred",
      "type": "event"
    },
    {
      "anonymous": false,
      "inputs": [
        {
          "indexed": true,
          "internalType": "address",
          "name": "from",
          "type": "address"
        },
        {
          "indexed": true,
          "internalType": "address",
          "name": "to",
          "type": "address"
        },
        {
          "indexed": true,
          "internalType": "uint256",
          "name": "tokenId",
          "type": "uint256"
        }
      ],
      "name": "Transfer",
      "type": "event"
    },
    {
      "inputs": [],
      "name": "BASE_TOKEN_URI",
      "outputs": [
        {
          "internalType": "string",
          "name": "",
          "type": "string"
        }
      ],
      "stateMutability": "view",
      "type": "function"
    },
    {
      "inputs": [],
      "name": "MINT_PRICE",
      "outputs": [
        {
          "internalType": "uint256",
          "name": "",
          "type": "uint256"
        }
      ],
      "stateMutability": "view",
      "type": "function"
    },
    {
      "inputs": [],
      "name": "TOTAL_SUPPLY",
      "outputs": [
        {
          "internalType": "uint256",
          "name": "",
          "type": "uint256"
        }
      ],
      "stateMutability": "view",
      "type": "function"
    },
    {
      "inputs": [
        {
          "internalType": "address",
          "name": "to",
          "type": "address"
        },
        {
          "internalType": "uint256",
          "name": "tokenId",
          "type": "uint256"
        }
      ],
      "name": "approve",
      "outputs": [],
      "stateMutability": "nonpayable",
      "type": "function"
    },
    {
      "inputs": [
        {
          "internalType": "address",
          "name": "owner",
          "type": "address"
        }
      ],
      "name": "balanceOf",
      "outputs": [
        {
          "internalType": "uint256",
          "name": "",
          "type": "uint256"
        }
      ],
      "stateMutability": "view",
      "type": "function"
    },
    {
      "inputs": [
        {
          "internalType": "uint256",
          "name": "tokenId",
          "type": "uint256"
        }
      ],
      "name": "getApproved",
      "outputs": [
        {
          "internalType": "address",
          "name": "",
          "type": "address"
        }
      ],
      "stateMutability": "view",
      "type": "function"
    },
    {
      "inputs": [
        {
          "internalType": "address",
          "name": "owner",
          "type": "address"
        },
        {
          "internalType": "address",
          "name": "operator",
          "type": "address"
        }
      ],
      "name": "isApprovedForAll",
      "outputs": [
        {
          "internalType": "bool",
          "name": "",
          "type": "bool"
        }
      ],
      "stateMutability": "view",
      "type": "function"
    },
    {
      "inputs": [
        {
          "internalType": "address",
          "name": "recipient",
          "type": "address"
        }
      ],
      "name": "mintTo",
      "outputs": [
        {
          "internalType": "uint256",
          "name": "",
          "type": "uint256"
        }
      ],
      "stateMutability": "payable",
      "type": "function"
    },
    {
      "inputs": [],
      "name": "name",
      "outputs": [
        {
          "internalType": "string",
          "name": "",
          "type": "string"
        }
      ],
      "stateMutability": "view",
      "type": "function"
    },
    {
      "inputs": [],
      "name": "owner",
      "outputs": [
        {
          "internalType": "address",
          "name": "",
          "type": "address"
        }
      ],
      "stateMutability": "view",
      "type": "function"
    },
    {
      "inputs": [
        {
          "internalType": "uint256",
          "name": "tokenId",
          "type": "uint256"
        }
      ],
      "name": "ownerOf",
      "outputs": [
        {
          "internalType": "address",
          "name": "",
          "type": "address"
        }
      ],
      "stateMutability": "view",
      "type": "function"
    },
    {
      "inputs": [
        {
          "internalType": "address",
          "name": "dest",
          "type": "address"
        }
      ],
      "name": "payments",
      "outputs": [
        {
          "internalType": "uint256",
          "name": "",
          "type": "uint256"
        }
      ],
      "stateMutability": "view",
      "type": "function"
    },
    {
      "inputs": [],
      "name": "renounceOwnership",
      "outputs": [],
      "stateMutability": "nonpayable",
      "type": "function"
    },
    {
      "inputs": [
        {
          "internalType": "address",
          "name": "from",
          "type": "address"
        },
        {
          "internalType": "address",
          "name": "to",
          "type": "address"
        },
        {
          "internalType": "uint256",
          "name": "tokenId",
          "type": "uint256"
        }
      ],
      "name": "safeTransferFrom",
      "outputs": [],
      "stateMutability": "nonpayable",
      "type": "function"
    },
    {
      "inputs": [
        {
          "internalType": "address",
          "name": "from",
          "type": "address"
        },
        {
          "internalType": "address",
          "name": "to",
          "type": "address"
        },
        {
          "internalType": "uint256",
          "name": "tokenId",
          "type": "uint256"
        },
        {
          "internalType": "bytes",
          "name": "_data",
          "type": "bytes"
        }
      ],
      "name": "safeTransferFrom",
      "outputs": [],
      "stateMutability": "nonpayable",
      "type": "function"
    },
    {
      "inputs": [
        {
          "internalType": "address",
          "name": "operator",
          "type": "address"
        },
        {
          "internalType": "bool",
          "name": "approved",
          "type": "bool"
        }
      ],
      "name": "setApprovalForAll",
      "outputs": [],
      "stateMutability": "nonpayable",
      "type": "function"
    },
    {
      "inputs": [
        {
          "internalType": "string",
          "name": "_baseTokenURI",
          "type": "string"
        }
      ],
      "name": "setBaseTokenURI",
      "outputs": [],
      "stateMutability": "nonpayable",
      "type": "function"
    },
    {
      "inputs": [
        {
          "internalType": "bytes4",
          "name": "interfaceId",
          "type": "bytes4"
        }
      ],
      "name": "supportsInterface",
      "outputs": [
        {
          "internalType": "bool",
          "name": "",
          "type": "bool"
        }
      ],
      "stateMutability": "view",
      "type": "function"
    },
    {
      "inputs": [],
      "name": "symbol",
      "outputs": [
        {
          "internalType": "string",
          "name": "",
          "type": "string"
        }
      ],
      "stateMutability": "view",
      "type": "function"
    },
    {
      "inputs": [
        {
          "internalType": "uint256",
          "name": "tokenId",
          "type": "uint256"
        }
      ],
      "name": "tokenURI",
      "outputs": [
        {
          "internalType": "string",
          "name": "",
          "type": "string"
        }
      ],
      "stateMutability": "view",
      "type": "function"
    },
    {
      "inputs": [
        {
          "internalType": "address",
          "name": "from",
          "type": "address"
        },
        {
          "internalType": "address",
          "name": "to",
          "type": "address"
        },
        {
          "internalType": "uint256",
          "name": "tokenId",
          "type": "uint256"
        }
      ],
      "name": "transferFrom",
      "outputs": [],
      "stateMutability": "nonpayable",
      "type": "function"
    },
    {
      "inputs": [
        {
          "internalType": "address",
          "name": "newOwner",
          "type": "address"
        }
      ],
      "name": "transferOwnership",
      "outputs": [],
      "stateMutability": "nonpayable",
      "type": "function"
    },
    {
      "inputs": [],
      "name": "withdraw",
      "outputs": [],
      "stateMutability": "nonpayable",
      "type": "function"
    },
    {
      "inputs": [
        {
          "internalType": "address payable",
          "name": "payee",
          "type": "address"
        }
      ],
      "name": "withdrawPayments",
      "outputs": [],
      "stateMutability": "nonpayable",
      "type": "function"
    }
  ],
  "bytecode": "0x60a06040523480156200001157600080fd5b50604051620045f3380380620045f3833981810160405281019062000037919062000314565b8282816000908051906020019062000051929190620001cd565b5080600190805190602001906200006a929190620001cd565b5050506040516200007b906200025e565b604051809103906000f08015801562000098573d6000803e3d6000fd5b5073ffffffffffffffffffffffffffffffffffffffff1660808173ffffffffffffffffffffffffffffffffffffffff1660601b81525050620000ef620000e3620000ff60201b60201c565b6200010760201b60201c565b80600781905550505050620004f1565b600033905090565b6000600660009054906101000a900473ffffffffffffffffffffffffffffffffffffffff16905081600660006101000a81548173ffffffffffffffffffffffffffffffffffffffff021916908373ffffffffffffffffffffffffffffffffffffffff1602179055508173ffffffffffffffffffffffffffffffffffffffff168173ffffffffffffffffffffffffffffffffffffffff167f8be0079c531659141344cd1fd0a4f28419497f9722a3daafe3b4186f6b6457e060405160405180910390a35050565b828054620001db9062000443565b90600052602060002090601f016020900481019282620001ff57600085556200024b565b82601f106200021a57805160ff19168380011785556200024b565b828001600101855582156200024b579182015b828111156200024a5782518255916020019190600101906200022d565b5b5090506200025a91906200026c565b5090565b610ccd806200392683390190565b5b80821115620002875760008160009055506001016200026d565b5090565b6000620002a26200029c84620003d0565b6200039c565b905082815260208101848484011115620002bb57600080fd5b620002c88482856200040d565b509392505050565b600082601f830112620002e257600080fd5b8151620002f48482602086016200028b565b91505092915050565b6000815190506200030e81620004d7565b92915050565b6000806000606084860312156200032a57600080fd5b600084015167ffffffffffffffff8111156200034557600080fd5b6200035386828701620002d0565b935050602084015167ffffffffffffffff8111156200037157600080fd5b6200037f86828701620002d0565b92505060406200039286828701620002fd565b9150509250925092565b6000604051905081810181811067ffffffffffffffff82111715620003c657620003c5620004a8565b5b8060405250919050565b600067ffffffffffffffff821115620003ee57620003ed620004a8565b5b601f19601f8301169050602081019050919050565b6000819050919050565b60005b838110156200042d57808201518184015260208101905062000410565b838111156200043d576000848401525b50505050565b600060028204905060018216806200045c57607f821691505b6020821081141562000473576200047262000479565b5b50919050565b7f4e487b7100000000000000000000000000000000000000000000000000000000600052602260045260246000fd5b7f4e487b7100000000000000000000000000000000000000000000000000000000600052604160045260246000fd5b620004e28162000403565b8114620004ee57600080fd5b50565b60805160601c61340f62000517600039600081816109ac015261105d015261340f6000f3fe60806040526004361061014b5760003560e01c8063715018a6116100b6578063b88d4fde1161006f578063b88d4fde1461046f578063c002d23d14610498578063c87b56dd146104c3578063e2982c2114610500578063e985e9c51461053d578063f2fde38b1461057a5761014b565b8063715018a61461037e578063755edd17146103955780638da5cb5b146103c5578063902d55a5146103f057806395d89b411461041b578063a22cb465146104465761014b565b806331b3eb941161010857806331b3eb94146102705780633ccfd60b1461029957806342842e0e146102b05780636352211e146102d95780636f4581331461031657806370a08231146103415761014b565b806301ffc9a71461015057806306fdde031461018d578063081812fc146101b8578063095ea7b3146101f557806323b872dd1461021e57806330176e1314610247575b600080fd5b34801561015c57600080fd5b5061017760048036038101906101729190612426565b6105a3565b6040516101849190612cfe565b60405180910390f35b34801561019957600080fd5b506101a2610685565b6040516101af9190612d19565b60405180910390f35b3480156101c457600080fd5b506101df60048036038101906101da91906124b9565b610717565b6040516101ec9190612c7c565b60405180910390f35b34801561020157600080fd5b5061021c600480360381019061021791906123ea565b61079c565b005b34801561022a57600080fd5b50610245600480360381019061024091906122e4565b6108b4565b005b34801561025357600080fd5b5061026e60048036038101906102699190612478565b610914565b005b34801561027c57600080fd5b506102976004803603810190610292919061227f565b6109aa565b005b3480156102a557600080fd5b506102ae610a38565b005b3480156102bc57600080fd5b506102d760048036038101906102d291906122e4565b610b03565b005b3480156102e557600080fd5b5061030060048036038101906102fb91906124b9565b610b23565b60405161030d9190612c7c565b60405180910390f35b34801561032257600080fd5b5061032b610bd5565b6040516103389190612d19565b60405180910390f35b34801561034d57600080fd5b5061036860048036038101906103639190612256565b610c63565b6040516103759190612f7b565b60405180910390f35b34801561038a57600080fd5b50610393610d1b565b005b6103af60048036038101906103aa9190612256565b610da3565b6040516103bc9190612f7b565b60405180910390f35b3480156103d157600080fd5b506103da610e6c565b6040516103e79190612c7c565b60405180910390f35b3480156103fc57600080fd5b50610405610e96565b6040516104129190612f7b565b60405180910390f35b34801561042757600080fd5b50610430610e9c565b60405161043d9190612d19565b60405180910390f35b34801561045257600080fd5b5061046d600480360381019061046891906123ae565b610f2e565b005b34801561047b57600080fd5b5061049660048036038101906104919190612333565b610f44565b005b3480156104a457600080fd5b506104ad610fa6565b6040516104ba9190612f7b565b60405180910390f35b3480156104cf57600080fd5b506104ea60048036038101906104e591906124b9565b610fb2565b6040516104f79190612d19565b60405180910390f35b34801561050c57600080fd5b5061052760048036038101906105229190612256565b611059565b6040516105349190612f7b565b60405180910390f35b34801561054957600080fd5b50610564600480360381019061055f91906122a8565b61110b565b6040516105719190612cfe565b60405180910390f35b34801561058657600080fd5b506105a1600480360381019061059c9190612256565b61119f565b005b60007f80ac58cd000000000000000000000000000000000000000000000000000000007bffffffffffffffffffffffffffffffffffffffffffffffffffffffff1916827bffffffffffffffffffffffffffffffffffffffffffffffffffffffff1916148061066e57507f5b5e139f000000000000000000000000000000000000000000000000000000007bffffffffffffffffffffffffffffffffffffffffffffffffffffffff1916827bffffffffffffffffffffffffffffffffffffffffffffffffffffffff1916145b8061067e575061067d82611297565b5b9050919050565b606060008054610694906131ed565b80601f01602080910402602001604051908101604052809291908181526020018280546106c0906131ed565b801561070d5780601f106106e25761010080835404028352916020019161070d565b820191906000526020600020905b8154815290600101906020018083116106f057829003601f168201915b5050505050905090565b600061072282611301565b610761576040517f08c379a000000000000000000000000000000000000000000000000000000000815260040161075890612e9b565b60405180910390fd5b6004600083815260200190815260200160002060009054906101000a900473ffffffffffffffffffffffffffffffffffffffff169050919050565b60006107a782610b23565b90508073ffffffffffffffffffffffffffffffffffffffff168373ffffffffffffffffffffffffffffffffffffffff161415610818576040517f08c379a000000000000000000000000000000000000000000000000000000000815260040161080f90612f1b565b60405180910390fd5b8073ffffffffffffffffffffffffffffffffffffffff1661083761136d565b73ffffffffffffffffffffffffffffffffffffffff16148061086657506108658161086061136d565b61110b565b5b6108a5576040517f08c379a000000000000000000000000000000000000000000000000000000000815260040161089c90612e1b565b60405180910390fd5b6108af8383611375565b505050565b6108c56108bf61136d565b8261142e565b610904576040517f08c379a00000000000000000000000000000000000000000000000000000000081526004016108fb90612f3b565b60405180910390fd5b61090f83838361150c565b505050565b61091c61136d565b73ffffffffffffffffffffffffffffffffffffffff1661093a610e6c565b73ffffffffffffffffffffffffffffffffffffffff1614610990576040517f08c379a000000000000000000000000000000000000000000000000000000000815260040161098790612ebb565b60405180910390fd5b80600890805190602001906109a6929190612050565b5050565b7f000000000000000000000000000000000000000000000000000000000000000073ffffffffffffffffffffffffffffffffffffffff166351cff8d9826040518263ffffffff1660e01b8152600401610a039190612c97565b600060405180830381600087803b158015610a1d57600080fd5b505af1158015610a31573d6000803e3d6000fd5b5050505050565b610a4061136d565b73ffffffffffffffffffffffffffffffffffffffff16610a5e610e6c565b73ffffffffffffffffffffffffffffffffffffffff1614610ab4576040517f08c379a0000000000000000000000000000000000000000000000000000000008152600401610aab90612ebb565b60405180910390fd5b60004790503373ffffffffffffffffffffffffffffffffffffffff166108fc829081150290604051600060405180830381858888f19350505050158015610aff573d6000803e3d6000fd5b5050565b610b1e83838360405180602001604052806000815250610f44565b505050565b6000806002600084815260200190815260200160002060009054906101000a900473ffffffffffffffffffffffffffffffffffffffff169050600073ffffffffffffffffffffffffffffffffffffffff168173ffffffffffffffffffffffffffffffffffffffff161415610bcc576040517f08c379a0000000000000000000000000000000000000000000000000000000008152600401610bc390612e5b565b60405180910390fd5b80915050919050565b60088054610be2906131ed565b80601f0160208091040260200160405190810160405280929190818152602001828054610c0e906131ed565b8015610c5b5780601f10610c3057610100808354040283529160200191610c5b565b820191906000526020600020905b815481529060010190602001808311610c3e57829003601f168201915b505050505081565b60008073ffffffffffffffffffffffffffffffffffffffff168273ffffffffffffffffffffffffffffffffffffffff161415610cd4576040517f08c379a0000000000000000000000000000000000000000000000000000000008152600401610ccb90612e3b565b60405180910390fd5b600360008373ffffffffffffffffffffffffffffffffffffffff1673ffffffffffffffffffffffffffffffffffffffff168152602001908152602001600020549050919050565b610d2361136d565b73ffffffffffffffffffffffffffffffffffffffff16610d41610e6c565b73ffffffffffffffffffffffffffffffffffffffff1614610d97576040517f08c379a0000000000000000000000000000000000000000000000000000000008152600401610d8e90612ebb565b60405180910390fd5b610da16000611768565b565b600080610db0600961182e565b90506007548110610df6576040517f08c379a0000000000000000000000000000000000000000000000000000000008152600401610ded90612f5b565b60405180910390fd5b67011c37937e0800003414610e40576040517f08c379a0000000000000000000000000000000000000000000000000000000008152600401610e3790612ddb565b60405180910390fd5b610e4a600961183c565b6000610e56600961182e565b9050610e628482611852565b8092505050919050565b6000600660009054906101000a900473ffffffffffffffffffffffffffffffffffffffff16905090565b60075481565b606060018054610eab906131ed565b80601f0160208091040260200160405190810160405280929190818152602001828054610ed7906131ed565b8015610f245780601f10610ef957610100808354040283529160200191610f24565b820191906000526020600020905b815481529060010190602001808311610f0757829003601f168201915b5050505050905090565b610f40610f3961136d565b8383611870565b5050565b610f55610f4f61136d565b8361142e565b610f94576040517f08c379a0000000000000000000000000000000000000000000000000000000008152600401610f8b90612f3b565b60405180910390fd5b610fa0848484846119dd565b50505050565b67011c37937e08000081565b6060610fbd82611301565b610ffc576040517f08c379a0000000000000000000000000000000000000000000000000000000008152600401610ff390612efb565b60405180910390fd5b6000611006611a39565b905060008151116110265760405180602001604052806000815250611051565b8061103084611acb565b604051602001611041929190612c58565b6040516020818303038152906040525b915050919050565b60007f000000000000000000000000000000000000000000000000000000000000000073ffffffffffffffffffffffffffffffffffffffff1663e3a9db1a836040518263ffffffff1660e01b81526004016110b49190612c7c565b60206040518083038186803b1580156110cc57600080fd5b505afa1580156110e0573d6000803e3d6000fd5b505050506040513d601f19601f8201168201806040525081019061110491906124e2565b9050919050565b6000600560008473ffffffffffffffffffffffffffffffffffffffff1673ffffffffffffffffffffffffffffffffffffffff16815260200190815260200160002060008373ffffffffffffffffffffffffffffffffffffffff1673ffffffffffffffffffffffffffffffffffffffff16815260200190815260200160002060009054906101000a900460ff16905092915050565b6111a761136d565b73ffffffffffffffffffffffffffffffffffffffff166111c5610e6c565b73ffffffffffffffffffffffffffffffffffffffff161461121b576040517f08c379a000000000000000000000000000000000000000000000000000000000815260040161121290612ebb565b60405180910390fd5b600073ffffffffffffffffffffffffffffffffffffffff168173ffffffffffffffffffffffffffffffffffffffff16141561128b576040517f08c379a000000000000000000000000000000000000000000000000000000000815260040161128290612d5b565b60405180910390fd5b61129481611768565b50565b60007f01ffc9a7000000000000000000000000000000000000000000000000000000007bffffffffffffffffffffffffffffffffffffffffffffffffffffffff1916827bffffffffffffffffffffffffffffffffffffffffffffffffffffffff1916149050919050565b60008073ffffffffffffffffffffffffffffffffffffffff166002600084815260200190815260200160002060009054906101000a900473ffffffffffffffffffffffffffffffffffffffff1673ffffffffffffffffffffffffffffffffffffffff1614159050919050565b600033905090565b816004600083815260200190815260200160002060006101000a81548173ffffffffffffffffffffffffffffffffffffffff021916908373ffffffffffffffffffffffffffffffffffffffff160217905550808273ffffffffffffffffffffffffffffffffffffffff166113e883610b23565b73ffffffffffffffffffffffffffffffffffffffff167f8c5be1e5ebec7d5bd14f71427d1e84f3dd0314c0f7b2291e5b200ac8c7c3b92560405160405180910390a45050565b600061143982611301565b611478576040517f08c379a000000000000000000000000000000000000000000000000000000000815260040161146f90612dfb565b60405180910390fd5b600061148383610b23565b90508073ffffffffffffffffffffffffffffffffffffffff168473ffffffffffffffffffffffffffffffffffffffff1614806114f257508373ffffffffffffffffffffffffffffffffffffffff166114da84610717565b73ffffffffffffffffffffffffffffffffffffffff16145b806115035750611502818561110b565b5b91505092915050565b8273ffffffffffffffffffffffffffffffffffffffff1661152c82610b23565b73ffffffffffffffffffffffffffffffffffffffff1614611582576040517f08c379a000000000000000000000000000000000000000000000000000000000815260040161157990612edb565b60405180910390fd5b600073ffffffffffffffffffffffffffffffffffffffff168273ffffffffffffffffffffffffffffffffffffffff1614156115f2576040517f08c379a00000000000000000000000000000000000000000000000000000000081526004016115e990612d9b565b60405180910390fd5b6115fd838383611c78565b611608600082611375565b6001600360008573ffffffffffffffffffffffffffffffffffffffff1673ffffffffffffffffffffffffffffffffffffffff168152602001908152602001600020600082825461165891906130f1565b925050819055506001600360008473ffffffffffffffffffffffffffffffffffffffff1673ffffffffffffffffffffffffffffffffffffffff16815260200190815260200160002060008282546116af919061306a565b92505081905550816002600083815260200190815260200160002060006101000a81548173ffffffffffffffffffffffffffffffffffffffff021916908373ffffffffffffffffffffffffffffffffffffffff160217905550808273ffffffffffffffffffffffffffffffffffffffff168473ffffffffffffffffffffffffffffffffffffffff167fddf252ad1be2c89b69c2b068fc378daa952ba7f163c4a11628f55a4df523b3ef60405160405180910390a4505050565b6000600660009054906101000a900473ffffffffffffffffffffffffffffffffffffffff16905081600660006101000a81548173ffffffffffffffffffffffffffffffffffffffff021916908373ffffffffffffffffffffffffffffffffffffffff1602179055508173ffffffffffffffffffffffffffffffffffffffff168173ffffffffffffffffffffffffffffffffffffffff167f8be0079c531659141344cd1fd0a4f28419497f9722a3daafe3b4186f6b6457e060405160405180910390a35050565b600081600001549050919050565b6001816000016000828254019250508190555050565b61186c828260405180602001604052806000815250611c7d565b5050565b8173ffffffffffffffffffffffffffffffffffffffff168373ffffffffffffffffffffffffffffffffffffffff1614156118df576040517f08c379a00000000000000000000000000000000000000000000000000000000081526004016118d690612dbb565b60405180910390fd5b80600560008573ffffffffffffffffffffffffffffffffffffffff1673ffffffffffffffffffffffffffffffffffffffff16815260200190815260200160002060008473ffffffffffffffffffffffffffffffffffffffff1673ffffffffffffffffffffffffffffffffffffffff16815260200190815260200160002060006101000a81548160ff0219169083151502179055508173ffffffffffffffffffffffffffffffffffffffff168373ffffffffffffffffffffffffffffffffffffffff167f17307eab39ab6107e8899845ad3d59bd9653f200f220920489ca2b5937696c31836040516119d09190612cfe565b60405180910390a3505050565b6119e884848461150c565b6119f484848484611cd8565b611a33576040517f08c379a0000000000000000000000000000000000000000000000000000000008152600401611a2a90612d3b565b60405180910390fd5b50505050565b606060088054611a48906131ed565b80601f0160208091040260200160405190810160405280929190818152602001828054611a74906131ed565b8015611ac15780601f10611a9657610100808354040283529160200191611ac1565b820191906000526020600020905b815481529060010190602001808311611aa457829003601f168201915b5050505050905090565b60606000821415611b13576040518060400160405280600181526020017f30000000000000000000000000000000000000000000000000000000000000008152509050611c73565b600082905060005b60008214611b45578080611b2e9061321f565b915050600a82611b3e91906130c0565b9150611b1b565b60008167ffffffffffffffff811115611b87577f4e487b7100000000000000000000000000000000000000000000000000000000600052604160045260246000fd5b6040519080825280601f01601f191660200182016040528015611bb95781602001600182028036833780820191505090505b5090505b60008514611c6c57600182611bd291906130f1565b9150600a85611be19190613268565b6030611bed919061306a565b60f81b818381518110611c29577f4e487b7100000000000000000000000000000000000000000000000000000000600052603260045260246000fd5b60200101907effffffffffffffffffffffffffffffffffffffffffffffffffffffffffffff1916908160001a905350600a85611c6591906130c0565b9450611bbd565b8093505050505b919050565b505050565b611c878383611e6f565b611c946000848484611cd8565b611cd3576040517f08c379a0000000000000000000000000000000000000000000000000000000008152600401611cca90612d3b565b60405180910390fd5b505050565b6000611cf98473ffffffffffffffffffffffffffffffffffffffff1661203d565b15611e62578373ffffffffffffffffffffffffffffffffffffffff1663150b7a02611d2261136d565b8786866040518563ffffffff1660e01b8152600401611d449493929190612cb2565b602060405180830381600087803b158015611d5e57600080fd5b505af1925050508015611d8f57506040513d601f19601f82011682018060405250810190611d8c919061244f565b60015b611e12573d8060008114611dbf576040519150601f19603f3d011682016040523d82523d6000602084013e611dc4565b606091505b50600081511415611e0a576040517f08c379a0000000000000000000000000000000000000000000000000000000008152600401611e0190612d3b565b60405180910390fd5b805181602001fd5b63150b7a0260e01b7bffffffffffffffffffffffffffffffffffffffffffffffffffffffff1916817bffffffffffffffffffffffffffffffffffffffffffffffffffffffff191614915050611e67565b600190505b949350505050565b600073ffffffffffffffffffffffffffffffffffffffff168273ffffffffffffffffffffffffffffffffffffffff161415611edf576040517f08c379a0000000000000000000000000000000000000000000000000000000008152600401611ed690612e7b565b60405180910390fd5b611ee881611301565b15611f28576040517f08c379a0000000000000000000000000000000000000000000000000000000008152600401611f1f90612d7b565b60405180910390fd5b611f3460008383611c78565b6001600360008473ffffffffffffffffffffffffffffffffffffffff1673ffffffffffffffffffffffffffffffffffffffff1681526020019081526020016000206000828254611f84919061306a565b92505081905550816002600083815260200190815260200160002060006101000a81548173ffffffffffffffffffffffffffffffffffffffff021916908373ffffffffffffffffffffffffffffffffffffffff160217905550808273ffffffffffffffffffffffffffffffffffffffff16600073ffffffffffffffffffffffffffffffffffffffff167fddf252ad1be2c89b69c2b068fc378daa952ba7f163c4a11628f55a4df523b3ef60405160405180910390a45050565b600080823b905060008111915050919050565b82805461205c906131ed565b90600052602060002090601f01602090048101928261207e57600085556120c5565b82601f1061209757805160ff19168380011785556120c5565b828001600101855582156120c5579182015b828111156120c45782518255916020019190600101906120a9565b5b5090506120d291906120d6565b5090565b5b808211156120ef5760008160009055506001016120d7565b5090565b600061210661210184612fc7565b612f96565b90508281526020810184848401111561211e57600080fd5b6121298482856131ab565b509392505050565b600061214461213f84612ff7565b612f96565b90508281526020810184848401111561215c57600080fd5b6121678482856131ab565b509392505050565b60008135905061217e81613366565b92915050565b6000813590506121938161337d565b92915050565b6000813590506121a881613394565b92915050565b6000813590506121bd816133ab565b92915050565b6000815190506121d2816133ab565b92915050565b600082601f8301126121e957600080fd5b81356121f98482602086016120f3565b91505092915050565b600082601f83011261221357600080fd5b8135612223848260208601612131565b91505092915050565b60008135905061223b816133c2565b92915050565b600081519050612250816133c2565b92915050565b60006020828403121561226857600080fd5b60006122768482850161216f565b91505092915050565b60006020828403121561229157600080fd5b600061229f84828501612184565b91505092915050565b600080604083850312156122bb57600080fd5b60006122c98582860161216f565b92505060206122da8582860161216f565b9150509250929050565b6000806000606084860312156122f957600080fd5b60006123078682870161216f565b93505060206123188682870161216f565b92505060406123298682870161222c565b9150509250925092565b6000806000806080858703121561234957600080fd5b60006123578782880161216f565b94505060206123688782880161216f565b93505060406123798782880161222c565b925050606085013567ffffffffffffffff81111561239657600080fd5b6123a2878288016121d8565b91505092959194509250565b600080604083850312156123c157600080fd5b60006123cf8582860161216f565b92505060206123e085828601612199565b9150509250929050565b600080604083850312156123fd57600080fd5b600061240b8582860161216f565b925050602061241c8582860161222c565b9150509250929050565b60006020828403121561243857600080fd5b6000612446848285016121ae565b91505092915050565b60006020828403121561246157600080fd5b600061246f848285016121c3565b91505092915050565b60006020828403121561248a57600080fd5b600082013567ffffffffffffffff8111156124a457600080fd5b6124b084828501612202565b91505092915050565b6000602082840312156124cb57600080fd5b60006124d98482850161222c565b91505092915050565b6000602082840312156124f457600080fd5b600061250284828501612241565b91505092915050565b61251481613137565b82525050565b61252381613125565b82525050565b61253281613149565b82525050565b600061254382613027565b61254d818561303d565b935061255d8185602086016131ba565b61256681613355565b840191505092915050565b600061257c82613032565b612586818561304e565b93506125968185602086016131ba565b61259f81613355565b840191505092915050565b60006125b582613032565b6125bf818561305f565b93506125cf8185602086016131ba565b80840191505092915050565b60006125e860328361304e565b91507f4552433732313a207472616e7366657220746f206e6f6e20455243373231526560008301527f63656976657220696d706c656d656e74657200000000000000000000000000006020830152604082019050919050565b600061264e60268361304e565b91507f4f776e61626c653a206e6577206f776e657220697320746865207a65726f206160008301527f64647265737300000000000000000000000000000000000000000000000000006020830152604082019050919050565b60006126b4601c8361304e565b91507f4552433732313a20746f6b656e20616c7265616479206d696e746564000000006000830152602082019050919050565b60006126f460248361304e565b91507f4552433732313a207472616e7366657220746f20746865207a65726f2061646460008301527f72657373000000000000000000000000000000000000000000000000000000006020830152604082019050919050565b600061275a60198361304e565b91507f4552433732313a20617070726f766520746f2063616c6c6572000000000000006000830152602082019050919050565b600061279a602e8361304e565b91507f5472616e73616374696f6e2076616c756520646964206e6f7420657175616c2060008301527f746865206d696e742070726963650000000000000000000000000000000000006020830152604082019050919050565b6000612800602c8361304e565b91507f4552433732313a206f70657261746f7220717565727920666f72206e6f6e657860008301527f697374656e7420746f6b656e00000000000000000000000000000000000000006020830152604082019050919050565b600061286660388361304e565b91507f4552433732313a20617070726f76652063616c6c6572206973206e6f74206f7760008301527f6e6572206e6f7220617070726f76656420666f7220616c6c00000000000000006020830152604082019050919050565b60006128cc602a8361304e565b91507f4552433732313a2062616c616e636520717565727920666f7220746865207a6560008301527f726f2061646472657373000000000000000000000000000000000000000000006020830152604082019050919050565b600061293260298361304e565b91507f4552433732313a206f776e657220717565727920666f72206e6f6e657869737460008301527f656e7420746f6b656e00000000000000000000000000000000000000000000006020830152604082019050919050565b600061299860208361304e565b91507f4552433732313a206d696e7420746f20746865207a65726f20616464726573736000830152602082019050919050565b60006129d8602c8361304e565b91507f4552433732313a20617070726f76656420717565727920666f72206e6f6e657860008301527f697374656e7420746f6b656e00000000000000000000000000000000000000006020830152604082019050919050565b6000612a3e60208361304e565b91507f4f776e61626c653a2063616c6c6572206973206e6f7420746865206f776e65726000830152602082019050919050565b6000612a7e60298361304e565b91507f4552433732313a207472616e73666572206f6620746f6b656e2074686174206960008301527f73206e6f74206f776e00000000000000000000000000000000000000000000006020830152604082019050919050565b6000612ae4602f8361304e565b91507f4552433732314d657461646174613a2055524920717565727920666f72206e6f60008301527f6e6578697374656e7420746f6b656e00000000000000000000000000000000006020830152604082019050919050565b6000612b4a60218361304e565b91507f4552433732313a20617070726f76616c20746f2063757272656e74206f776e6560008301527f72000000000000000000000000000000000000000000000000000000000000006020830152604082019050919050565b6000612bb060318361304e565b91507f4552433732313a207472616e736665722063616c6c6572206973206e6f74206f60008301527f776e6572206e6f7220617070726f7665640000000000000000000000000000006020830152604082019050919050565b6000612c1660128361304e565b91507f4d617820737570706c79207265616368656400000000000000000000000000006000830152602082019050919050565b612c52816131a1565b82525050565b6000612c6482856125aa565b9150612c7082846125aa565b91508190509392505050565b6000602082019050612c91600083018461251a565b92915050565b6000602082019050612cac600083018461250b565b92915050565b6000608082019050612cc7600083018761251a565b612cd4602083018661251a565b612ce16040830185612c49565b8181036060830152612cf38184612538565b905095945050505050565b6000602082019050612d136000830184612529565b92915050565b60006020820190508181036000830152612d338184612571565b905092915050565b60006020820190508181036000830152612d54816125db565b9050919050565b60006020820190508181036000830152612d7481612641565b9050919050565b60006020820190508181036000830152612d94816126a7565b9050919050565b60006020820190508181036000830152612db4816126e7565b9050919050565b60006020820190508181036000830152612dd48161274d565b9050919050565b60006020820190508181036000830152612df48161278d565b9050919050565b60006020820190508181036000830152612e14816127f3565b9050919050565b60006020820190508181036000830152612e3481612859565b9050919050565b60006020820190508181036000830152612e54816128bf565b9050919050565b60006020820190508181036000830152612e7481612925565b9050919050565b60006020820190508181036000830152612e948161298b565b9050919050565b60006020820190508181036000830152612eb4816129cb565b9050919050565b60006020820190508181036000830152612ed481612a31565b9050919050565b60006020820190508181036000830152612ef481612a71565b9050919050565b60006020820190508181036000830152612f1481612ad7565b9050919050565b60006020820190508181036000830152612f3481612b3d565b9050919050565b60006020820190508181036000830152612f5481612ba3565b9050919050565b60006020820190508181036000830152612f7481612c09565b9050919050565b6000602082019050612f906000830184612c49565b92915050565b6000604051905081810181811067ffffffffffffffff82111715612fbd57612fbc613326565b5b8060405250919050565b600067ffffffffffffffff821115612fe257612fe1613326565b5b601f19601f8301169050602081019050919050565b600067ffffffffffffffff82111561301257613011613326565b5b601f19601f8301169050602081019050919050565b600081519050919050565b600081519050919050565b600082825260208201905092915050565b600082825260208201905092915050565b600081905092915050565b6000613075826131a1565b9150613080836131a1565b9250827fffffffffffffffffffffffffffffffffffffffffffffffffffffffffffffffff038211156130b5576130b4613299565b5b828201905092915050565b60006130cb826131a1565b91506130d6836131a1565b9250826130e6576130e56132c8565b5b828204905092915050565b60006130fc826131a1565b9150613107836131a1565b92508282101561311a57613119613299565b5b828203905092915050565b600061313082613181565b9050919050565b600061314282613181565b9050919050565b60008115159050919050565b60007fffffffff0000000000000000000000000000000000000000000000000000000082169050919050565b600073ffffffffffffffffffffffffffffffffffffffff82169050919050565b6000819050919050565b82818337600083830152505050565b60005b838110156131d85780820151818401526020810190506131bd565b838111156131e7576000848401525b50505050565b6000600282049050600182168061320557607f821691505b60208210811415613219576132186132f7565b5b50919050565b600061322a826131a1565b91507fffffffffffffffffffffffffffffffffffffffffffffffffffffffffffffffff82141561325d5761325c613299565b5b600182019050919050565b6000613273826131a1565b915061327e836131a1565b92508261328e5761328d6132c8565b5b828206905092915050565b7f4e487b7100000000000000000000000000000000000000000000000000000000600052601160045260246000fd5b7f4e487b7100000000000000000000000000000000000000000000000000000000600052601260045260246000fd5b7f4e487b7100000000000000000000000000000000000000000000000000000000600052602260045260246000fd5b7f4e487b7100000000000000000000000000000000000000000000000000000000600052604160045260246000fd5b6000601f19601f8301169050919050565b61336f81613125565b811461337a57600080fd5b50565b61338681613137565b811461339157600080fd5b50565b61339d81613149565b81146133a857600080fd5b50565b6133b481613155565b81146133bf57600080fd5b50565b6133cb816131a1565b81146133d657600080fd5b5056fea26469706673582212206d908f8bedfb647ba68a772d05b7d631718a9350c7e9c1d1a33ebb33ed436dd564736f6c63430008000033608060405234801561001057600080fd5b5061002d61002261003260201b60201c565b61003a60201b60201c565b6100fe565b600033905090565b60008060009054906101000a900473ffffffffffffffffffffffffffffffffffffffff169050816000806101000a81548173ffffffffffffffffffffffffffffffffffffffff021916908373ffffffffffffffffffffffffffffffffffffffff1602179055508173ffffffffffffffffffffffffffffffffffffffff168173ffffffffffffffffffffffffffffffffffffffff167f8be0079c531659141344cd1fd0a4f28419497f9722a3daafe3b4186f6b6457e060405160405180910390a35050565b610bc08061010d6000396000f3fe6080604052600436106100555760003560e01c806351cff8d91461005a578063715018a6146100835780638da5cb5b1461009a578063e3a9db1a146100c5578063f2fde38b14610102578063f340fa011461012b575b600080fd5b34801561006657600080fd5b50610081600480360381019061007c91906107f5565b610147565b005b34801561008f57600080fd5b506100986102c7565b005b3480156100a657600080fd5b506100af61034f565b6040516100bc91906109b7565b60405180910390f35b3480156100d157600080fd5b506100ec60048036038101906100e791906107cc565b610378565b6040516100f99190610a52565b60405180910390f35b34801561010e57600080fd5b50610129600480360381019061012491906107cc565b6103c1565b005b610145600480360381019061014091906107cc565b6104b9565b005b61014f6105e2565b73ffffffffffffffffffffffffffffffffffffffff1661016d61034f565b73ffffffffffffffffffffffffffffffffffffffff16146101c3576040517f08c379a00000000000000000000000000000000000000000000000000000000081526004016101ba90610a32565b60405180910390fd5b6000600160008373ffffffffffffffffffffffffffffffffffffffff1673ffffffffffffffffffffffffffffffffffffffff1681526020019081526020016000205490506000600160008473ffffffffffffffffffffffffffffffffffffffff1673ffffffffffffffffffffffffffffffffffffffff16815260200190815260200160002081905550610275818373ffffffffffffffffffffffffffffffffffffffff166105ea90919063ffffffff16565b8173ffffffffffffffffffffffffffffffffffffffff167f7084f5476618d8e60b11ef0d7d3f06914655adb8793e28ff7f018d4c76d505d5826040516102bb9190610a52565b60405180910390a25050565b6102cf6105e2565b73ffffffffffffffffffffffffffffffffffffffff166102ed61034f565b73ffffffffffffffffffffffffffffffffffffffff1614610343576040517f08c379a000000000000000000000000000000000000000000000000000000000815260040161033a90610a32565b60405180910390fd5b61034d60006106de565b565b60008060009054906101000a900473ffffffffffffffffffffffffffffffffffffffff16905090565b6000600160008373ffffffffffffffffffffffffffffffffffffffff1673ffffffffffffffffffffffffffffffffffffffff168152602001908152602001600020549050919050565b6103c96105e2565b73ffffffffffffffffffffffffffffffffffffffff166103e761034f565b73ffffffffffffffffffffffffffffffffffffffff161461043d576040517f08c379a000000000000000000000000000000000000000000000000000000000815260040161043490610a32565b60405180910390fd5b600073ffffffffffffffffffffffffffffffffffffffff168173ffffffffffffffffffffffffffffffffffffffff1614156104ad576040517f08c379a00000000000000000000000000000000000000000000000000000000081526004016104a4906109d2565b60405180910390fd5b6104b6816106de565b50565b6104c16105e2565b73ffffffffffffffffffffffffffffffffffffffff166104df61034f565b73ffffffffffffffffffffffffffffffffffffffff1614610535576040517f08c379a000000000000000000000000000000000000000000000000000000000815260040161052c90610a32565b60405180910390fd5b600034905080600160008473ffffffffffffffffffffffffffffffffffffffff1673ffffffffffffffffffffffffffffffffffffffff16815260200190815260200160002060008282546105899190610a89565b925050819055508173ffffffffffffffffffffffffffffffffffffffff167f2da466a7b24304f47e87fa2e1e5a81b9831ce54fec19055ce277ca2f39ba42c4826040516105d69190610a52565b60405180910390a25050565b600033905090565b8047101561062d576040517f08c379a000000000000000000000000000000000000000000000000000000000815260040161062490610a12565b60405180910390fd5b60008273ffffffffffffffffffffffffffffffffffffffff1682604051610653906109a2565b60006040518083038185875af1925050503d8060008114610690576040519150601f19603f3d011682016040523d82523d6000602084013e610695565b606091505b50509050806106d9576040517f08c379a00000000000000000000000000000000000000000000000000000000081526004016106d0906109f2565b60405180910390fd5b505050565b60008060009054906101000a900473ffffffffffffffffffffffffffffffffffffffff169050816000806101000a81548173ffffffffffffffffffffffffffffffffffffffff021916908373ffffffffffffffffffffffffffffffffffffffff1602179055508173ffffffffffffffffffffffffffffffffffffffff168173ffffffffffffffffffffffffffffffffffffffff167f8be0079c531659141344cd1fd0a4f28419497f9722a3daafe3b4186f6b6457e060405160405180910390a35050565b6000813590506107b181610b5c565b92915050565b6000813590506107c681610b73565b92915050565b6000602082840312156107de57600080fd5b60006107ec848285016107a2565b91505092915050565b60006020828403121561080757600080fd5b6000610815848285016107b7565b91505092915050565b61082781610adf565b82525050565b600061083a602683610a78565b91507f4f776e61626c653a206e6577206f776e657220697320746865207a65726f206160008301527f64647265737300000000000000000000000000000000000000000000000000006020830152604082019050919050565b60006108a0603a83610a78565b91507f416464726573733a20756e61626c6520746f2073656e642076616c75652c207260008301527f6563697069656e74206d617920686176652072657665727465640000000000006020830152604082019050919050565b6000610906601d83610a78565b91507f416464726573733a20696e73756666696369656e742062616c616e63650000006000830152602082019050919050565b6000610946602083610a78565b91507f4f776e61626c653a2063616c6c6572206973206e6f7420746865206f776e65726000830152602082019050919050565b6000610986600083610a6d565b9150600082019050919050565b61099c81610b23565b82525050565b60006109ad82610979565b9150819050919050565b60006020820190506109cc600083018461081e565b92915050565b600060208201905081810360008301526109eb8161082d565b9050919050565b60006020820190508181036000830152610a0b81610893565b9050919050565b60006020820190508181036000830152610a2b816108f9565b9050919050565b60006020820190508181036000830152610a4b81610939565b9050919050565b6000602082019050610a676000830184610993565b92915050565b600081905092915050565b600082825260208201905092915050565b6000610a9482610b23565b9150610a9f83610b23565b9250827fffffffffffffffffffffffffffffffffffffffffffffffffffffffffffffffff03821115610ad457610ad3610b2d565b5b828201905092915050565b6000610aea82610b03565b9050919050565b6000610afc82610b03565b9050919050565b600073ffffffffffffffffffffffffffffffffffffffff82169050919050565b6000819050919050565b7f4e487b7100000000000000000000000000000000000000000000000000000000600052601160045260246000fd5b610b6581610adf565b8114610b7057600080fd5b50565b610b7c81610af1565b8114610b8757600080fd5b5056fea26469706673582212204e8ab707adc9ee645b828ddc4f791bd246fea3a80e8eeba1ce50ca1d3c28c2cb64736f6c63430008000033",
  "linkReferences": {},
  "deployedLinkReferences": {}
}