{
  "_format": "hh-sol-artifact-1",
  "contractName": "AZNFT",
  "sourceName": "contracts/AZNFT.sol",
  "abi": [
    {
      "inputs": [
        {
          "internalType": "string",
          "name": "name",
          "type": "string"
        },
        {
          "internalType": "string",
          "name": "symbol",
          "type": "string"
        },
        {
          "internalType": "uint256",
          "name": "maxNftSupply",
          "type": "uint256"
        }
      ],
      "stateMutability": "nonpayable",
      "type": "constructor"
    },
    {
      "anonymous": false,
      "inputs": [
        {
          "indexed": true,
          "internalType": "address",
          "name": "owner",
          "type": "address"
        },
        {
          "indexed": true,
          "internalType": "address",
          "name": "approved",
          "type": "address"
        },
        {
          "indexed": true,
          "internalType": "uint256",
          "name": "tokenId",
          "type": "uint256"
        }
      ],
      "name": "Approval",
      "type": "event"
    },
    {
      "anonymous": false,
      "inputs": [
        {
          "indexed": true,
          "internalType": "address",
          "name": "owner",
          "type": "address"
        },
        {
          "indexed": true,
          "internalType": "address",
          "name": "operator",
          "type": "address"
        },
        {
          "indexed": false,
          "internalType": "bool",
          "name": "approved",
          "type": "bool"
        }
      ],
      "name": "ApprovalForAll",
      "type": "event"
    },
    {
      "anonymous": false,
      "inputs": [
        {
          "indexed": false,
          "internalType": "address",
          "name": "_by",
          "type": "address"
        },
        {
          "indexed": false,
          "internalType": "string",
          "name": "_oldVal",
          "type": "string"
        },
        {
          "indexed": false,
          "internalType": "string",
          "name": "_newVal",
          "type": "string"
        }
      ],
      "name": "BaseURIChanged",
      "type": "event"
    },
    {
      "anonymous": false,
      "inputs": [
        {
          "indexed": true,
          "internalType": "address",
          "name": "previousOwner",
          "type": "address"
        },
        {
          "indexed": true,
          "internalType": "address",
          "name": "newOwner",
          "type": "address"
        }
      ],
      "name": "OwnershipTransferred",
      "type": "event"
    },
    {
      "anonymous": false,
      "inputs": [
        {
          "indexed": false,
          "internalType": "address",
          "name": "_by",
          "type": "address"
        },
        {
          "indexed": false,
          "internalType": "string",
          "name": "_provenance",
          "type": "string"
        }
      ],
      "name": "ProvenanceHashChanged",
      "type": "event"
    },
    {
      "anonymous": false,
      "inputs": [
        {
          "indexed": false,
          "internalType": "address",
          "name": "_by",
          "type": "address"
        },
        {
          "indexed": false,
          "internalType": "uint256",
          "name": "_newTimestamp",
          "type": "uint256"
        }
      ],
      "name": "RevealTimestampChanged",
      "type": "event"
    },
    {
      "anonymous": false,
      "inputs": [
        {
          "indexed": false,
          "internalType": "address",
          "name": "_by",
          "type": "address"
        },
        {
          "indexed": false,
          "internalType": "string",
          "name": "_saleType",
          "type": "string"
        },
        {
          "indexed": false,
          "internalType": "bool",
          "name": "_newSaleState",
          "type": "bool"
        }
      ],
      "name": "SaleStateChanged",
      "type": "event"
    },
    {
      "anonymous": false,
      "inputs": [
        {
          "indexed": true,
          "internalType": "address",
          "name": "from",
          "type": "address"
        },
        {
          "indexed": true,
          "internalType": "address",
          "name": "to",
          "type": "address"
        },
        {
          "indexed": true,
          "internalType": "uint256",
          "name": "tokenId",
          "type": "uint256"
        }
      ],
      "name": "Transfer",
      "type": "event"
    },
    {
      "inputs": [],
      "name": "BASE_EXTENSION",
      "outputs": [
        {
          "internalType": "string",
          "name": "",
          "type": "string"
        }
      ],
      "stateMutability": "view",
      "type": "function"
    },
    {
      "inputs": [],
      "name": "BASE_TOKEN_URI",
      "outputs": [
        {
          "internalType": "string",
          "name": "",
          "type": "string"
        }
      ],
      "stateMutability": "view",
      "type": "function"
    },
    {
      "inputs": [],
      "name": "MAX_MINT_QTY",
      "outputs": [
        {
          "internalType": "uint8",
          "name": "",
          "type": "uint8"
        }
      ],
      "stateMutability": "view",
      "type": "function"
    },
    {
      "inputs": [],
      "name": "MAX_MINT_QTY_PRESALE",
      "outputs": [
        {
          "internalType": "uint8",
          "name": "",
          "type": "uint8"
        }
      ],
      "stateMutability": "view",
      "type": "function"
    },
    {
      "inputs": [],
      "name": "MAX_SUPPLY",
      "outputs": [
        {
          "internalType": "uint256",
          "name": "",
          "type": "uint256"
        }
      ],
      "stateMutability": "view",
      "type": "function"
    },
    {
      "inputs": [],
      "name": "MINT_PRICE",
      "outputs": [
        {
          "internalType": "uint256",
          "name": "",
          "type": "uint256"
        }
      ],
      "stateMutability": "view",
      "type": "function"
    },
    {
      "inputs": [],
      "name": "NOT_REVEALED_TOKEN_URI",
      "outputs": [
        {
          "internalType": "string",
          "name": "",
          "type": "string"
        }
      ],
      "stateMutability": "view",
      "type": "function"
    },
    {
      "inputs": [],
      "name": "PROVENANCE",
      "outputs": [
        {
          "internalType": "string",
          "name": "",
          "type": "string"
        }
      ],
      "stateMutability": "view",
      "type": "function"
    },
    {
      "inputs": [],
      "name": "REVEAL_TIMESTAMP",
      "outputs": [
        {
          "internalType": "uint256",
          "name": "",
          "type": "uint256"
        }
      ],
      "stateMutability": "view",
      "type": "function"
    },
    {
      "inputs": [
        {
          "internalType": "address[]",
          "name": "addrs",
          "type": "address[]"
        }
      ],
      "name": "addAddressesToWhitelist",
      "outputs": [],
      "stateMutability": "nonpayable",
      "type": "function"
    },
    {
      "inputs": [
        {
          "internalType": "address",
          "name": "_addressToAirdrop",
          "type": "address"
        }
      ],
      "name": "airdropMint",
      "outputs": [],
      "stateMutability": "nonpayable",
      "type": "function"
    },
    {
      "inputs": [
        {
          "internalType": "address",
          "name": "to",
          "type": "address"
        },
        {
          "internalType": "uint256",
          "name": "tokenId",
          "type": "uint256"
        }
      ],
      "name": "approve",
      "outputs": [],
      "stateMutability": "nonpayable",
      "type": "function"
    },
    {
      "inputs": [
        {
          "internalType": "address",
          "name": "owner",
          "type": "address"
        }
      ],
      "name": "balanceOf",
      "outputs": [
        {
          "internalType": "uint256",
          "name": "",
          "type": "uint256"
        }
      ],
      "stateMutability": "view",
      "type": "function"
    },
    {
      "inputs": [],
      "name": "countWhitelisted",
      "outputs": [
        {
          "internalType": "uint256",
          "name": "",
          "type": "uint256"
        }
      ],
      "stateMutability": "view",
      "type": "function"
    },
    {
      "inputs": [],
      "name": "flipPresaleState",
      "outputs": [],
      "stateMutability": "nonpayable",
      "type": "function"
    },
    {
      "inputs": [],
      "name": "flipPublicSaleState",
      "outputs": [],
      "stateMutability": "nonpayable",
      "type": "function"
    },
    {
      "inputs": [],
      "name": "flipRevealed",
      "outputs": [],
      "stateMutability": "nonpayable",
      "type": "function"
    },
    {
      "inputs": [
        {
          "internalType": "uint256",
          "name": "tokenId",
          "type": "uint256"
        }
      ],
      "name": "getApproved",
      "outputs": [
        {
          "internalType": "address",
          "name": "",
          "type": "address"
        }
      ],
      "stateMutability": "view",
      "type": "function"
    },
    {
      "inputs": [],
      "name": "getWhiteListedAddresses",
      "outputs": [
        {
          "internalType": "address[]",
          "name": "",
          "type": "address[]"
        }
      ],
      "stateMutability": "view",
      "type": "function"
    },
    {
      "inputs": [
        {
          "internalType": "address",
          "name": "owner",
          "type": "address"
        },
        {
          "internalType": "address",
          "name": "operator",
          "type": "address"
        }
      ],
      "name": "isApprovedForAll",
      "outputs": [
        {
          "internalType": "bool",
          "name": "",
          "type": "bool"
        }
      ],
      "stateMutability": "view",
      "type": "function"
    },
    {
      "inputs": [],
      "name": "isPresaleActive",
      "outputs": [
        {
          "internalType": "bool",
          "name": "",
          "type": "bool"
        }
      ],
      "stateMutability": "view",
      "type": "function"
    },
    {
      "inputs": [],
      "name": "isPublicSaleActive",
      "outputs": [
        {
          "internalType": "bool",
          "name": "",
          "type": "bool"
        }
      ],
      "stateMutability": "view",
      "type": "function"
    },
    {
      "inputs": [
        {
          "internalType": "address",
          "name": "addr",
          "type": "address"
        }
      ],
      "name": "isWhitelisted",
      "outputs": [
        {
          "internalType": "bool",
          "name": "isWhiteListed",
          "type": "bool"
        }
      ],
      "stateMutability": "view",
      "type": "function"
    },
    {
      "inputs": [],
      "name": "name",
      "outputs": [
        {
          "internalType": "string",
          "name": "",
          "type": "string"
        }
      ],
      "stateMutability": "view",
      "type": "function"
    },
    {
      "inputs": [],
      "name": "owner",
      "outputs": [
        {
          "internalType": "address",
          "name": "",
          "type": "address"
        }
      ],
      "stateMutability": "view",
      "type": "function"
    },
    {
      "inputs": [
        {
          "internalType": "uint256",
          "name": "tokenId",
          "type": "uint256"
        }
      ],
      "name": "ownerOf",
      "outputs": [
        {
          "internalType": "address",
          "name": "",
          "type": "address"
        }
      ],
      "stateMutability": "view",
      "type": "function"
    },
    {
      "inputs": [
        {
          "internalType": "address",
          "name": "dest",
          "type": "address"
        }
      ],
      "name": "payments",
      "outputs": [
        {
          "internalType": "uint256",
          "name": "",
          "type": "uint256"
        }
      ],
      "stateMutability": "view",
      "type": "function"
    },
    {
      "inputs": [
        {
          "internalType": "uint256",
          "name": "numberOfTokens",
          "type": "uint256"
        }
      ],
      "name": "presaleMint",
      "outputs": [],
      "stateMutability": "payable",
      "type": "function"
    },
    {
      "inputs": [
        {
          "internalType": "uint256",
          "name": "numberOfTokens",
          "type": "uint256"
        }
      ],
      "name": "publicMint",
      "outputs": [],
      "stateMutability": "payable",
      "type": "function"
    },
    {
      "inputs": [],
      "name": "renounceOwnership",
      "outputs": [],
      "stateMutability": "nonpayable",
      "type": "function"
    },
    {
      "inputs": [
        {
          "internalType": "uint256",
          "name": "_tokensToReserve",
          "type": "uint256"
        }
      ],
      "name": "reserveToken",
      "outputs": [],
      "stateMutability": "nonpayable",
      "type": "function"
    },
    {
      "inputs": [],
      "name": "revealed",
      "outputs": [
        {
          "internalType": "bool",
          "name": "",
          "type": "bool"
        }
      ],
      "stateMutability": "view",
      "type": "function"
    },
    {
      "inputs": [
        {
          "internalType": "address",
          "name": "from",
          "type": "address"
        },
        {
          "internalType": "address",
          "name": "to",
          "type": "address"
        },
        {
          "internalType": "uint256",
          "name": "tokenId",
          "type": "uint256"
        }
      ],
      "name": "safeTransferFrom",
      "outputs": [],
      "stateMutability": "nonpayable",
      "type": "function"
    },
    {
      "inputs": [
        {
          "internalType": "address",
          "name": "from",
          "type": "address"
        },
        {
          "internalType": "address",
          "name": "to",
          "type": "address"
        },
        {
          "internalType": "uint256",
          "name": "tokenId",
          "type": "uint256"
        },
        {
          "internalType": "bytes",
          "name": "_data",
          "type": "bytes"
        }
      ],
      "name": "safeTransferFrom",
      "outputs": [],
      "stateMutability": "nonpayable",
      "type": "function"
    },
    {
      "inputs": [
        {
          "internalType": "address",
          "name": "operator",
          "type": "address"
        },
        {
          "internalType": "bool",
          "name": "approved",
          "type": "bool"
        }
      ],
      "name": "setApprovalForAll",
      "outputs": [],
      "stateMutability": "nonpayable",
      "type": "function"
    },
    {
      "inputs": [
        {
          "internalType": "string",
          "name": "_baseTokenURI",
          "type": "string"
        }
      ],
      "name": "setBaseTokenURI",
      "outputs": [],
      "stateMutability": "nonpayable",
      "type": "function"
    },
    {
      "inputs": [
        {
          "internalType": "string",
          "name": "_notRevealedURI",
          "type": "string"
        }
      ],
      "name": "setNotRevealedTokenURI",
      "outputs": [],
      "stateMutability": "nonpayable",
      "type": "function"
    },
    {
      "inputs": [
        {
          "internalType": "string",
          "name": "_provenanceHash",
          "type": "string"
        }
      ],
      "name": "setProvenanceHash",
      "outputs": [],
      "stateMutability": "nonpayable",
      "type": "function"
    },
    {
      "inputs": [
        {
          "internalType": "uint256",
          "name": "_revealTimestampInSec",
          "type": "uint256"
        }
      ],
      "name": "setRevealTimestamp",
      "outputs": [],
      "stateMutability": "nonpayable",
      "type": "function"
    },
    {
      "inputs": [
        {
          "internalType": "bytes4",
          "name": "interfaceId",
          "type": "bytes4"
        }
      ],
      "name": "supportsInterface",
      "outputs": [
        {
          "internalType": "bool",
          "name": "",
          "type": "bool"
        }
      ],
      "stateMutability": "view",
      "type": "function"
    },
    {
      "inputs": [],
      "name": "symbol",
      "outputs": [
        {
          "internalType": "string",
          "name": "",
          "type": "string"
        }
      ],
      "stateMutability": "view",
      "type": "function"
    },
    {
      "inputs": [
        {
          "internalType": "uint256",
          "name": "index",
          "type": "uint256"
        }
      ],
      "name": "tokenByIndex",
      "outputs": [
        {
          "internalType": "uint256",
          "name": "",
          "type": "uint256"
        }
      ],
      "stateMutability": "view",
      "type": "function"
    },
    {
      "inputs": [
        {
          "internalType": "address",
          "name": "owner",
          "type": "address"
        },
        {
          "internalType": "uint256",
          "name": "index",
          "type": "uint256"
        }
      ],
      "name": "tokenOfOwnerByIndex",
      "outputs": [
        {
          "internalType": "uint256",
          "name": "",
          "type": "uint256"
        }
      ],
      "stateMutability": "view",
      "type": "function"
    },
    {
      "inputs": [
        {
          "internalType": "uint256",
          "name": "tokenId",
          "type": "uint256"
        }
      ],
      "name": "tokenURI",
      "outputs": [
        {
          "internalType": "string",
          "name": "",
          "type": "string"
        }
      ],
      "stateMutability": "view",
      "type": "function"
    },
    {
      "inputs": [],
      "name": "totalSupply",
      "outputs": [
        {
          "internalType": "uint256",
          "name": "",
          "type": "uint256"
        }
      ],
      "stateMutability": "view",
      "type": "function"
    },
    {
      "inputs": [
        {
          "internalType": "address",
          "name": "from",
          "type": "address"
        },
        {
          "internalType": "address",
          "name": "to",
          "type": "address"
        },
        {
          "internalType": "uint256",
          "name": "tokenId",
          "type": "uint256"
        }
      ],
      "name": "transferFrom",
      "outputs": [],
      "stateMutability": "nonpayable",
      "type": "function"
    },
    {
      "inputs": [
        {
          "internalType": "address",
          "name": "newOwner",
          "type": "address"
        }
      ],
      "name": "transferOwnership",
      "outputs": [],
      "stateMutability": "nonpayable",
      "type": "function"
    },
    {
      "inputs": [
        {
          "internalType": "address",
          "name": "",
          "type": "address"
        }
      ],
      "name": "whitelist",
      "outputs": [
        {
          "internalType": "address",
          "name": "addr",
          "type": "address"
        },
        {
          "internalType": "uint256",
          "name": "hasMinted",
          "type": "uint256"
        }
      ],
      "stateMutability": "view",
      "type": "function"
    },
    {
      "inputs": [
        {
          "internalType": "uint256",
          "name": "",
          "type": "uint256"
        }
      ],
      "name": "whitelistAddr",
      "outputs": [
        {
          "internalType": "address",
          "name": "",
          "type": "address"
        }
      ],
      "stateMutability": "view",
      "type": "function"
    },
    {
      "inputs": [
        {
          "internalType": "address payable",
          "name": "payee",
          "type": "address"
        }
      ],
      "name": "withdrawPayments",
      "outputs": [],
      "stateMutability": "nonpayable",
      "type": "function"
    }
  ],
  "bytecode": "0x60a06040526000601060006101000a81548160ff0219169083151502179055506000601060016101000a81548160ff0219169083151502179055506000601060026101000a81548160ff0219169083151502179055503480156200006257600080fd5b5060405162006b8638038062006b86833981810160405281019062000088919062000365565b82828160009080519060200190620000a29291906200021e565b508060019080519060200190620000bb9291906200021e565b505050604051620000cc90620002af565b604051809103906000f080158015620000e9573d6000803e3d6000fd5b5073ffffffffffffffffffffffffffffffffffffffff1660808173ffffffffffffffffffffffffffffffffffffffff1660601b8152505062000140620001346200015060201b60201c565b6200015860201b60201c565b80600b8190555050505062000542565b600033905090565b6000600a60009054906101000a900473ffffffffffffffffffffffffffffffffffffffff16905081600a60006101000a81548173ffffffffffffffffffffffffffffffffffffffff021916908373ffffffffffffffffffffffffffffffffffffffff1602179055508173ffffffffffffffffffffffffffffffffffffffff168173ffffffffffffffffffffffffffffffffffffffff167f8be0079c531659141344cd1fd0a4f28419497f9722a3daafe3b4186f6b6457e060405160405180910390a35050565b8280546200022c9062000494565b90600052602060002090601f0160209004810192826200025057600085556200029c565b82601f106200026b57805160ff19168380011785556200029c565b828001600101855582156200029c579182015b828111156200029b5782518255916020019190600101906200027e565b5b509050620002ab9190620002bd565b5090565b610ccd8062005eb983390190565b5b80821115620002d8576000816000905550600101620002be565b5090565b6000620002f3620002ed8462000421565b620003ed565b9050828152602081018484840111156200030c57600080fd5b620003198482856200045e565b509392505050565b600082601f8301126200033357600080fd5b815162000345848260208601620002dc565b91505092915050565b6000815190506200035f8162000528565b92915050565b6000806000606084860312156200037b57600080fd5b600084015167ffffffffffffffff8111156200039657600080fd5b620003a48682870162000321565b935050602084015167ffffffffffffffff811115620003c257600080fd5b620003d08682870162000321565b9250506040620003e3868287016200034e565b9150509250925092565b6000604051905081810181811067ffffffffffffffff82111715620004175762000416620004f9565b5b8060405250919050565b600067ffffffffffffffff8211156200043f576200043e620004f9565b5b601f19601f8301169050602081019050919050565b6000819050919050565b60005b838110156200047e57808201518184015260208101905062000461565b838111156200048e576000848401525b50505050565b60006002820490506001821680620004ad57607f821691505b60208210811415620004c457620004c3620004ca565b5b50919050565b7f4e487b7100000000000000000000000000000000000000000000000000000000600052602260045260246000fd5b7f4e487b7100000000000000000000000000000000000000000000000000000000600052604160045260246000fd5b620005338162000454565b81146200053f57600080fd5b50565b60805160601c61595862000561600039600061234601526159586000f3fe6080604052600436106102c95760003560e01c806351830227116101755780639b19251a116100dc578063c9b298f111610095578063e2ec6ec31161006f578063e2ec6ec314610add578063e985e9c514610b06578063f2fde38b14610b43578063f81227d414610b6c576102c9565b8063c9b298f114610a59578063df3fdf0014610a75578063e2982c2114610aa0576102c9565b80639b19251a1461094a578063a10866ef14610988578063a22cb4651461099f578063b88d4fde146109c8578063c002d23d146109f1578063c87b56dd14610a1c576102c9565b8063715018a61161012e578063715018a61461084e5780637b5e26af146108655780637ea6c88d1461088e57806385c6b79e146108b75780638da5cb5b146108f457806395d89b411461091f576102c9565b8063518302271461072857806360d938dc146107535780636352211e1461077e5780636373a6b1146107bb5780636f458133146107e657806370a0823114610811576102c9565b806326d7fd861161023457806332cb6b0c116101ed5780633b2c3fb6116101c75780633b2c3fb61461068057806341eeb07f1461069757806342842e0e146106c25780634f6ccce7146106eb576102c9565b806332cb6b0c146105ed578063336d8fa6146106185780633af32abf14610643576102c9565b806326d7fd86146104ec5780632d9c73d9146105175780632db11544146105425780632f745c591461055e57806330176e131461059b57806331b3eb94146105c4576102c9565b806310c0e1581161028657806310c0e158146103ee57806316ffecb71461041757806318160ddd1461044257806318e20a381461046d5780631e84c4131461049857806323b872dd146104c3576102c9565b8063018a2c37146102ce57806301ffc9a7146102f757806306fdde0314610334578063081812fc1461035f578063095ea7b31461039c57806310969523146103c5575b600080fd5b3480156102da57600080fd5b506102f560048036038101906102f0919061422c565b610b83565b005b34801561030357600080fd5b5061031e60048036038101906103199190614199565b610c4d565b60405161032b9190615040565b60405180910390f35b34801561034057600080fd5b50610349610c5f565b604051610356919061505b565b60405180910390f35b34801561036b57600080fd5b506103866004803603810190610381919061422c565b610cf1565b6040516103939190614ea1565b60405180910390f35b3480156103a857600080fd5b506103c360048036038101906103be919061411c565b610d76565b005b3480156103d157600080fd5b506103ec60048036038101906103e791906141eb565b610e8e565b005b3480156103fa57600080fd5b506104156004803603810190610410919061422c565b610f5d565b005b34801561042357600080fd5b5061042c61101d565b60405161043991906153d8565b60405180910390f35b34801561044e57600080fd5b50610457611022565b60405161046491906153bd565b60405180910390f35b34801561047957600080fd5b5061048261102f565b60405161048f91906153bd565b60405180910390f35b3480156104a457600080fd5b506104ad611035565b6040516104ba9190615040565b60405180910390f35b3480156104cf57600080fd5b506104ea60048036038101906104e59190614016565b611048565b005b3480156104f857600080fd5b506105016110a8565b60405161050e91906153d8565b60405180910390f35b34801561052357600080fd5b5061052c6110ad565b604051610539919061501e565b60405180910390f35b61055c6004803603810190610557919061422c565b61113b565b005b34801561056a57600080fd5b506105856004803603810190610580919061411c565b6112ee565b60405161059291906153bd565b60405180910390f35b3480156105a757600080fd5b506105c260048036038101906105bd91906141eb565b611393565b005b3480156105d057600080fd5b506105eb60048036038101906105e69190613fb1565b611465565b005b3480156105f957600080fd5b5061060261155b565b60405161060f91906153bd565b60405180910390f35b34801561062457600080fd5b5061062d611561565b60405161063a919061505b565b60405180910390f35b34801561064f57600080fd5b5061066a60048036038101906106659190613f88565b6115ef565b6040516106779190615040565b60405180910390f35b34801561068c57600080fd5b50610695611689565b005b3480156106a357600080fd5b506106ac611731565b6040516106b991906153bd565b60405180910390f35b3480156106ce57600080fd5b506106e960048036038101906106e49190614016565b61173e565b005b3480156106f757600080fd5b50610712600480360381019061070d919061422c565b61175e565b60405161071f91906153bd565b60405180910390f35b34801561073457600080fd5b5061073d6117f5565b60405161074a9190615040565b60405180910390f35b34801561075f57600080fd5b50610768611808565b6040516107759190615040565b60405180910390f35b34801561078a57600080fd5b506107a560048036038101906107a0919061422c565b61181b565b6040516107b29190614ea1565b60405180910390f35b3480156107c757600080fd5b506107d06118cd565b6040516107dd919061505b565b60405180910390f35b3480156107f257600080fd5b506107fb61195b565b604051610808919061505b565b60405180910390f35b34801561081d57600080fd5b5061083860048036038101906108339190613f88565b6119e9565b60405161084591906153bd565b60405180910390f35b34801561085a57600080fd5b50610863611aa1565b005b34801561087157600080fd5b5061088c60048036038101906108879190613f88565b611b29565b005b34801561089a57600080fd5b506108b560048036038101906108b091906141eb565b611bcb565b005b3480156108c357600080fd5b506108de60048036038101906108d9919061422c565b611c61565b6040516108eb9190614ea1565b60405180910390f35b34801561090057600080fd5b50610909611ca0565b6040516109169190614ea1565b60405180910390f35b34801561092b57600080fd5b50610934611cca565b604051610941919061505b565b60405180910390f35b34801561095657600080fd5b50610971600480360381019061096c9190613f88565b611d5c565b60405161097f929190614ff5565b60405180910390f35b34801561099457600080fd5b5061099d611da0565b005b3480156109ab57600080fd5b506109c660048036038101906109c191906140e0565b611e91565b005b3480156109d457600080fd5b506109ef60048036038101906109ea9190614065565b611ea7565b005b3480156109fd57600080fd5b50610a06611f09565b604051610a1391906153bd565b60405180910390f35b348015610a2857600080fd5b50610a436004803603810190610a3e919061422c565b611f14565b604051610a50919061505b565b60405180910390f35b610a736004803603810190610a6e919061422c565b612036565b005b348015610a8157600080fd5b50610a8a612309565b604051610a97919061505b565b60405180910390f35b348015610aac57600080fd5b50610ac76004803603810190610ac29190613f88565b612342565b604051610ad491906153bd565b60405180910390f35b348015610ae957600080fd5b50610b046004803603810190610aff9190614158565b6123f4565b005b348015610b1257600080fd5b50610b2d6004803603810190610b289190613fda565b612748565b604051610b3a9190615040565b60405180910390f35b348015610b4f57600080fd5b50610b6a6004803603810190610b659190613f88565b6127dc565b005b348015610b7857600080fd5b50610b816128d4565b005b610b8b6129c5565b73ffffffffffffffffffffffffffffffffffffffff16610ba9611ca0565b73ffffffffffffffffffffffffffffffffffffffff1614610bff576040517f08c379a0000000000000000000000000000000000000000000000000000000008152600401610bf6906152dd565b60405180910390fd5b7f78fa28fded65b623d079e3d7ddcc0992a573a72ad6051ce04ea38b04975ca2643382604051610c30929190614ff5565b60405180910390a18042610c44919061554c565b600d8190555050565b6000610c58826129cd565b9050919050565b606060008054610c6e90615736565b80601f0160208091040260200160405190810160405280929190818152602001828054610c9a90615736565b8015610ce75780601f10610cbc57610100808354040283529160200191610ce7565b820191906000526020600020905b815481529060010190602001808311610cca57829003601f168201915b5050505050905090565b6000610cfc82612a47565b610d3b576040517f08c379a0000000000000000000000000000000000000000000000000000000008152600401610d32906152bd565b60405180910390fd5b6004600083815260200190815260200160002060009054906101000a900473ffffffffffffffffffffffffffffffffffffffff169050919050565b6000610d818261181b565b90508073ffffffffffffffffffffffffffffffffffffffff168373ffffffffffffffffffffffffffffffffffffffff161415610df2576040517f08c379a0000000000000000000000000000000000000000000000000000000008152600401610de99061533d565b60405180910390fd5b8073ffffffffffffffffffffffffffffffffffffffff16610e116129c5565b73ffffffffffffffffffffffffffffffffffffffff161480610e405750610e3f81610e3a6129c5565b612748565b5b610e7f576040517f08c379a0000000000000000000000000000000000000000000000000000000008152600401610e76906151bd565b60405180910390fd5b610e898383612ab3565b505050565b610e966129c5565b73ffffffffffffffffffffffffffffffffffffffff16610eb4611ca0565b73ffffffffffffffffffffffffffffffffffffffff1614610f0a576040517f08c379a0000000000000000000000000000000000000000000000000000000008152600401610f01906152dd565b60405180910390fd5b7fd0802c3c74ed914544449c08ef5edb3054d739fbf8dea1720419d7b4cb8bc3f13382604051610f3b929190614f08565b60405180910390a180600c9080519060200190610f59929190613cec565b5050565b610f656129c5565b73ffffffffffffffffffffffffffffffffffffffff16610f83611ca0565b73ffffffffffffffffffffffffffffffffffffffff1614610fd9576040517f08c379a0000000000000000000000000000000000000000000000000000000008152600401610fd0906152dd565b60405180910390fd5b6000610fe3611022565b905060005b8281101561101857611005338284611000919061554c565b612b6c565b808061101090615768565b915050610fe8565b505050565b601481565b6000600880549050905090565b600d5481565b601060009054906101000a900460ff1681565b6110596110536129c5565b82612b8a565b611098576040517f08c379a000000000000000000000000000000000000000000000000000000000815260040161108f9061537d565b60405180910390fd5b6110a3838383612c68565b505050565b601e81565b6060601280548060200260200160405190810160405280929190818152602001828054801561113157602002820191906000526020600020905b8160009054906101000a900473ffffffffffffffffffffffffffffffffffffffff1673ffffffffffffffffffffffffffffffffffffffff16815260200190600101908083116110e7575b5050505050905090565b601060009054906101000a900460ff1661118a576040517f08c379a00000000000000000000000000000000000000000000000000000000081526004016111819061507d565b60405180910390fd5b600b546111a782611199611022565b612ec490919063ffffffff16565b11156111e8576040517f08c379a00000000000000000000000000000000000000000000000000000000081526004016111df9061525d565b60405180910390fd5b6112028166470de4df820000612eda90919063ffffffff16565b341015611244576040517f08c379a000000000000000000000000000000000000000000000000000000000815260040161123b9061517d565b60405180910390fd5b6000811180156112585750601460ff168111155b611297576040517f08c379a000000000000000000000000000000000000000000000000000000000815260040161128e9061535d565b60405180910390fd5b60005b818110156112ea5760006112ac611022565b9050600b546112b9611022565b10156112d6576112d5336001836112d0919061554c565b612b6c565b5b5080806112e290615768565b91505061129a565b5050565b60006112f9836119e9565b821061133a576040517f08c379a00000000000000000000000000000000000000000000000000000000081526004016113319061509d565b60405180910390fd5b600660008473ffffffffffffffffffffffffffffffffffffffff1673ffffffffffffffffffffffffffffffffffffffff168152602001908152602001600020600083815260200190815260200160002054905092915050565b61139b6129c5565b73ffffffffffffffffffffffffffffffffffffffff166113b9611ca0565b73ffffffffffffffffffffffffffffffffffffffff161461140f576040517f08c379a0000000000000000000000000000000000000000000000000000000008152600401611406906152dd565b60405180910390fd5b7f92bf6a7b8937c17e6781a68d61f9fe6a5ce08604b96ca2206f311049a3a295ea33600f8360405161144393929190614f38565b60405180910390a180600f9080519060200190611461929190613cec565b5050565b61146d6129c5565b73ffffffffffffffffffffffffffffffffffffffff1661148b611ca0565b73ffffffffffffffffffffffffffffffffffffffff16146114e1576040517f08c379a00000000000000000000000000000000000000000000000000000000081526004016114d8906152dd565b60405180910390fd5b60008173ffffffffffffffffffffffffffffffffffffffff164760405161150790614e8c565b60006040518083038185875af1925050503d8060008114611544576040519150601f19603f3d011682016040523d82523d6000602084013e611549565b606091505b505090508061155757600080fd5b5050565b600b5481565b600e805461156e90615736565b80601f016020809104026020016040519081016040528092919081815260200182805461159a90615736565b80156115e75780601f106115bc576101008083540402835291602001916115e7565b820191906000526020600020905b8154815290600101906020018083116115ca57829003601f168201915b505050505081565b60008173ffffffffffffffffffffffffffffffffffffffff16601160008473ffffffffffffffffffffffffffffffffffffffff1673ffffffffffffffffffffffffffffffffffffffff16815260200190815260200160002060000160009054906101000a900473ffffffffffffffffffffffffffffffffffffffff1673ffffffffffffffffffffffffffffffffffffffff16149050919050565b6116916129c5565b73ffffffffffffffffffffffffffffffffffffffff166116af611ca0565b73ffffffffffffffffffffffffffffffffffffffff1614611705576040517f08c379a00000000000000000000000000000000000000000000000000000000081526004016116fc906152dd565b60405180910390fd5b601060029054906101000a900460ff1615601060026101000a81548160ff021916908315150217905550565b6000601280549050905090565b61175983838360405180602001604052806000815250611ea7565b505050565b6000611768611022565b82106117a9576040517f08c379a00000000000000000000000000000000000000000000000000000000081526004016117a09061539d565b60405180910390fd5b600882815481106117e3577f4e487b7100000000000000000000000000000000000000000000000000000000600052603260045260246000fd5b90600052602060002001549050919050565b601060029054906101000a900460ff1681565b601060019054906101000a900460ff1681565b6000806002600084815260200190815260200160002060009054906101000a900473ffffffffffffffffffffffffffffffffffffffff169050600073ffffffffffffffffffffffffffffffffffffffff168173ffffffffffffffffffffffffffffffffffffffff1614156118c4576040517f08c379a00000000000000000000000000000000000000000000000000000000081526004016118bb9061521d565b60405180910390fd5b80915050919050565b600c80546118da90615736565b80601f016020809104026020016040519081016040528092919081815260200182805461190690615736565b80156119535780601f1061192857610100808354040283529160200191611953565b820191906000526020600020905b81548152906001019060200180831161193657829003601f168201915b505050505081565b600f805461196890615736565b80601f016020809104026020016040519081016040528092919081815260200182805461199490615736565b80156119e15780601f106119b6576101008083540402835291602001916119e1565b820191906000526020600020905b8154815290600101906020018083116119c457829003601f168201915b505050505081565b60008073ffffffffffffffffffffffffffffffffffffffff168273ffffffffffffffffffffffffffffffffffffffff161415611a5a576040517f08c379a0000000000000000000000000000000000000000000000000000000008152600401611a51906151fd565b60405180910390fd5b600360008373ffffffffffffffffffffffffffffffffffffffff1673ffffffffffffffffffffffffffffffffffffffff168152602001908152602001600020549050919050565b611aa96129c5565b73ffffffffffffffffffffffffffffffffffffffff16611ac7611ca0565b73ffffffffffffffffffffffffffffffffffffffff1614611b1d576040517f08c379a0000000000000000000000000000000000000000000000000000000008152600401611b14906152dd565b60405180910390fd5b611b276000612ef0565b565b611b316129c5565b73ffffffffffffffffffffffffffffffffffffffff16611b4f611ca0565b73ffffffffffffffffffffffffffffffffffffffff1614611ba5576040517f08c379a0000000000000000000000000000000000000000000000000000000008152600401611b9c906152dd565b60405180910390fd5b6000611baf611022565b9050611bc782600183611bc2919061554c565b612b6c565b5050565b611bd36129c5565b73ffffffffffffffffffffffffffffffffffffffff16611bf1611ca0565b73ffffffffffffffffffffffffffffffffffffffff1614611c47576040517f08c379a0000000000000000000000000000000000000000000000000000000008152600401611c3e906152dd565b60405180910390fd5b80600e9080519060200190611c5d929190613cec565b5050565b60128181548110611c7157600080fd5b906000526020600020016000915054906101000a900473ffffffffffffffffffffffffffffffffffffffff1681565b6000600a60009054906101000a900473ffffffffffffffffffffffffffffffffffffffff16905090565b606060018054611cd990615736565b80601f0160208091040260200160405190810160405280929190818152602001828054611d0590615736565b8015611d525780601f10611d2757610100808354040283529160200191611d52565b820191906000526020600020905b815481529060010190602001808311611d3557829003601f168201915b5050505050905090565b60116020528060005260406000206000915090508060000160009054906101000a900473ffffffffffffffffffffffffffffffffffffffff16908060010154905082565b611da86129c5565b73ffffffffffffffffffffffffffffffffffffffff16611dc6611ca0565b73ffffffffffffffffffffffffffffffffffffffff1614611e1c576040517f08c379a0000000000000000000000000000000000000000000000000000000008152600401611e13906152dd565b60405180910390fd5b7f3bbc4dea8861e902000354aa6e3dd2f206a1e352a84328120a1781f96ff25ae933601060009054906101000a900460ff1615604051611e5d929190614fb9565b60405180910390a1601060009054906101000a900460ff1615601060006101000a81548160ff021916908315150217905550565b611ea3611e9c6129c5565b8383612fb6565b5050565b611eb8611eb26129c5565b83612b8a565b611ef7576040517f08c379a0000000000000000000000000000000000000000000000000000000008152600401611eee9061537d565b60405180910390fd5b611f0384848484613123565b50505050565b66470de4df82000081565b6060611f1f82612a47565b611f2857600080fd5b601060029054906101000a900460ff16611fa357600f611f478361317f565b6040518060400160405280600581526020017f2e6a736f6e000000000000000000000000000000000000000000000000000000815250604051602001611f8f93929190614e5b565b60405160208183030381529060405261202f565b600e8054611fb090615736565b80601f0160208091040260200160405190810160405280929190818152602001828054611fdc90615736565b80156120295780601f10611ffe57610100808354040283529160200191612029565b820191906000526020600020905b81548152906001019060200180831161200c57829003601f168201915b50505050505b9050919050565b601060019054906101000a900460ff16612085576040517f08c379a000000000000000000000000000000000000000000000000000000000815260040161207c906151dd565b60405180910390fd5b61208e336115ef565b6120cd576040517f08c379a00000000000000000000000000000000000000000000000000000000081526004016120c49061515d565b60405180910390fd5b6120e78166470de4df820000612eda90919063ffffffff16565b341015612129576040517f08c379a00000000000000000000000000000000000000000000000000000000081526004016121209061517d565b60405180910390fd5b601e60ff1661218382601160003373ffffffffffffffffffffffffffffffffffffffff1673ffffffffffffffffffffffffffffffffffffffff16815260200190815260200160002060010154612ec490919063ffffffff16565b11156121c4576040517f08c379a00000000000000000000000000000000000000000000000000000000081526004016121bb9061529d565b60405180910390fd5b6000811180156121d85750601e60ff168111155b612217576040517f08c379a000000000000000000000000000000000000000000000000000000000815260040161220e9061523d565b60405180910390fd5b61226c81601160003373ffffffffffffffffffffffffffffffffffffffff1673ffffffffffffffffffffffffffffffffffffffff16815260200190815260200160002060010154612ec490919063ffffffff16565b601160003373ffffffffffffffffffffffffffffffffffffffff1673ffffffffffffffffffffffffffffffffffffffff1681526020019081526020016000206001018190555060005b818110156123055760006122c7611022565b9050600b546122d4611022565b10156122f1576122f0336001836122eb919061554c565b612b6c565b5b5080806122fd90615768565b9150506122b5565b5050565b6040518060400160405280600581526020017f2e6a736f6e00000000000000000000000000000000000000000000000000000081525081565b60007f000000000000000000000000000000000000000000000000000000000000000073ffffffffffffffffffffffffffffffffffffffff1663e3a9db1a836040518263ffffffff1660e01b815260040161239d9190614ea1565b60206040518083038186803b1580156123b557600080fd5b505afa1580156123c9573d6000803e3d6000fd5b505050506040513d601f19601f820116820180604052508101906123ed9190614255565b9050919050565b6123fc6129c5565b73ffffffffffffffffffffffffffffffffffffffff1661241a611ca0565b73ffffffffffffffffffffffffffffffffffffffff1614612470576040517f08c379a0000000000000000000000000000000000000000000000000000000008152600401612467906152dd565b60405180910390fd5b60005b8151811015612744576124c58282815181106124b8577f4e487b7100000000000000000000000000000000000000000000000000000000600052603260045260246000fd5b60200260200101516115ef565b15612505576040517f08c379a00000000000000000000000000000000000000000000000000000000081526004016124fc9061531d565b60405180910390fd5b81818151811061253e577f4e487b7100000000000000000000000000000000000000000000000000000000600052603260045260246000fd5b602002602001015160116000848481518110612583577f4e487b7100000000000000000000000000000000000000000000000000000000600052603260045260246000fd5b602002602001015173ffffffffffffffffffffffffffffffffffffffff1673ffffffffffffffffffffffffffffffffffffffff16815260200190815260200160002060000160006101000a81548173ffffffffffffffffffffffffffffffffffffffff021916908373ffffffffffffffffffffffffffffffffffffffff160217905550600060116000848481518110612645577f4e487b7100000000000000000000000000000000000000000000000000000000600052603260045260246000fd5b602002602001015173ffffffffffffffffffffffffffffffffffffffff1673ffffffffffffffffffffffffffffffffffffffff1681526020019081526020016000206001018190555060128282815181106126c9577f4e487b7100000000000000000000000000000000000000000000000000000000600052603260045260246000fd5b60200260200101519080600181540180825580915050600190039060005260206000200160009091909190916101000a81548173ffffffffffffffffffffffffffffffffffffffff021916908373ffffffffffffffffffffffffffffffffffffffff160217905550808061273c90615768565b915050612473565b5050565b6000600560008473ffffffffffffffffffffffffffffffffffffffff1673ffffffffffffffffffffffffffffffffffffffff16815260200190815260200160002060008373ffffffffffffffffffffffffffffffffffffffff1673ffffffffffffffffffffffffffffffffffffffff16815260200190815260200160002060009054906101000a900460ff16905092915050565b6127e46129c5565b73ffffffffffffffffffffffffffffffffffffffff16612802611ca0565b73ffffffffffffffffffffffffffffffffffffffff1614612858576040517f08c379a000000000000000000000000000000000000000000000000000000000815260040161284f906152dd565b60405180910390fd5b600073ffffffffffffffffffffffffffffffffffffffff168173ffffffffffffffffffffffffffffffffffffffff1614156128c8576040517f08c379a00000000000000000000000000000000000000000000000000000000081526004016128bf906150dd565b60405180910390fd5b6128d181612ef0565b50565b6128dc6129c5565b73ffffffffffffffffffffffffffffffffffffffff166128fa611ca0565b73ffffffffffffffffffffffffffffffffffffffff1614612950576040517f08c379a0000000000000000000000000000000000000000000000000000000008152600401612947906152dd565b60405180910390fd5b7f3bbc4dea8861e902000354aa6e3dd2f206a1e352a84328120a1781f96ff25ae933601060019054906101000a900460ff1615604051612991929190614f7d565b60405180910390a1601060019054906101000a900460ff1615601060016101000a81548160ff021916908315150217905550565b600033905090565b60007f780e9d63000000000000000000000000000000000000000000000000000000007bffffffffffffffffffffffffffffffffffffffffffffffffffffffff1916827bffffffffffffffffffffffffffffffffffffffffffffffffffffffff19161480612a405750612a3f8261332c565b5b9050919050565b60008073ffffffffffffffffffffffffffffffffffffffff166002600084815260200190815260200160002060009054906101000a900473ffffffffffffffffffffffffffffffffffffffff1673ffffffffffffffffffffffffffffffffffffffff1614159050919050565b816004600083815260200190815260200160002060006101000a81548173ffffffffffffffffffffffffffffffffffffffff021916908373ffffffffffffffffffffffffffffffffffffffff160217905550808273ffffffffffffffffffffffffffffffffffffffff16612b268361181b565b73ffffffffffffffffffffffffffffffffffffffff167f8c5be1e5ebec7d5bd14f71427d1e84f3dd0314c0f7b2291e5b200ac8c7c3b92560405160405180910390a45050565b612b8682826040518060200160405280600081525061340e565b5050565b6000612b9582612a47565b612bd4576040517f08c379a0000000000000000000000000000000000000000000000000000000008152600401612bcb9061519d565b60405180910390fd5b6000612bdf8361181b565b90508073ffffffffffffffffffffffffffffffffffffffff168473ffffffffffffffffffffffffffffffffffffffff161480612c4e57508373ffffffffffffffffffffffffffffffffffffffff16612c3684610cf1565b73ffffffffffffffffffffffffffffffffffffffff16145b80612c5f5750612c5e8185612748565b5b91505092915050565b8273ffffffffffffffffffffffffffffffffffffffff16612c888261181b565b73ffffffffffffffffffffffffffffffffffffffff1614612cde576040517f08c379a0000000000000000000000000000000000000000000000000000000008152600401612cd5906152fd565b60405180910390fd5b600073ffffffffffffffffffffffffffffffffffffffff168273ffffffffffffffffffffffffffffffffffffffff161415612d4e576040517f08c379a0000000000000000000000000000000000000000000000000000000008152600401612d459061511d565b60405180910390fd5b612d59838383613469565b612d64600082612ab3565b6001600360008573ffffffffffffffffffffffffffffffffffffffff1673ffffffffffffffffffffffffffffffffffffffff1681526020019081526020016000206000828254612db4919061562d565b925050819055506001600360008473ffffffffffffffffffffffffffffffffffffffff1673ffffffffffffffffffffffffffffffffffffffff1681526020019081526020016000206000828254612e0b919061554c565b92505081905550816002600083815260200190815260200160002060006101000a81548173ffffffffffffffffffffffffffffffffffffffff021916908373ffffffffffffffffffffffffffffffffffffffff160217905550808273ffffffffffffffffffffffffffffffffffffffff168473ffffffffffffffffffffffffffffffffffffffff167fddf252ad1be2c89b69c2b068fc378daa952ba7f163c4a11628f55a4df523b3ef60405160405180910390a4505050565b60008183612ed2919061554c565b905092915050565b60008183612ee891906155d3565b905092915050565b6000600a60009054906101000a900473ffffffffffffffffffffffffffffffffffffffff16905081600a60006101000a81548173ffffffffffffffffffffffffffffffffffffffff021916908373ffffffffffffffffffffffffffffffffffffffff1602179055508173ffffffffffffffffffffffffffffffffffffffff168173ffffffffffffffffffffffffffffffffffffffff167f8be0079c531659141344cd1fd0a4f28419497f9722a3daafe3b4186f6b6457e060405160405180910390a35050565b8173ffffffffffffffffffffffffffffffffffffffff168373ffffffffffffffffffffffffffffffffffffffff161415613025576040517f08c379a000000000000000000000000000000000000000000000000000000000815260040161301c9061513d565b60405180910390fd5b80600560008573ffffffffffffffffffffffffffffffffffffffff1673ffffffffffffffffffffffffffffffffffffffff16815260200190815260200160002060008473ffffffffffffffffffffffffffffffffffffffff1673ffffffffffffffffffffffffffffffffffffffff16815260200190815260200160002060006101000a81548160ff0219169083151502179055508173ffffffffffffffffffffffffffffffffffffffff168373ffffffffffffffffffffffffffffffffffffffff167f17307eab39ab6107e8899845ad3d59bd9653f200f220920489ca2b5937696c31836040516131169190615040565b60405180910390a3505050565b61312e848484612c68565b61313a84848484613479565b613179576040517f08c379a0000000000000000000000000000000000000000000000000000000008152600401613170906150bd565b60405180910390fd5b50505050565b606060008214156131c7576040518060400160405280600181526020017f30000000000000000000000000000000000000000000000000000000000000008152509050613327565b600082905060005b600082146131f95780806131e290615768565b915050600a826131f291906155a2565b91506131cf565b60008167ffffffffffffffff81111561323b577f4e487b7100000000000000000000000000000000000000000000000000000000600052604160045260246000fd5b6040519080825280601f01601f19166020018201604052801561326d5781602001600182028036833780820191505090505b5090505b6000851461332057600182613286919061562d565b9150600a8561329591906157b1565b60306132a1919061554c565b60f81b8183815181106132dd577f4e487b7100000000000000000000000000000000000000000000000000000000600052603260045260246000fd5b60200101907effffffffffffffffffffffffffffffffffffffffffffffffffffffffffffff1916908160001a905350600a8561331991906155a2565b9450613271565b8093505050505b919050565b60007f80ac58cd000000000000000000000000000000000000000000000000000000007bffffffffffffffffffffffffffffffffffffffffffffffffffffffff1916827bffffffffffffffffffffffffffffffffffffffffffffffffffffffff191614806133f757507f5b5e139f000000000000000000000000000000000000000000000000000000007bffffffffffffffffffffffffffffffffffffffffffffffffffffffff1916827bffffffffffffffffffffffffffffffffffffffffffffffffffffffff1916145b80613407575061340682613610565b5b9050919050565b613418838361367a565b6134256000848484613479565b613464576040517f08c379a000000000000000000000000000000000000000000000000000000000815260040161345b906150bd565b60405180910390fd5b505050565b613474838383613848565b505050565b600061349a8473ffffffffffffffffffffffffffffffffffffffff1661395c565b15613603578373ffffffffffffffffffffffffffffffffffffffff1663150b7a026134c36129c5565b8786866040518563ffffffff1660e01b81526004016134e59493929190614ebc565b602060405180830381600087803b1580156134ff57600080fd5b505af192505050801561353057506040513d601f19601f8201168201806040525081019061352d91906141c2565b60015b6135b3573d8060008114613560576040519150601f19603f3d011682016040523d82523d6000602084013e613565565b606091505b506000815114156135ab576040517f08c379a00000000000000000000000000000000000000000000000000000000081526004016135a2906150bd565b60405180910390fd5b805181602001fd5b63150b7a0260e01b7bffffffffffffffffffffffffffffffffffffffffffffffffffffffff1916817bffffffffffffffffffffffffffffffffffffffffffffffffffffffff191614915050613608565b600190505b949350505050565b60007f01ffc9a7000000000000000000000000000000000000000000000000000000007bffffffffffffffffffffffffffffffffffffffffffffffffffffffff1916827bffffffffffffffffffffffffffffffffffffffffffffffffffffffff1916149050919050565b600073ffffffffffffffffffffffffffffffffffffffff168273ffffffffffffffffffffffffffffffffffffffff1614156136ea576040517f08c379a00000000000000000000000000000000000000000000000000000000081526004016136e19061527d565b60405180910390fd5b6136f381612a47565b15613733576040517f08c379a000000000000000000000000000000000000000000000000000000000815260040161372a906150fd565b60405180910390fd5b61373f60008383613469565b6001600360008473ffffffffffffffffffffffffffffffffffffffff1673ffffffffffffffffffffffffffffffffffffffff168152602001908152602001600020600082825461378f919061554c565b92505081905550816002600083815260200190815260200160002060006101000a81548173ffffffffffffffffffffffffffffffffffffffff021916908373ffffffffffffffffffffffffffffffffffffffff160217905550808273ffffffffffffffffffffffffffffffffffffffff16600073ffffffffffffffffffffffffffffffffffffffff167fddf252ad1be2c89b69c2b068fc378daa952ba7f163c4a11628f55a4df523b3ef60405160405180910390a45050565b61385383838361396f565b600073ffffffffffffffffffffffffffffffffffffffff168373ffffffffffffffffffffffffffffffffffffffff1614156138965761389181613974565b6138d5565b8173ffffffffffffffffffffffffffffffffffffffff168373ffffffffffffffffffffffffffffffffffffffff16146138d4576138d383826139bd565b5b5b600073ffffffffffffffffffffffffffffffffffffffff168273ffffffffffffffffffffffffffffffffffffffff1614156139185761391381613b2a565b613957565b8273ffffffffffffffffffffffffffffffffffffffff168273ffffffffffffffffffffffffffffffffffffffff1614613956576139558282613c6d565b5b5b505050565b600080823b905060008111915050919050565b505050565b6008805490506009600083815260200190815260200160002081905550600881908060018154018082558091505060019003906000526020600020016000909190919091505550565b600060016139ca846119e9565b6139d4919061562d565b9050600060076000848152602001908152602001600020549050818114613ab9576000600660008673ffffffffffffffffffffffffffffffffffffffff1673ffffffffffffffffffffffffffffffffffffffff168152602001908152602001600020600084815260200190815260200160002054905080600660008773ffffffffffffffffffffffffffffffffffffffff1673ffffffffffffffffffffffffffffffffffffffff168152602001908152602001600020600084815260200190815260200160002081905550816007600083815260200190815260200160002081905550505b6007600084815260200190815260200160002060009055600660008573ffffffffffffffffffffffffffffffffffffffff1673ffffffffffffffffffffffffffffffffffffffff16815260200190815260200160002060008381526020019081526020016000206000905550505050565b60006001600880549050613b3e919061562d565b9050600060096000848152602001908152602001600020549050600060088381548110613b94577f4e487b7100000000000000000000000000000000000000000000000000000000600052603260045260246000fd5b906000526020600020015490508060088381548110613bdc577f4e487b7100000000000000000000000000000000000000000000000000000000600052603260045260246000fd5b906000526020600020018190555081600960008381526020019081526020016000208190555060096000858152602001908152602001600020600090556008805480613c51577f4e487b7100000000000000000000000000000000000000000000000000000000600052603160045260246000fd5b6001900381819060005260206000200160009055905550505050565b6000613c78836119e9565b905081600660008573ffffffffffffffffffffffffffffffffffffffff1673ffffffffffffffffffffffffffffffffffffffff168152602001908152602001600020600083815260200190815260200160002081905550806007600084815260200190815260200160002081905550505050565b828054613cf890615736565b90600052602060002090601f016020900481019282613d1a5760008555613d61565b82601f10613d3357805160ff1916838001178555613d61565b82800160010185558215613d61579182015b82811115613d60578251825591602001919060010190613d45565b5b509050613d6e9190613d72565b5090565b5b80821115613d8b576000816000905550600101613d73565b5090565b6000613da2613d9d84615424565b6153f3565b90508083825260208201905082856020860282011115613dc157600080fd5b60005b85811015613df15781613dd78882613e77565b845260208401935060208301925050600181019050613dc4565b5050509392505050565b6000613e0e613e0984615450565b6153f3565b905082815260208101848484011115613e2657600080fd5b613e318482856156f4565b509392505050565b6000613e4c613e4784615480565b6153f3565b905082815260208101848484011115613e6457600080fd5b613e6f8482856156f4565b509392505050565b600081359050613e86816158af565b92915050565b600081359050613e9b816158c6565b92915050565b600082601f830112613eb257600080fd5b8135613ec2848260208601613d8f565b91505092915050565b600081359050613eda816158dd565b92915050565b600081359050613eef816158f4565b92915050565b600081519050613f04816158f4565b92915050565b600082601f830112613f1b57600080fd5b8135613f2b848260208601613dfb565b91505092915050565b600082601f830112613f4557600080fd5b8135613f55848260208601613e39565b91505092915050565b600081359050613f6d8161590b565b92915050565b600081519050613f828161590b565b92915050565b600060208284031215613f9a57600080fd5b6000613fa884828501613e77565b91505092915050565b600060208284031215613fc357600080fd5b6000613fd184828501613e8c565b91505092915050565b60008060408385031215613fed57600080fd5b6000613ffb85828601613e77565b925050602061400c85828601613e77565b9150509250929050565b60008060006060848603121561402b57600080fd5b600061403986828701613e77565b935050602061404a86828701613e77565b925050604061405b86828701613f5e565b9150509250925092565b6000806000806080858703121561407b57600080fd5b600061408987828801613e77565b945050602061409a87828801613e77565b93505060406140ab87828801613f5e565b925050606085013567ffffffffffffffff8111156140c857600080fd5b6140d487828801613f0a565b91505092959194509250565b600080604083850312156140f357600080fd5b600061410185828601613e77565b925050602061411285828601613ecb565b9150509250929050565b6000806040838503121561412f57600080fd5b600061413d85828601613e77565b925050602061414e85828601613f5e565b9150509250929050565b60006020828403121561416a57600080fd5b600082013567ffffffffffffffff81111561418457600080fd5b61419084828501613ea1565b91505092915050565b6000602082840312156141ab57600080fd5b60006141b984828501613ee0565b91505092915050565b6000602082840312156141d457600080fd5b60006141e284828501613ef5565b91505092915050565b6000602082840312156141fd57600080fd5b600082013567ffffffffffffffff81111561421757600080fd5b61422384828501613f34565b91505092915050565b60006020828403121561423e57600080fd5b600061424c84828501613f5e565b91505092915050565b60006020828403121561426757600080fd5b600061427584828501613f73565b91505092915050565b600061428a8383614296565b60208301905092915050565b61429f81615661565b82525050565b6142ae81615661565b82525050565b60006142bf826154d5565b6142c98185615503565b93506142d4836154b0565b8060005b838110156143055781516142ec888261427e565b97506142f7836154f6565b9250506001810190506142d8565b5085935050505092915050565b61431b81615685565b82525050565b600061432c826154e0565b6143368185615514565b9350614346818560208601615703565b61434f8161589e565b840191505092915050565b6000614365826154eb565b61436f8185615530565b935061437f818560208601615703565b6143888161589e565b840191505092915050565b600061439e826154eb565b6143a88185615541565b93506143b8818560208601615703565b80840191505092915050565b600081546143d181615736565b6143db8186615530565b945060018216600081146143f657600181146144085761443b565b60ff198316865260208601935061443b565b614411856154c0565b60005b8381101561443357815481890152600182019150602081019050614414565b808801955050505b50505092915050565b6000815461445181615736565b61445b8186615541565b945060018216600081146144765760018114614487576144ba565b60ff198316865281860193506144ba565b614490856154c0565b60005b838110156144b257815481890152600182019150602081019050614493565b838801955050505b50505092915050565b60006144d0602283615530565b91507f5075626c69632073616c65206d7573742062652061637469766520746f206d6960008301527f6e740000000000000000000000000000000000000000000000000000000000006020830152604082019050919050565b6000614536602b83615530565b91507f455243373231456e756d657261626c653a206f776e657220696e646578206f7560008301527f74206f6620626f756e64730000000000000000000000000000000000000000006020830152604082019050919050565b600061459c603283615530565b91507f4552433732313a207472616e7366657220746f206e6f6e20455243373231526560008301527f63656976657220696d706c656d656e74657200000000000000000000000000006020830152604082019050919050565b6000614602602683615530565b91507f4f776e61626c653a206e6577206f776e657220697320746865207a65726f206160008301527f64647265737300000000000000000000000000000000000000000000000000006020830152604082019050919050565b6000614668601c83615530565b91507f4552433732313a20746f6b656e20616c7265616479206d696e746564000000006000830152602082019050919050565b60006146a8602483615530565b91507f4552433732313a207472616e7366657220746f20746865207a65726f2061646460008301527f72657373000000000000000000000000000000000000000000000000000000006020830152604082019050919050565b600061470e601983615530565b91507f4552433732313a20617070726f766520746f2063616c6c6572000000000000006000830152602082019050919050565b600061474e601a83615530565b91507f41646472657373206973206e6f742077686974656c69737465640000000000006000830152602082019050919050565b600061478e601f83615530565b91507f45746865722076616c75652073656e74206973206e6f7420636f7272656374006000830152602082019050919050565b60006147ce602c83615530565b91507f4552433732313a206f70657261746f7220717565727920666f72206e6f6e657860008301527f697374656e7420746f6b656e00000000000000000000000000000000000000006020830152604082019050919050565b6000614834603883615530565b91507f4552433732313a20617070726f76652063616c6c6572206973206e6f74206f7760008301527f6e6572206e6f7220617070726f76656420666f7220616c6c00000000000000006020830152604082019050919050565b600061489a601e83615530565b91507f50726573616c65206d7573742062652061637469766520746f206d696e7400006000830152602082019050919050565b60006148da602a83615530565b91507f4552433732313a2062616c616e636520717565727920666f7220746865207a6560008301527f726f2061646472657373000000000000000000000000000000000000000000006020830152604082019050919050565b6000614940602983615530565b91507f4552433732313a206f776e657220717565727920666f72206e6f6e657869737460008301527f656e7420746f6b656e00000000000000000000000000000000000000000000006020830152604082019050919050565b60006149a6603383615530565b91507f43616e206f6e6c79206d696e74204d41585f4d494e545f5154595f505245534160008301527f4c4520746f6b656e7320617420612074696d65000000000000000000000000006020830152604082019050919050565b6000614a0c602083615530565b91507f507572636861736520776f756c6420657863656564206d617820737570706c796000830152602082019050919050565b6000614a4c602083615530565b91507f4552433732313a206d696e7420746f20746865207a65726f20616464726573736000830152602082019050919050565b6000614a8c601783615530565b91507f41626f76652070726573616c65206d6178546f6b656e2e0000000000000000006000830152602082019050919050565b6000614acc602c83615530565b91507f4552433732313a20617070726f76656420717565727920666f72206e6f6e657860008301527f697374656e7420746f6b656e00000000000000000000000000000000000000006020830152604082019050919050565b6000614b32602083615530565b91507f4f776e61626c653a2063616c6c6572206973206e6f7420746865206f776e65726000830152602082019050919050565b6000614b72602983615530565b91507f4552433732313a207472616e73666572206f6620746f6b656e2074686174206960008301527f73206e6f74206f776e00000000000000000000000000000000000000000000006020830152604082019050919050565b6000614bd8601383615530565b91507f416c72656164792077686974656c6973746564000000000000000000000000006000830152602082019050919050565b6000614c18602183615530565b91507f4552433732313a20617070726f76616c20746f2063757272656e74206f776e6560008301527f72000000000000000000000000000000000000000000000000000000000000006020830152604082019050919050565b6000614c7e602b83615530565b91507f43616e206f6e6c79206d696e74204d41585f4d494e545f51545920746f6b656e60008301527f7320617420612074696d650000000000000000000000000000000000000000006020830152604082019050919050565b6000614ce4600083615525565b9150600082019050919050565b6000614cfe603183615530565b91507f4552433732313a207472616e736665722063616c6c6572206973206e6f74206f60008301527f776e6572206e6f7220617070726f7665640000000000000000000000000000006020830152604082019050919050565b6000614d64600783615530565b91507f50726573616c65000000000000000000000000000000000000000000000000006000830152602082019050919050565b6000614da4602c83615530565b91507f455243373231456e756d657261626c653a20676c6f62616c20696e646578206f60008301527f7574206f6620626f756e647300000000000000000000000000000000000000006020830152604082019050919050565b6000614e0a600b83615530565b91507f5075626c69632053616c650000000000000000000000000000000000000000006000830152602082019050919050565b614e46816156dd565b82525050565b614e55816156e7565b82525050565b6000614e678286614444565b9150614e738285614393565b9150614e7f8284614393565b9150819050949350505050565b6000614e9782614cd7565b9150819050919050565b6000602082019050614eb660008301846142a5565b92915050565b6000608082019050614ed160008301876142a5565b614ede60208301866142a5565b614eeb6040830185614e3d565b8181036060830152614efd8184614321565b905095945050505050565b6000604082019050614f1d60008301856142a5565b8181036020830152614f2f818461435a565b90509392505050565b6000606082019050614f4d60008301866142a5565b8181036020830152614f5f81856143c4565b90508181036040830152614f73818461435a565b9050949350505050565b6000606082019050614f9260008301856142a5565b8181036020830152614fa381614d57565b9050614fb26040830184614312565b9392505050565b6000606082019050614fce60008301856142a5565b8181036020830152614fdf81614dfd565b9050614fee6040830184614312565b9392505050565b600060408201905061500a60008301856142a5565b6150176020830184614e3d565b9392505050565b6000602082019050818103600083015261503881846142b4565b905092915050565b60006020820190506150556000830184614312565b92915050565b60006020820190508181036000830152615075818461435a565b905092915050565b60006020820190508181036000830152615096816144c3565b9050919050565b600060208201905081810360008301526150b681614529565b9050919050565b600060208201905081810360008301526150d68161458f565b9050919050565b600060208201905081810360008301526150f6816145f5565b9050919050565b600060208201905081810360008301526151168161465b565b9050919050565b600060208201905081810360008301526151368161469b565b9050919050565b6000602082019050818103600083015261515681614701565b9050919050565b6000602082019050818103600083015261517681614741565b9050919050565b6000602082019050818103600083015261519681614781565b9050919050565b600060208201905081810360008301526151b6816147c1565b9050919050565b600060208201905081810360008301526151d681614827565b9050919050565b600060208201905081810360008301526151f68161488d565b9050919050565b60006020820190508181036000830152615216816148cd565b9050919050565b6000602082019050818103600083015261523681614933565b9050919050565b6000602082019050818103600083015261525681614999565b9050919050565b60006020820190508181036000830152615276816149ff565b9050919050565b6000602082019050818103600083015261529681614a3f565b9050919050565b600060208201905081810360008301526152b681614a7f565b9050919050565b600060208201905081810360008301526152d681614abf565b9050919050565b600060208201905081810360008301526152f681614b25565b9050919050565b6000602082019050818103600083015261531681614b65565b9050919050565b6000602082019050818103600083015261533681614bcb565b9050919050565b6000602082019050818103600083015261535681614c0b565b9050919050565b6000602082019050818103600083015261537681614c71565b9050919050565b6000602082019050818103600083015261539681614cf1565b9050919050565b600060208201905081810360008301526153b681614d97565b9050919050565b60006020820190506153d26000830184614e3d565b92915050565b60006020820190506153ed6000830184614e4c565b92915050565b6000604051905081810181811067ffffffffffffffff8211171561541a5761541961586f565b5b8060405250919050565b600067ffffffffffffffff82111561543f5761543e61586f565b5b602082029050602081019050919050565b600067ffffffffffffffff82111561546b5761546a61586f565b5b601f19601f8301169050602081019050919050565b600067ffffffffffffffff82111561549b5761549a61586f565b5b601f19601f8301169050602081019050919050565b6000819050602082019050919050565b60008190508160005260206000209050919050565b600081519050919050565b600081519050919050565b600081519050919050565b6000602082019050919050565b600082825260208201905092915050565b600082825260208201905092915050565b600081905092915050565b600082825260208201905092915050565b600081905092915050565b6000615557826156dd565b9150615562836156dd565b9250827fffffffffffffffffffffffffffffffffffffffffffffffffffffffffffffffff03821115615597576155966157e2565b5b828201905092915050565b60006155ad826156dd565b91506155b8836156dd565b9250826155c8576155c7615811565b5b828204905092915050565b60006155de826156dd565b91506155e9836156dd565b9250817fffffffffffffffffffffffffffffffffffffffffffffffffffffffffffffffff0483118215151615615622576156216157e2565b5b828202905092915050565b6000615638826156dd565b9150615643836156dd565b925082821015615656576156556157e2565b5b828203905092915050565b600061566c826156bd565b9050919050565b600061567e826156bd565b9050919050565b60008115159050919050565b60007fffffffff0000000000000000000000000000000000000000000000000000000082169050919050565b600073ffffffffffffffffffffffffffffffffffffffff82169050919050565b6000819050919050565b600060ff82169050919050565b82818337600083830152505050565b60005b83811015615721578082015181840152602081019050615706565b83811115615730576000848401525b50505050565b6000600282049050600182168061574e57607f821691505b6020821081141561576257615761615840565b5b50919050565b6000615773826156dd565b91507fffffffffffffffffffffffffffffffffffffffffffffffffffffffffffffffff8214156157a6576157a56157e2565b5b600182019050919050565b60006157bc826156dd565b91506157c7836156dd565b9250826157d7576157d6615811565b5b828206905092915050565b7f4e487b7100000000000000000000000000000000000000000000000000000000600052601160045260246000fd5b7f4e487b7100000000000000000000000000000000000000000000000000000000600052601260045260246000fd5b7f4e487b7100000000000000000000000000000000000000000000000000000000600052602260045260246000fd5b7f4e487b7100000000000000000000000000000000000000000000000000000000600052604160045260246000fd5b6000601f19601f8301169050919050565b6158b881615661565b81146158c357600080fd5b50565b6158cf81615673565b81146158da57600080fd5b50565b6158e681615685565b81146158f157600080fd5b50565b6158fd81615691565b811461590857600080fd5b50565b615914816156dd565b811461591f57600080fd5b5056fea26469706673582212206d4d68568feca33a663175c341d5c48bbb783e031fc24db94f387c950d0dcc2064736f6c63430008000033608060405234801561001057600080fd5b5061002d61002261003260201b60201c565b61003a60201b60201c565b6100fe565b600033905090565b60008060009054906101000a900473ffffffffffffffffffffffffffffffffffffffff169050816000806101000a81548173ffffffffffffffffffffffffffffffffffffffff021916908373ffffffffffffffffffffffffffffffffffffffff1602179055508173ffffffffffffffffffffffffffffffffffffffff168173ffffffffffffffffffffffffffffffffffffffff167f8be0079c531659141344cd1fd0a4f28419497f9722a3daafe3b4186f6b6457e060405160405180910390a35050565b610bc08061010d6000396000f3fe6080604052600436106100555760003560e01c806351cff8d91461005a578063715018a6146100835780638da5cb5b1461009a578063e3a9db1a146100c5578063f2fde38b14610102578063f340fa011461012b575b600080fd5b34801561006657600080fd5b50610081600480360381019061007c91906107f5565b610147565b005b34801561008f57600080fd5b506100986102c7565b005b3480156100a657600080fd5b506100af61034f565b6040516100bc91906109b7565b60405180910390f35b3480156100d157600080fd5b506100ec60048036038101906100e791906107cc565b610378565b6040516100f99190610a52565b60405180910390f35b34801561010e57600080fd5b50610129600480360381019061012491906107cc565b6103c1565b005b610145600480360381019061014091906107cc565b6104b9565b005b61014f6105e2565b73ffffffffffffffffffffffffffffffffffffffff1661016d61034f565b73ffffffffffffffffffffffffffffffffffffffff16146101c3576040517f08c379a00000000000000000000000000000000000000000000000000000000081526004016101ba90610a32565b60405180910390fd5b6000600160008373ffffffffffffffffffffffffffffffffffffffff1673ffffffffffffffffffffffffffffffffffffffff1681526020019081526020016000205490506000600160008473ffffffffffffffffffffffffffffffffffffffff1673ffffffffffffffffffffffffffffffffffffffff16815260200190815260200160002081905550610275818373ffffffffffffffffffffffffffffffffffffffff166105ea90919063ffffffff16565b8173ffffffffffffffffffffffffffffffffffffffff167f7084f5476618d8e60b11ef0d7d3f06914655adb8793e28ff7f018d4c76d505d5826040516102bb9190610a52565b60405180910390a25050565b6102cf6105e2565b73ffffffffffffffffffffffffffffffffffffffff166102ed61034f565b73ffffffffffffffffffffffffffffffffffffffff1614610343576040517f08c379a000000000000000000000000000000000000000000000000000000000815260040161033a90610a32565b60405180910390fd5b61034d60006106de565b565b60008060009054906101000a900473ffffffffffffffffffffffffffffffffffffffff16905090565b6000600160008373ffffffffffffffffffffffffffffffffffffffff1673ffffffffffffffffffffffffffffffffffffffff168152602001908152602001600020549050919050565b6103c96105e2565b73ffffffffffffffffffffffffffffffffffffffff166103e761034f565b73ffffffffffffffffffffffffffffffffffffffff161461043d576040517f08c379a000000000000000000000000000000000000000000000000000000000815260040161043490610a32565b60405180910390fd5b600073ffffffffffffffffffffffffffffffffffffffff168173ffffffffffffffffffffffffffffffffffffffff1614156104ad576040517f08c379a00000000000000000000000000000000000000000000000000000000081526004016104a4906109d2565b60405180910390fd5b6104b6816106de565b50565b6104c16105e2565b73ffffffffffffffffffffffffffffffffffffffff166104df61034f565b73ffffffffffffffffffffffffffffffffffffffff1614610535576040517f08c379a000000000000000000000000000000000000000000000000000000000815260040161052c90610a32565b60405180910390fd5b600034905080600160008473ffffffffffffffffffffffffffffffffffffffff1673ffffffffffffffffffffffffffffffffffffffff16815260200190815260200160002060008282546105899190610a89565b925050819055508173ffffffffffffffffffffffffffffffffffffffff167f2da466a7b24304f47e87fa2e1e5a81b9831ce54fec19055ce277ca2f39ba42c4826040516105d69190610a52565b60405180910390a25050565b600033905090565b8047101561062d576040517f08c379a000000000000000000000000000000000000000000000000000000000815260040161062490610a12565b60405180910390fd5b60008273ffffffffffffffffffffffffffffffffffffffff1682604051610653906109a2565b60006040518083038185875af1925050503d8060008114610690576040519150601f19603f3d011682016040523d82523d6000602084013e610695565b606091505b50509050806106d9576040517f08c379a00000000000000000000000000000000000000000000000000000000081526004016106d0906109f2565b60405180910390fd5b505050565b60008060009054906101000a900473ffffffffffffffffffffffffffffffffffffffff169050816000806101000a81548173ffffffffffffffffffffffffffffffffffffffff021916908373ffffffffffffffffffffffffffffffffffffffff1602179055508173ffffffffffffffffffffffffffffffffffffffff168173ffffffffffffffffffffffffffffffffffffffff167f8be0079c531659141344cd1fd0a4f28419497f9722a3daafe3b4186f6b6457e060405160405180910390a35050565b6000813590506107b181610b5c565b92915050565b6000813590506107c681610b73565b92915050565b6000602082840312156107de57600080fd5b60006107ec848285016107a2565b91505092915050565b60006020828403121561080757600080fd5b6000610815848285016107b7565b91505092915050565b61082781610adf565b82525050565b600061083a602683610a78565b91507f4f776e61626c653a206e6577206f776e657220697320746865207a65726f206160008301527f64647265737300000000000000000000000000000000000000000000000000006020830152604082019050919050565b60006108a0603a83610a78565b91507f416464726573733a20756e61626c6520746f2073656e642076616c75652c207260008301527f6563697069656e74206d617920686176652072657665727465640000000000006020830152604082019050919050565b6000610906601d83610a78565b91507f416464726573733a20696e73756666696369656e742062616c616e63650000006000830152602082019050919050565b6000610946602083610a78565b91507f4f776e61626c653a2063616c6c6572206973206e6f7420746865206f776e65726000830152602082019050919050565b6000610986600083610a6d565b9150600082019050919050565b61099c81610b23565b82525050565b60006109ad82610979565b9150819050919050565b60006020820190506109cc600083018461081e565b92915050565b600060208201905081810360008301526109eb8161082d565b9050919050565b60006020820190508181036000830152610a0b81610893565b9050919050565b60006020820190508181036000830152610a2b816108f9565b9050919050565b60006020820190508181036000830152610a4b81610939565b9050919050565b6000602082019050610a676000830184610993565b92915050565b600081905092915050565b600082825260208201905092915050565b6000610a9482610b23565b9150610a9f83610b23565b9250827fffffffffffffffffffffffffffffffffffffffffffffffffffffffffffffffff03821115610ad457610ad3610b2d565b5b828201905092915050565b6000610aea82610b03565b9050919050565b6000610afc82610b03565b9050919050565b600073ffffffffffffffffffffffffffffffffffffffff82169050919050565b6000819050919050565b7f4e487b7100000000000000000000000000000000000000000000000000000000600052601160045260246000fd5b610b6581610adf565b8114610b7057600080fd5b50565b610b7c81610af1565b8114610b8757600080fd5b5056fea26469706673582212204e8ab707adc9ee645b828ddc4f791bd246fea3a80e8eeba1ce50ca1d3c28c2cb64736f6c63430008000033",
  "linkReferences": {},
  "deployedLinkReferences": {}
}