{
  "_format": "hh-sol-artifact-1",
  "contractName": "AZNFT",
  "sourceName": "contracts/AZNFT.sol",
  "abi": [
    {
      "inputs": [
        {
          "internalType": "string",
          "name": "name",
          "type": "string"
        },
        {
          "internalType": "string",
          "name": "symbol",
          "type": "string"
        },
        {
          "internalType": "uint256",
          "name": "maxNftSupply",
          "type": "uint256"
        }
      ],
      "stateMutability": "nonpayable",
      "type": "constructor"
    },
    {
      "anonymous": false,
      "inputs": [
        {
          "indexed": true,
          "internalType": "address",
          "name": "owner",
          "type": "address"
        },
        {
          "indexed": true,
          "internalType": "address",
          "name": "approved",
          "type": "address"
        },
        {
          "indexed": true,
          "internalType": "uint256",
          "name": "tokenId",
          "type": "uint256"
        }
      ],
      "name": "Approval",
      "type": "event"
    },
    {
      "anonymous": false,
      "inputs": [
        {
          "indexed": true,
          "internalType": "address",
          "name": "owner",
          "type": "address"
        },
        {
          "indexed": true,
          "internalType": "address",
          "name": "operator",
          "type": "address"
        },
        {
          "indexed": false,
          "internalType": "bool",
          "name": "approved",
          "type": "bool"
        }
      ],
      "name": "ApprovalForAll",
      "type": "event"
    },
    {
      "anonymous": false,
      "inputs": [
        {
          "indexed": true,
          "internalType": "address",
          "name": "previousOwner",
          "type": "address"
        },
        {
          "indexed": true,
          "internalType": "address",
          "name": "newOwner",
          "type": "address"
        }
      ],
      "name": "OwnershipTransferred",
      "type": "event"
    },
    {
      "anonymous": false,
      "inputs": [
        {
          "indexed": true,
          "internalType": "address",
          "name": "from",
          "type": "address"
        },
        {
          "indexed": true,
          "internalType": "address",
          "name": "to",
          "type": "address"
        },
        {
          "indexed": true,
          "internalType": "uint256",
          "name": "tokenId",
          "type": "uint256"
        }
      ],
      "name": "Transfer",
      "type": "event"
    },
    {
      "inputs": [],
      "name": "MAX_MINT",
      "outputs": [
        {
          "internalType": "uint256",
          "name": "",
          "type": "uint256"
        }
      ],
      "stateMutability": "view",
      "type": "function"
    },
    {
      "inputs": [],
      "name": "MINT_PRICE",
      "outputs": [
        {
          "internalType": "uint256",
          "name": "",
          "type": "uint256"
        }
      ],
      "stateMutability": "view",
      "type": "function"
    },
    {
      "inputs": [
        {
          "internalType": "address",
          "name": "to",
          "type": "address"
        },
        {
          "internalType": "uint256",
          "name": "tokenId",
          "type": "uint256"
        }
      ],
      "name": "approve",
      "outputs": [],
      "stateMutability": "nonpayable",
      "type": "function"
    },
    {
      "inputs": [
        {
          "internalType": "address",
          "name": "owner",
          "type": "address"
        }
      ],
      "name": "balanceOf",
      "outputs": [
        {
          "internalType": "uint256",
          "name": "",
          "type": "uint256"
        }
      ],
      "stateMutability": "view",
      "type": "function"
    },
    {
      "inputs": [],
      "name": "baseTokenURI",
      "outputs": [
        {
          "internalType": "string",
          "name": "",
          "type": "string"
        }
      ],
      "stateMutability": "view",
      "type": "function"
    },
    {
      "inputs": [],
      "name": "emergencySetStartingIndexBlock",
      "outputs": [],
      "stateMutability": "nonpayable",
      "type": "function"
    },
    {
      "inputs": [],
      "name": "flipSaleState",
      "outputs": [],
      "stateMutability": "nonpayable",
      "type": "function"
    },
    {
      "inputs": [
        {
          "internalType": "uint256",
          "name": "tokenId",
          "type": "uint256"
        }
      ],
      "name": "getApproved",
      "outputs": [
        {
          "internalType": "address",
          "name": "",
          "type": "address"
        }
      ],
      "stateMutability": "view",
      "type": "function"
    },
    {
      "inputs": [
        {
          "internalType": "address",
          "name": "owner",
          "type": "address"
        },
        {
          "internalType": "address",
          "name": "operator",
          "type": "address"
        }
      ],
      "name": "isApprovedForAll",
      "outputs": [
        {
          "internalType": "bool",
          "name": "",
          "type": "bool"
        }
      ],
      "stateMutability": "view",
      "type": "function"
    },
    {
      "inputs": [],
      "name": "maxSupply",
      "outputs": [
        {
          "internalType": "uint256",
          "name": "",
          "type": "uint256"
        }
      ],
      "stateMutability": "view",
      "type": "function"
    },
    {
      "inputs": [
        {
          "internalType": "uint256",
          "name": "numberOfTokens",
          "type": "uint256"
        }
      ],
      "name": "mintTo",
      "outputs": [],
      "stateMutability": "payable",
      "type": "function"
    },
    {
      "inputs": [],
      "name": "name",
      "outputs": [
        {
          "internalType": "string",
          "name": "",
          "type": "string"
        }
      ],
      "stateMutability": "view",
      "type": "function"
    },
    {
      "inputs": [],
      "name": "owner",
      "outputs": [
        {
          "internalType": "address",
          "name": "",
          "type": "address"
        }
      ],
      "stateMutability": "view",
      "type": "function"
    },
    {
      "inputs": [
        {
          "internalType": "uint256",
          "name": "tokenId",
          "type": "uint256"
        }
      ],
      "name": "ownerOf",
      "outputs": [
        {
          "internalType": "address",
          "name": "",
          "type": "address"
        }
      ],
      "stateMutability": "view",
      "type": "function"
    },
    {
      "inputs": [
        {
          "internalType": "address",
          "name": "dest",
          "type": "address"
        }
      ],
      "name": "payments",
      "outputs": [
        {
          "internalType": "uint256",
          "name": "",
          "type": "uint256"
        }
      ],
      "stateMutability": "view",
      "type": "function"
    },
    {
      "inputs": [],
      "name": "renounceOwnership",
      "outputs": [],
      "stateMutability": "nonpayable",
      "type": "function"
    },
    {
      "inputs": [
        {
          "internalType": "address",
          "name": "from",
          "type": "address"
        },
        {
          "internalType": "address",
          "name": "to",
          "type": "address"
        },
        {
          "internalType": "uint256",
          "name": "tokenId",
          "type": "uint256"
        }
      ],
      "name": "safeTransferFrom",
      "outputs": [],
      "stateMutability": "nonpayable",
      "type": "function"
    },
    {
      "inputs": [
        {
          "internalType": "address",
          "name": "from",
          "type": "address"
        },
        {
          "internalType": "address",
          "name": "to",
          "type": "address"
        },
        {
          "internalType": "uint256",
          "name": "tokenId",
          "type": "uint256"
        },
        {
          "internalType": "bytes",
          "name": "_data",
          "type": "bytes"
        }
      ],
      "name": "safeTransferFrom",
      "outputs": [],
      "stateMutability": "nonpayable",
      "type": "function"
    },
    {
      "inputs": [],
      "name": "saleIsActive",
      "outputs": [
        {
          "internalType": "bool",
          "name": "",
          "type": "bool"
        }
      ],
      "stateMutability": "view",
      "type": "function"
    },
    {
      "inputs": [
        {
          "internalType": "address",
          "name": "operator",
          "type": "address"
        },
        {
          "internalType": "bool",
          "name": "approved",
          "type": "bool"
        }
      ],
      "name": "setApprovalForAll",
      "outputs": [],
      "stateMutability": "nonpayable",
      "type": "function"
    },
    {
      "inputs": [
        {
          "internalType": "string",
          "name": "_baseTokenURI",
          "type": "string"
        }
      ],
      "name": "setBaseTokenURI",
      "outputs": [],
      "stateMutability": "nonpayable",
      "type": "function"
    },
    {
      "inputs": [],
      "name": "setStartingIndex",
      "outputs": [],
      "stateMutability": "nonpayable",
      "type": "function"
    },
    {
      "inputs": [],
      "name": "startingIndex",
      "outputs": [
        {
          "internalType": "uint256",
          "name": "",
          "type": "uint256"
        }
      ],
      "stateMutability": "view",
      "type": "function"
    },
    {
      "inputs": [],
      "name": "startingIndexBlock",
      "outputs": [
        {
          "internalType": "uint256",
          "name": "",
          "type": "uint256"
        }
      ],
      "stateMutability": "view",
      "type": "function"
    },
    {
      "inputs": [
        {
          "internalType": "bytes4",
          "name": "interfaceId",
          "type": "bytes4"
        }
      ],
      "name": "supportsInterface",
      "outputs": [
        {
          "internalType": "bool",
          "name": "",
          "type": "bool"
        }
      ],
      "stateMutability": "view",
      "type": "function"
    },
    {
      "inputs": [],
      "name": "symbol",
      "outputs": [
        {
          "internalType": "string",
          "name": "",
          "type": "string"
        }
      ],
      "stateMutability": "view",
      "type": "function"
    },
    {
      "inputs": [
        {
          "internalType": "uint256",
          "name": "index",
          "type": "uint256"
        }
      ],
      "name": "tokenByIndex",
      "outputs": [
        {
          "internalType": "uint256",
          "name": "",
          "type": "uint256"
        }
      ],
      "stateMutability": "view",
      "type": "function"
    },
    {
      "inputs": [
        {
          "internalType": "address",
          "name": "owner",
          "type": "address"
        },
        {
          "internalType": "uint256",
          "name": "index",
          "type": "uint256"
        }
      ],
      "name": "tokenOfOwnerByIndex",
      "outputs": [
        {
          "internalType": "uint256",
          "name": "",
          "type": "uint256"
        }
      ],
      "stateMutability": "view",
      "type": "function"
    },
    {
      "inputs": [
        {
          "internalType": "uint256",
          "name": "tokenId",
          "type": "uint256"
        }
      ],
      "name": "tokenURI",
      "outputs": [
        {
          "internalType": "string",
          "name": "",
          "type": "string"
        }
      ],
      "stateMutability": "view",
      "type": "function"
    },
    {
      "inputs": [],
      "name": "totalSupply",
      "outputs": [
        {
          "internalType": "uint256",
          "name": "",
          "type": "uint256"
        }
      ],
      "stateMutability": "view",
      "type": "function"
    },
    {
      "inputs": [
        {
          "internalType": "address",
          "name": "from",
          "type": "address"
        },
        {
          "internalType": "address",
          "name": "to",
          "type": "address"
        },
        {
          "internalType": "uint256",
          "name": "tokenId",
          "type": "uint256"
        }
      ],
      "name": "transferFrom",
      "outputs": [],
      "stateMutability": "nonpayable",
      "type": "function"
    },
    {
      "inputs": [
        {
          "internalType": "address",
          "name": "newOwner",
          "type": "address"
        }
      ],
      "name": "transferOwnership",
      "outputs": [],
      "stateMutability": "nonpayable",
      "type": "function"
    },
    {
      "inputs": [
        {
          "internalType": "address payable",
          "name": "payee",
          "type": "address"
        }
      ],
      "name": "withdrawPayments",
      "outputs": [],
      "stateMutability": "nonpayable",
      "type": "function"
    }
  ],
  "bytecode": "0x60a06040526000600e60006101000a81548160ff0219169083151502179055503480156200002c57600080fd5b50604051620053b4380380620053b483398181016040528101906200005291906200032f565b828281600090805190602001906200006c929190620001e8565b50806001908051906020019062000085929190620001e8565b505050604051620000969062000279565b604051809103906000f080158015620000b3573d6000803e3d6000fd5b5073ffffffffffffffffffffffffffffffffffffffff1660808173ffffffffffffffffffffffffffffffffffffffff1660601b815250506200010a620000fe6200011a60201b60201c565b6200012260201b60201c565b80600b819055505050506200050c565b600033905090565b6000600a60009054906101000a900473ffffffffffffffffffffffffffffffffffffffff16905081600a60006101000a81548173ffffffffffffffffffffffffffffffffffffffff021916908373ffffffffffffffffffffffffffffffffffffffff1602179055508173ffffffffffffffffffffffffffffffffffffffff168173ffffffffffffffffffffffffffffffffffffffff167f8be0079c531659141344cd1fd0a4f28419497f9722a3daafe3b4186f6b6457e060405160405180910390a35050565b828054620001f6906200045e565b90600052602060002090601f0160209004810192826200021a576000855562000266565b82601f106200023557805160ff191683800117855562000266565b8280016001018555821562000266579182015b828111156200026557825182559160200191906001019062000248565b5b50905062000275919062000287565b5090565b610ccd80620046e783390190565b5b80821115620002a257600081600090555060010162000288565b5090565b6000620002bd620002b784620003eb565b620003b7565b905082815260208101848484011115620002d657600080fd5b620002e384828562000428565b509392505050565b600082601f830112620002fd57600080fd5b81516200030f848260208601620002a6565b91505092915050565b6000815190506200032981620004f2565b92915050565b6000806000606084860312156200034557600080fd5b600084015167ffffffffffffffff8111156200036057600080fd5b6200036e86828701620002eb565b935050602084015167ffffffffffffffff8111156200038c57600080fd5b6200039a86828701620002eb565b9250506040620003ad8682870162000318565b9150509250925092565b6000604051905081810181811067ffffffffffffffff82111715620003e157620003e0620004c3565b5b8060405250919050565b600067ffffffffffffffff821115620004095762000408620004c3565b5b601f19601f8301169050602081019050919050565b6000819050919050565b60005b83811015620004485780820151818401526020810190506200042b565b8381111562000458576000848401525b50505050565b600060028204905060018216806200047757607f821691505b602082108114156200048e576200048d62000494565b5b50919050565b7f4e487b7100000000000000000000000000000000000000000000000000000000600052602260045260246000fd5b7f4e487b7100000000000000000000000000000000000000000000000000000000600052604160045260246000fd5b620004fd816200041e565b81146200050957600080fd5b50565b60805160601c6141b5620005326000396000818161141a0152611c6601526141b56000f3fe6080604052600436106101ee5760003560e01c80638da5cb5b1161010d578063d547cfb7116100a0578063e985e9c51161006f578063e985e9c5146106de578063e98665501461071b578063eb8d244414610732578063f0292a031461075d578063f2fde38b14610788576101ee565b8063d547cfb714610620578063d5abeb011461064b578063e2982c2114610676578063e36d6498146106b3576101ee565b8063be8c31b8116100dc578063be8c31b814610571578063c002d23d1461058d578063c87b56dd146105b8578063cb774d47146105f5576101ee565b80638da5cb5b146104c957806395d89b41146104f4578063a22cb4651461051f578063b88d4fde14610548576101ee565b806331b3eb94116101855780636352211e116101545780636352211e1461042157806370a082311461045e578063715018a61461049b5780637d17fcbe146104b2576101ee565b806331b3eb941461037b57806334918dfd146103a457806342842e0e146103bb5780634f6ccce7146103e4576101ee565b806318160ddd116101c157806318160ddd146102c157806323b872dd146102ec5780632f745c591461031557806330176e1314610352576101ee565b806301ffc9a7146101f357806306fdde0314610230578063081812fc1461025b578063095ea7b314610298575b600080fd5b3480156101ff57600080fd5b5061021a60048036038101906102159190612fa0565b6107b1565b6040516102279190613a04565b60405180910390f35b34801561023c57600080fd5b506102456107c3565b6040516102529190613a1f565b60405180910390f35b34801561026757600080fd5b50610282600480360381019061027d9190613033565b610855565b60405161028f9190613982565b60405180910390f35b3480156102a457600080fd5b506102bf60048036038101906102ba9190612f64565b6108da565b005b3480156102cd57600080fd5b506102d66109f2565b6040516102e39190613d21565b60405180910390f35b3480156102f857600080fd5b50610313600480360381019061030e9190612e5e565b6109ff565b005b34801561032157600080fd5b5061033c60048036038101906103379190612f64565b610a5f565b6040516103499190613d21565b60405180910390f35b34801561035e57600080fd5b5061037960048036038101906103749190612ff2565b610b04565b005b34801561038757600080fd5b506103a2600480360381019061039d9190612df9565b610b9a565b005b3480156103b057600080fd5b506103b9610c22565b005b3480156103c757600080fd5b506103e260048036038101906103dd9190612e5e565b610cca565b005b3480156103f057600080fd5b5061040b60048036038101906104069190613033565b610cea565b6040516104189190613d21565b60405180910390f35b34801561042d57600080fd5b5061044860048036038101906104439190613033565b610d81565b6040516104559190613982565b60405180910390f35b34801561046a57600080fd5b5061048560048036038101906104809190612dd0565b610e33565b6040516104929190613d21565b60405180910390f35b3480156104a757600080fd5b506104b0610eeb565b005b3480156104be57600080fd5b506104c7610f73565b005b3480156104d557600080fd5b506104de61103d565b6040516104eb9190613982565b60405180910390f35b34801561050057600080fd5b50610509611067565b6040516105169190613a1f565b60405180910390f35b34801561052b57600080fd5b5061054660048036038101906105419190612f28565b6110f9565b005b34801561055457600080fd5b5061056f600480360381019061056a9190612ead565b61110f565b005b61058b60048036038101906105869190613033565b611171565b005b34801561059957600080fd5b506105a26112ca565b6040516105af9190613d21565b60405180910390f35b3480156105c457600080fd5b506105df60048036038101906105da9190613033565b6112d5565b6040516105ec9190613a1f565b60405180910390f35b34801561060157600080fd5b5061060a61137c565b6040516106179190613d21565b60405180910390f35b34801561062c57600080fd5b50610635611382565b6040516106429190613a1f565b60405180910390f35b34801561065757600080fd5b50610660611410565b60405161066d9190613d21565b60405180910390f35b34801561068257600080fd5b5061069d60048036038101906106989190612dd0565b611416565b6040516106aa9190613d21565b60405180910390f35b3480156106bf57600080fd5b506106c86114c8565b6040516106d59190613d21565b60405180910390f35b3480156106ea57600080fd5b5061070560048036038101906107009190612e22565b6114ce565b6040516107129190613a04565b60405180910390f35b34801561072757600080fd5b50610730611562565b005b34801561073e57600080fd5b50610747611673565b6040516107549190613a04565b60405180910390f35b34801561076957600080fd5b50610772611686565b60405161077f9190613d21565b60405180910390f35b34801561079457600080fd5b506107af60048036038101906107aa9190612dd0565b61168b565b005b60006107bc82611783565b9050919050565b6060600080546107d290613f93565b80601f01602080910402602001604051908101604052809291908181526020018280546107fe90613f93565b801561084b5780601f106108205761010080835404028352916020019161084b565b820191906000526020600020905b81548152906001019060200180831161082e57829003601f168201915b5050505050905090565b6000610860826117fd565b61089f576040517f08c379a000000000000000000000000000000000000000000000000000000000815260040161089690613c21565b60405180910390fd5b6004600083815260200190815260200160002060009054906101000a900473ffffffffffffffffffffffffffffffffffffffff169050919050565b60006108e582610d81565b90508073ffffffffffffffffffffffffffffffffffffffff168373ffffffffffffffffffffffffffffffffffffffff161415610956576040517f08c379a000000000000000000000000000000000000000000000000000000000815260040161094d90613ca1565b60405180910390fd5b8073ffffffffffffffffffffffffffffffffffffffff16610975611869565b73ffffffffffffffffffffffffffffffffffffffff1614806109a457506109a38161099e611869565b6114ce565b5b6109e3576040517f08c379a00000000000000000000000000000000000000000000000000000000081526004016109da90613b81565b60405180910390fd5b6109ed8383611871565b505050565b6000600880549050905090565b610a10610a0a611869565b8261192a565b610a4f576040517f08c379a0000000000000000000000000000000000000000000000000000000008152600401610a4690613ce1565b60405180910390fd5b610a5a838383611a08565b505050565b6000610a6a83610e33565b8210610aab576040517f08c379a0000000000000000000000000000000000000000000000000000000008152600401610aa290613a41565b60405180910390fd5b600660008473ffffffffffffffffffffffffffffffffffffffff1673ffffffffffffffffffffffffffffffffffffffff168152602001908152602001600020600083815260200190815260200160002054905092915050565b610b0c611869565b73ffffffffffffffffffffffffffffffffffffffff16610b2a61103d565b73ffffffffffffffffffffffffffffffffffffffff1614610b80576040517f08c379a0000000000000000000000000000000000000000000000000000000008152600401610b7790613c41565b60405180910390fd5b80600d9080519060200190610b96929190612bca565b5050565b610ba2611869565b73ffffffffffffffffffffffffffffffffffffffff16610bc061103d565b73ffffffffffffffffffffffffffffffffffffffff1614610c16576040517f08c379a0000000000000000000000000000000000000000000000000000000008152600401610c0d90613c41565b60405180910390fd5b610c1f81611c64565b50565b610c2a611869565b73ffffffffffffffffffffffffffffffffffffffff16610c4861103d565b73ffffffffffffffffffffffffffffffffffffffff1614610c9e576040517f08c379a0000000000000000000000000000000000000000000000000000000008152600401610c9590613c41565b60405180910390fd5b600e60009054906101000a900460ff1615600e60006101000a81548160ff021916908315150217905550565b610ce58383836040518060200160405280600081525061110f565b505050565b6000610cf46109f2565b8210610d35576040517f08c379a0000000000000000000000000000000000000000000000000000000008152600401610d2c90613d01565b60405180910390fd5b60088281548110610d6f577f4e487b7100000000000000000000000000000000000000000000000000000000600052603260045260246000fd5b90600052602060002001549050919050565b6000806002600084815260200190815260200160002060009054906101000a900473ffffffffffffffffffffffffffffffffffffffff169050600073ffffffffffffffffffffffffffffffffffffffff168173ffffffffffffffffffffffffffffffffffffffff161415610e2a576040517f08c379a0000000000000000000000000000000000000000000000000000000008152600401610e2190613bc1565b60405180910390fd5b80915050919050565b60008073ffffffffffffffffffffffffffffffffffffffff168273ffffffffffffffffffffffffffffffffffffffff161415610ea4576040517f08c379a0000000000000000000000000000000000000000000000000000000008152600401610e9b90613ba1565b60405180910390fd5b600360008373ffffffffffffffffffffffffffffffffffffffff1673ffffffffffffffffffffffffffffffffffffffff168152602001908152602001600020549050919050565b610ef3611869565b73ffffffffffffffffffffffffffffffffffffffff16610f1161103d565b73ffffffffffffffffffffffffffffffffffffffff1614610f67576040517f08c379a0000000000000000000000000000000000000000000000000000000008152600401610f5e90613c41565b60405180910390fd5b610f716000611cf2565b565b610f7b611869565b73ffffffffffffffffffffffffffffffffffffffff16610f9961103d565b73ffffffffffffffffffffffffffffffffffffffff1614610fef576040517f08c379a0000000000000000000000000000000000000000000000000000000008152600401610fe690613c41565b60405180910390fd5b600060105414611034576040517f08c379a000000000000000000000000000000000000000000000000000000000815260040161102b90613b61565b60405180910390fd5b43600f81905550565b6000600a60009054906101000a900473ffffffffffffffffffffffffffffffffffffffff16905090565b60606001805461107690613f93565b80601f01602080910402602001604051908101604052809291908181526020018280546110a290613f93565b80156110ef5780601f106110c4576101008083540402835291602001916110ef565b820191906000526020600020905b8154815290600101906020018083116110d257829003601f168201915b5050505050905090565b61110b611104611869565b8383611db8565b5050565b61112061111a611869565b8361192a565b61115f576040517f08c379a000000000000000000000000000000000000000000000000000000000815260040161115690613ce1565b60405180910390fd5b61116b84848484611f25565b50505050565b600e60009054906101000a900460ff166111c0576040517f08c379a00000000000000000000000000000000000000000000000000000000081526004016111b790613b01565b60405180910390fd5b80601411611203576040517f08c379a00000000000000000000000000000000000000000000000000000000081526004016111fa90613b41565b60405180910390fd5b61121d8161120f6109f2565b611f8190919063ffffffff16565b600b5411611260576040517f08c379a000000000000000000000000000000000000000000000000000000000815260040161125790613be1565b60405180910390fd5b60005b8181101561129f5760006112756109f2565b905080600b541061128b5761128a3382611f97565b5b50808061129790613fc5565b915050611263565b506000600f541480156112ba5750600b546112b86109f2565b145b156112c75743600f819055505b50565b668e1bc9bf04000081565b60606112e0826117fd565b61131f576040517f08c379a000000000000000000000000000000000000000000000000000000000815260040161131690613c81565b60405180910390fd5b6000611329611fb5565b905060008151116113495760405180602001604052806000815250611374565b8061135384612047565b60405160200161136492919061395e565b6040516020818303038152906040525b915050919050565b60105481565b600d805461138f90613f93565b80601f01602080910402602001604051908101604052809291908181526020018280546113bb90613f93565b80156114085780601f106113dd57610100808354040283529160200191611408565b820191906000526020600020905b8154815290600101906020018083116113eb57829003601f168201915b505050505081565b600b5481565b60007f000000000000000000000000000000000000000000000000000000000000000073ffffffffffffffffffffffffffffffffffffffff1663e3a9db1a836040518263ffffffff1660e01b81526004016114719190613982565b60206040518083038186803b15801561148957600080fd5b505afa15801561149d573d6000803e3d6000fd5b505050506040513d601f19601f820116820180604052508101906114c1919061305c565b9050919050565b600f5481565b6000600560008473ffffffffffffffffffffffffffffffffffffffff1673ffffffffffffffffffffffffffffffffffffffff16815260200190815260200160002060008373ffffffffffffffffffffffffffffffffffffffff1673ffffffffffffffffffffffffffffffffffffffff16815260200190815260200160002060009054906101000a900460ff16905092915050565b6000601054146115a7576040517f08c379a000000000000000000000000000000000000000000000000000000000815260040161159e90613b61565b60405180910390fd5b6000600f5414156115ed576040517f08c379a00000000000000000000000000000000000000000000000000000000081526004016115e490613cc1565b60405180910390fd5b600b54600f544060001c611601919061400e565b60108190555060ff61161e600f54436121f490919063ffffffff16565b111561164957600b546001436116349190613e97565b4060001c611642919061400e565b6010819055505b600060105414156116715761166a6001601054611f8190919063ffffffff16565b6010819055505b565b600e60009054906101000a900460ff1681565b601481565b611693611869565b73ffffffffffffffffffffffffffffffffffffffff166116b161103d565b73ffffffffffffffffffffffffffffffffffffffff1614611707576040517f08c379a00000000000000000000000000000000000000000000000000000000081526004016116fe90613c41565b60405180910390fd5b600073ffffffffffffffffffffffffffffffffffffffff168173ffffffffffffffffffffffffffffffffffffffff161415611777576040517f08c379a000000000000000000000000000000000000000000000000000000000815260040161176e90613a81565b60405180910390fd5b61178081611cf2565b50565b60007f780e9d63000000000000000000000000000000000000000000000000000000007bffffffffffffffffffffffffffffffffffffffffffffffffffffffff1916827bffffffffffffffffffffffffffffffffffffffffffffffffffffffff191614806117f657506117f58261220a565b5b9050919050565b60008073ffffffffffffffffffffffffffffffffffffffff166002600084815260200190815260200160002060009054906101000a900473ffffffffffffffffffffffffffffffffffffffff1673ffffffffffffffffffffffffffffffffffffffff1614159050919050565b600033905090565b816004600083815260200190815260200160002060006101000a81548173ffffffffffffffffffffffffffffffffffffffff021916908373ffffffffffffffffffffffffffffffffffffffff160217905550808273ffffffffffffffffffffffffffffffffffffffff166118e483610d81565b73ffffffffffffffffffffffffffffffffffffffff167f8c5be1e5ebec7d5bd14f71427d1e84f3dd0314c0f7b2291e5b200ac8c7c3b92560405160405180910390a45050565b6000611935826117fd565b611974576040517f08c379a000000000000000000000000000000000000000000000000000000000815260040161196b90613b21565b60405180910390fd5b600061197f83610d81565b90508073ffffffffffffffffffffffffffffffffffffffff168473ffffffffffffffffffffffffffffffffffffffff1614806119ee57508373ffffffffffffffffffffffffffffffffffffffff166119d684610855565b73ffffffffffffffffffffffffffffffffffffffff16145b806119ff57506119fe81856114ce565b5b91505092915050565b8273ffffffffffffffffffffffffffffffffffffffff16611a2882610d81565b73ffffffffffffffffffffffffffffffffffffffff1614611a7e576040517f08c379a0000000000000000000000000000000000000000000000000000000008152600401611a7590613c61565b60405180910390fd5b600073ffffffffffffffffffffffffffffffffffffffff168273ffffffffffffffffffffffffffffffffffffffff161415611aee576040517f08c379a0000000000000000000000000000000000000000000000000000000008152600401611ae590613ac1565b60405180910390fd5b611af98383836122ec565b611b04600082611871565b6001600360008573ffffffffffffffffffffffffffffffffffffffff1673ffffffffffffffffffffffffffffffffffffffff1681526020019081526020016000206000828254611b549190613e97565b925050819055506001600360008473ffffffffffffffffffffffffffffffffffffffff1673ffffffffffffffffffffffffffffffffffffffff1681526020019081526020016000206000828254611bab9190613e10565b92505081905550816002600083815260200190815260200160002060006101000a81548173ffffffffffffffffffffffffffffffffffffffff021916908373ffffffffffffffffffffffffffffffffffffffff160217905550808273ffffffffffffffffffffffffffffffffffffffff168473ffffffffffffffffffffffffffffffffffffffff167fddf252ad1be2c89b69c2b068fc378daa952ba7f163c4a11628f55a4df523b3ef60405160405180910390a4505050565b7f000000000000000000000000000000000000000000000000000000000000000073ffffffffffffffffffffffffffffffffffffffff166351cff8d9826040518263ffffffff1660e01b8152600401611cbd919061399d565b600060405180830381600087803b158015611cd757600080fd5b505af1158015611ceb573d6000803e3d6000fd5b5050505050565b6000600a60009054906101000a900473ffffffffffffffffffffffffffffffffffffffff16905081600a60006101000a81548173ffffffffffffffffffffffffffffffffffffffff021916908373ffffffffffffffffffffffffffffffffffffffff1602179055508173ffffffffffffffffffffffffffffffffffffffff168173ffffffffffffffffffffffffffffffffffffffff167f8be0079c531659141344cd1fd0a4f28419497f9722a3daafe3b4186f6b6457e060405160405180910390a35050565b8173ffffffffffffffffffffffffffffffffffffffff168373ffffffffffffffffffffffffffffffffffffffff161415611e27576040517f08c379a0000000000000000000000000000000000000000000000000000000008152600401611e1e90613ae1565b60405180910390fd5b80600560008573ffffffffffffffffffffffffffffffffffffffff1673ffffffffffffffffffffffffffffffffffffffff16815260200190815260200160002060008473ffffffffffffffffffffffffffffffffffffffff1673ffffffffffffffffffffffffffffffffffffffff16815260200190815260200160002060006101000a81548160ff0219169083151502179055508173ffffffffffffffffffffffffffffffffffffffff168373ffffffffffffffffffffffffffffffffffffffff167f17307eab39ab6107e8899845ad3d59bd9653f200f220920489ca2b5937696c3183604051611f189190613a04565b60405180910390a3505050565b611f30848484611a08565b611f3c848484846122fc565b611f7b576040517f08c379a0000000000000000000000000000000000000000000000000000000008152600401611f7290613a61565b60405180910390fd5b50505050565b60008183611f8f9190613e10565b905092915050565b611fb1828260405180602001604052806000815250612493565b5050565b6060600d8054611fc490613f93565b80601f0160208091040260200160405190810160405280929190818152602001828054611ff090613f93565b801561203d5780601f106120125761010080835404028352916020019161203d565b820191906000526020600020905b81548152906001019060200180831161202057829003601f168201915b5050505050905090565b6060600082141561208f576040518060400160405280600181526020017f300000000000000000000000000000000000000000000000000000000000000081525090506121ef565b600082905060005b600082146120c15780806120aa90613fc5565b915050600a826120ba9190613e66565b9150612097565b60008167ffffffffffffffff811115612103577f4e487b7100000000000000000000000000000000000000000000000000000000600052604160045260246000fd5b6040519080825280601f01601f1916602001820160405280156121355781602001600182028036833780820191505090505b5090505b600085146121e85760018261214e9190613e97565b9150600a8561215d919061400e565b60306121699190613e10565b60f81b8183815181106121a5577f4e487b7100000000000000000000000000000000000000000000000000000000600052603260045260246000fd5b60200101907effffffffffffffffffffffffffffffffffffffffffffffffffffffffffffff1916908160001a905350600a856121e19190613e66565b9450612139565b8093505050505b919050565b600081836122029190613e97565b905092915050565b60007f80ac58cd000000000000000000000000000000000000000000000000000000007bffffffffffffffffffffffffffffffffffffffffffffffffffffffff1916827bffffffffffffffffffffffffffffffffffffffffffffffffffffffff191614806122d557507f5b5e139f000000000000000000000000000000000000000000000000000000007bffffffffffffffffffffffffffffffffffffffffffffffffffffffff1916827bffffffffffffffffffffffffffffffffffffffffffffffffffffffff1916145b806122e557506122e4826124ee565b5b9050919050565b6122f7838383612558565b505050565b600061231d8473ffffffffffffffffffffffffffffffffffffffff1661266c565b15612486578373ffffffffffffffffffffffffffffffffffffffff1663150b7a02612346611869565b8786866040518563ffffffff1660e01b815260040161236894939291906139b8565b602060405180830381600087803b15801561238257600080fd5b505af19250505080156123b357506040513d601f19601f820116820180604052508101906123b09190612fc9565b60015b612436573d80600081146123e3576040519150601f19603f3d011682016040523d82523d6000602084013e6123e8565b606091505b5060008151141561242e576040517f08c379a000000000000000000000000000000000000000000000000000000000815260040161242590613a61565b60405180910390fd5b805181602001fd5b63150b7a0260e01b7bffffffffffffffffffffffffffffffffffffffffffffffffffffffff1916817bffffffffffffffffffffffffffffffffffffffffffffffffffffffff19161491505061248b565b600190505b949350505050565b61249d838361267f565b6124aa60008484846122fc565b6124e9576040517f08c379a00000000000000000000000000000000000000000000000000000000081526004016124e090613a61565b60405180910390fd5b505050565b60007f01ffc9a7000000000000000000000000000000000000000000000000000000007bffffffffffffffffffffffffffffffffffffffffffffffffffffffff1916827bffffffffffffffffffffffffffffffffffffffffffffffffffffffff1916149050919050565b61256383838361284d565b600073ffffffffffffffffffffffffffffffffffffffff168373ffffffffffffffffffffffffffffffffffffffff1614156125a6576125a181612852565b6125e5565b8173ffffffffffffffffffffffffffffffffffffffff168373ffffffffffffffffffffffffffffffffffffffff16146125e4576125e3838261289b565b5b5b600073ffffffffffffffffffffffffffffffffffffffff168273ffffffffffffffffffffffffffffffffffffffff1614156126285761262381612a08565b612667565b8273ffffffffffffffffffffffffffffffffffffffff168273ffffffffffffffffffffffffffffffffffffffff1614612666576126658282612b4b565b5b5b505050565b600080823b905060008111915050919050565b600073ffffffffffffffffffffffffffffffffffffffff168273ffffffffffffffffffffffffffffffffffffffff1614156126ef576040517f08c379a00000000000000000000000000000000000000000000000000000000081526004016126e690613c01565b60405180910390fd5b6126f8816117fd565b15612738576040517f08c379a000000000000000000000000000000000000000000000000000000000815260040161272f90613aa1565b60405180910390fd5b612744600083836122ec565b6001600360008473ffffffffffffffffffffffffffffffffffffffff1673ffffffffffffffffffffffffffffffffffffffff16815260200190815260200160002060008282546127949190613e10565b92505081905550816002600083815260200190815260200160002060006101000a81548173ffffffffffffffffffffffffffffffffffffffff021916908373ffffffffffffffffffffffffffffffffffffffff160217905550808273ffffffffffffffffffffffffffffffffffffffff16600073ffffffffffffffffffffffffffffffffffffffff167fddf252ad1be2c89b69c2b068fc378daa952ba7f163c4a11628f55a4df523b3ef60405160405180910390a45050565b505050565b6008805490506009600083815260200190815260200160002081905550600881908060018154018082558091505060019003906000526020600020016000909190919091505550565b600060016128a884610e33565b6128b29190613e97565b9050600060076000848152602001908152602001600020549050818114612997576000600660008673ffffffffffffffffffffffffffffffffffffffff1673ffffffffffffffffffffffffffffffffffffffff168152602001908152602001600020600084815260200190815260200160002054905080600660008773ffffffffffffffffffffffffffffffffffffffff1673ffffffffffffffffffffffffffffffffffffffff168152602001908152602001600020600084815260200190815260200160002081905550816007600083815260200190815260200160002081905550505b6007600084815260200190815260200160002060009055600660008573ffffffffffffffffffffffffffffffffffffffff1673ffffffffffffffffffffffffffffffffffffffff16815260200190815260200160002060008381526020019081526020016000206000905550505050565b60006001600880549050612a1c9190613e97565b9050600060096000848152602001908152602001600020549050600060088381548110612a72577f4e487b7100000000000000000000000000000000000000000000000000000000600052603260045260246000fd5b906000526020600020015490508060088381548110612aba577f4e487b7100000000000000000000000000000000000000000000000000000000600052603260045260246000fd5b906000526020600020018190555081600960008381526020019081526020016000208190555060096000858152602001908152602001600020600090556008805480612b2f577f4e487b7100000000000000000000000000000000000000000000000000000000600052603160045260246000fd5b6001900381819060005260206000200160009055905550505050565b6000612b5683610e33565b905081600660008573ffffffffffffffffffffffffffffffffffffffff1673ffffffffffffffffffffffffffffffffffffffff168152602001908152602001600020600083815260200190815260200160002081905550806007600084815260200190815260200160002081905550505050565b828054612bd690613f93565b90600052602060002090601f016020900481019282612bf85760008555612c3f565b82601f10612c1157805160ff1916838001178555612c3f565b82800160010185558215612c3f579182015b82811115612c3e578251825591602001919060010190612c23565b5b509050612c4c9190612c50565b5090565b5b80821115612c69576000816000905550600101612c51565b5090565b6000612c80612c7b84613d6d565b613d3c565b905082815260208101848484011115612c9857600080fd5b612ca3848285613f51565b509392505050565b6000612cbe612cb984613d9d565b613d3c565b905082815260208101848484011115612cd657600080fd5b612ce1848285613f51565b509392505050565b600081359050612cf88161410c565b92915050565b600081359050612d0d81614123565b92915050565b600081359050612d228161413a565b92915050565b600081359050612d3781614151565b92915050565b600081519050612d4c81614151565b92915050565b600082601f830112612d6357600080fd5b8135612d73848260208601612c6d565b91505092915050565b600082601f830112612d8d57600080fd5b8135612d9d848260208601612cab565b91505092915050565b600081359050612db581614168565b92915050565b600081519050612dca81614168565b92915050565b600060208284031215612de257600080fd5b6000612df084828501612ce9565b91505092915050565b600060208284031215612e0b57600080fd5b6000612e1984828501612cfe565b91505092915050565b60008060408385031215612e3557600080fd5b6000612e4385828601612ce9565b9250506020612e5485828601612ce9565b9150509250929050565b600080600060608486031215612e7357600080fd5b6000612e8186828701612ce9565b9350506020612e9286828701612ce9565b9250506040612ea386828701612da6565b9150509250925092565b60008060008060808587031215612ec357600080fd5b6000612ed187828801612ce9565b9450506020612ee287828801612ce9565b9350506040612ef387828801612da6565b925050606085013567ffffffffffffffff811115612f1057600080fd5b612f1c87828801612d52565b91505092959194509250565b60008060408385031215612f3b57600080fd5b6000612f4985828601612ce9565b9250506020612f5a85828601612d13565b9150509250929050565b60008060408385031215612f7757600080fd5b6000612f8585828601612ce9565b9250506020612f9685828601612da6565b9150509250929050565b600060208284031215612fb257600080fd5b6000612fc084828501612d28565b91505092915050565b600060208284031215612fdb57600080fd5b6000612fe984828501612d3d565b91505092915050565b60006020828403121561300457600080fd5b600082013567ffffffffffffffff81111561301e57600080fd5b61302a84828501612d7c565b91505092915050565b60006020828403121561304557600080fd5b600061305384828501612da6565b91505092915050565b60006020828403121561306e57600080fd5b600061307c84828501612dbb565b91505092915050565b61308e81613edd565b82525050565b61309d81613ecb565b82525050565b6130ac81613eef565b82525050565b60006130bd82613dcd565b6130c78185613de3565b93506130d7818560208601613f60565b6130e0816140fb565b840191505092915050565b60006130f682613dd8565b6131008185613df4565b9350613110818560208601613f60565b613119816140fb565b840191505092915050565b600061312f82613dd8565b6131398185613e05565b9350613149818560208601613f60565b80840191505092915050565b6000613162602b83613df4565b91507f455243373231456e756d657261626c653a206f776e657220696e646578206f7560008301527f74206f6620626f756e64730000000000000000000000000000000000000000006020830152604082019050919050565b60006131c8603283613df4565b91507f4552433732313a207472616e7366657220746f206e6f6e20455243373231526560008301527f63656976657220696d706c656d656e74657200000000000000000000000000006020830152604082019050919050565b600061322e602683613df4565b91507f4f776e61626c653a206e6577206f776e657220697320746865207a65726f206160008301527f64647265737300000000000000000000000000000000000000000000000000006020830152604082019050919050565b6000613294601c83613df4565b91507f4552433732313a20746f6b656e20616c7265616479206d696e746564000000006000830152602082019050919050565b60006132d4602483613df4565b91507f4552433732313a207472616e7366657220746f20746865207a65726f2061646460008301527f72657373000000000000000000000000000000000000000000000000000000006020830152604082019050919050565b600061333a601983613df4565b91507f4552433732313a20617070726f766520746f2063616c6c6572000000000000006000830152602082019050919050565b600061337a601b83613df4565b91507f53616c65206d7573742062652061637469766520746f206d696e7400000000006000830152602082019050919050565b60006133ba602c83613df4565b91507f4552433732313a206f70657261746f7220717565727920666f72206e6f6e657860008301527f697374656e7420746f6b656e00000000000000000000000000000000000000006020830152604082019050919050565b6000613420602183613df4565b91507f43616e206f6e6c79206d696e7420323020746f6b656e7320617420612074696d60008301527f65000000000000000000000000000000000000000000000000000000000000006020830152604082019050919050565b6000613486601d83613df4565b91507f5374617274696e6720696e64657820697320616c7265616479207365740000006000830152602082019050919050565b60006134c6603883613df4565b91507f4552433732313a20617070726f76652063616c6c6572206973206e6f74206f7760008301527f6e6572206e6f7220617070726f76656420666f7220616c6c00000000000000006020830152604082019050919050565b600061352c602a83613df4565b91507f4552433732313a2062616c616e636520717565727920666f7220746865207a6560008301527f726f2061646472657373000000000000000000000000000000000000000000006020830152604082019050919050565b6000613592602983613df4565b91507f4552433732313a206f776e657220717565727920666f72206e6f6e657869737460008301527f656e7420746f6b656e00000000000000000000000000000000000000000000006020830152604082019050919050565b60006135f8602083613df4565b91507f507572636861736520776f756c6420657863656564206d617820737570706c796000830152602082019050919050565b6000613638602083613df4565b91507f4552433732313a206d696e7420746f20746865207a65726f20616464726573736000830152602082019050919050565b6000613678602c83613df4565b91507f4552433732313a20617070726f76656420717565727920666f72206e6f6e657860008301527f697374656e7420746f6b656e00000000000000000000000000000000000000006020830152604082019050919050565b60006136de602083613df4565b91507f4f776e61626c653a2063616c6c6572206973206e6f7420746865206f776e65726000830152602082019050919050565b600061371e602983613df4565b91507f4552433732313a207472616e73666572206f6620746f6b656e2074686174206960008301527f73206e6f74206f776e00000000000000000000000000000000000000000000006020830152604082019050919050565b6000613784602f83613df4565b91507f4552433732314d657461646174613a2055524920717565727920666f72206e6f60008301527f6e6578697374656e7420746f6b656e00000000000000000000000000000000006020830152604082019050919050565b60006137ea602183613df4565b91507f4552433732313a20617070726f76616c20746f2063757272656e74206f776e6560008301527f72000000000000000000000000000000000000000000000000000000000000006020830152604082019050919050565b6000613850602083613df4565b91507f5374617274696e6720696e64657820626c6f636b206d757374206265207365746000830152602082019050919050565b6000613890603183613df4565b91507f4552433732313a207472616e736665722063616c6c6572206973206e6f74206f60008301527f776e6572206e6f7220617070726f7665640000000000000000000000000000006020830152604082019050919050565b60006138f6602c83613df4565b91507f455243373231456e756d657261626c653a20676c6f62616c20696e646578206f60008301527f7574206f6620626f756e647300000000000000000000000000000000000000006020830152604082019050919050565b61395881613f47565b82525050565b600061396a8285613124565b91506139768284613124565b91508190509392505050565b60006020820190506139976000830184613094565b92915050565b60006020820190506139b26000830184613085565b92915050565b60006080820190506139cd6000830187613094565b6139da6020830186613094565b6139e7604083018561394f565b81810360608301526139f981846130b2565b905095945050505050565b6000602082019050613a1960008301846130a3565b92915050565b60006020820190508181036000830152613a3981846130eb565b905092915050565b60006020820190508181036000830152613a5a81613155565b9050919050565b60006020820190508181036000830152613a7a816131bb565b9050919050565b60006020820190508181036000830152613a9a81613221565b9050919050565b60006020820190508181036000830152613aba81613287565b9050919050565b60006020820190508181036000830152613ada816132c7565b9050919050565b60006020820190508181036000830152613afa8161332d565b9050919050565b60006020820190508181036000830152613b1a8161336d565b9050919050565b60006020820190508181036000830152613b3a816133ad565b9050919050565b60006020820190508181036000830152613b5a81613413565b9050919050565b60006020820190508181036000830152613b7a81613479565b9050919050565b60006020820190508181036000830152613b9a816134b9565b9050919050565b60006020820190508181036000830152613bba8161351f565b9050919050565b60006020820190508181036000830152613bda81613585565b9050919050565b60006020820190508181036000830152613bfa816135eb565b9050919050565b60006020820190508181036000830152613c1a8161362b565b9050919050565b60006020820190508181036000830152613c3a8161366b565b9050919050565b60006020820190508181036000830152613c5a816136d1565b9050919050565b60006020820190508181036000830152613c7a81613711565b9050919050565b60006020820190508181036000830152613c9a81613777565b9050919050565b60006020820190508181036000830152613cba816137dd565b9050919050565b60006020820190508181036000830152613cda81613843565b9050919050565b60006020820190508181036000830152613cfa81613883565b9050919050565b60006020820190508181036000830152613d1a816138e9565b9050919050565b6000602082019050613d36600083018461394f565b92915050565b6000604051905081810181811067ffffffffffffffff82111715613d6357613d626140cc565b5b8060405250919050565b600067ffffffffffffffff821115613d8857613d876140cc565b5b601f19601f8301169050602081019050919050565b600067ffffffffffffffff821115613db857613db76140cc565b5b601f19601f8301169050602081019050919050565b600081519050919050565b600081519050919050565b600082825260208201905092915050565b600082825260208201905092915050565b600081905092915050565b6000613e1b82613f47565b9150613e2683613f47565b9250827fffffffffffffffffffffffffffffffffffffffffffffffffffffffffffffffff03821115613e5b57613e5a61403f565b5b828201905092915050565b6000613e7182613f47565b9150613e7c83613f47565b925082613e8c57613e8b61406e565b5b828204905092915050565b6000613ea282613f47565b9150613ead83613f47565b925082821015613ec057613ebf61403f565b5b828203905092915050565b6000613ed682613f27565b9050919050565b6000613ee882613f27565b9050919050565b60008115159050919050565b60007fffffffff0000000000000000000000000000000000000000000000000000000082169050919050565b600073ffffffffffffffffffffffffffffffffffffffff82169050919050565b6000819050919050565b82818337600083830152505050565b60005b83811015613f7e578082015181840152602081019050613f63565b83811115613f8d576000848401525b50505050565b60006002820490506001821680613fab57607f821691505b60208210811415613fbf57613fbe61409d565b5b50919050565b6000613fd082613f47565b91507fffffffffffffffffffffffffffffffffffffffffffffffffffffffffffffffff8214156140035761400261403f565b5b600182019050919050565b600061401982613f47565b915061402483613f47565b9250826140345761403361406e565b5b828206905092915050565b7f4e487b7100000000000000000000000000000000000000000000000000000000600052601160045260246000fd5b7f4e487b7100000000000000000000000000000000000000000000000000000000600052601260045260246000fd5b7f4e487b7100000000000000000000000000000000000000000000000000000000600052602260045260246000fd5b7f4e487b7100000000000000000000000000000000000000000000000000000000600052604160045260246000fd5b6000601f19601f8301169050919050565b61411581613ecb565b811461412057600080fd5b50565b61412c81613edd565b811461413757600080fd5b50565b61414381613eef565b811461414e57600080fd5b50565b61415a81613efb565b811461416557600080fd5b50565b61417181613f47565b811461417c57600080fd5b5056fea2646970667358221220556eaf14d60b8fb226f12ee9f9023d03372224539391f0979af8af6d509aa68b64736f6c63430008000033608060405234801561001057600080fd5b5061002d61002261003260201b60201c565b61003a60201b60201c565b6100fe565b600033905090565b60008060009054906101000a900473ffffffffffffffffffffffffffffffffffffffff169050816000806101000a81548173ffffffffffffffffffffffffffffffffffffffff021916908373ffffffffffffffffffffffffffffffffffffffff1602179055508173ffffffffffffffffffffffffffffffffffffffff168173ffffffffffffffffffffffffffffffffffffffff167f8be0079c531659141344cd1fd0a4f28419497f9722a3daafe3b4186f6b6457e060405160405180910390a35050565b610bc08061010d6000396000f3fe6080604052600436106100555760003560e01c806351cff8d91461005a578063715018a6146100835780638da5cb5b1461009a578063e3a9db1a146100c5578063f2fde38b14610102578063f340fa011461012b575b600080fd5b34801561006657600080fd5b50610081600480360381019061007c91906107f5565b610147565b005b34801561008f57600080fd5b506100986102c7565b005b3480156100a657600080fd5b506100af61034f565b6040516100bc91906109b7565b60405180910390f35b3480156100d157600080fd5b506100ec60048036038101906100e791906107cc565b610378565b6040516100f99190610a52565b60405180910390f35b34801561010e57600080fd5b50610129600480360381019061012491906107cc565b6103c1565b005b610145600480360381019061014091906107cc565b6104b9565b005b61014f6105e2565b73ffffffffffffffffffffffffffffffffffffffff1661016d61034f565b73ffffffffffffffffffffffffffffffffffffffff16146101c3576040517f08c379a00000000000000000000000000000000000000000000000000000000081526004016101ba90610a32565b60405180910390fd5b6000600160008373ffffffffffffffffffffffffffffffffffffffff1673ffffffffffffffffffffffffffffffffffffffff1681526020019081526020016000205490506000600160008473ffffffffffffffffffffffffffffffffffffffff1673ffffffffffffffffffffffffffffffffffffffff16815260200190815260200160002081905550610275818373ffffffffffffffffffffffffffffffffffffffff166105ea90919063ffffffff16565b8173ffffffffffffffffffffffffffffffffffffffff167f7084f5476618d8e60b11ef0d7d3f06914655adb8793e28ff7f018d4c76d505d5826040516102bb9190610a52565b60405180910390a25050565b6102cf6105e2565b73ffffffffffffffffffffffffffffffffffffffff166102ed61034f565b73ffffffffffffffffffffffffffffffffffffffff1614610343576040517f08c379a000000000000000000000000000000000000000000000000000000000815260040161033a90610a32565b60405180910390fd5b61034d60006106de565b565b60008060009054906101000a900473ffffffffffffffffffffffffffffffffffffffff16905090565b6000600160008373ffffffffffffffffffffffffffffffffffffffff1673ffffffffffffffffffffffffffffffffffffffff168152602001908152602001600020549050919050565b6103c96105e2565b73ffffffffffffffffffffffffffffffffffffffff166103e761034f565b73ffffffffffffffffffffffffffffffffffffffff161461043d576040517f08c379a000000000000000000000000000000000000000000000000000000000815260040161043490610a32565b60405180910390fd5b600073ffffffffffffffffffffffffffffffffffffffff168173ffffffffffffffffffffffffffffffffffffffff1614156104ad576040517f08c379a00000000000000000000000000000000000000000000000000000000081526004016104a4906109d2565b60405180910390fd5b6104b6816106de565b50565b6104c16105e2565b73ffffffffffffffffffffffffffffffffffffffff166104df61034f565b73ffffffffffffffffffffffffffffffffffffffff1614610535576040517f08c379a000000000000000000000000000000000000000000000000000000000815260040161052c90610a32565b60405180910390fd5b600034905080600160008473ffffffffffffffffffffffffffffffffffffffff1673ffffffffffffffffffffffffffffffffffffffff16815260200190815260200160002060008282546105899190610a89565b925050819055508173ffffffffffffffffffffffffffffffffffffffff167f2da466a7b24304f47e87fa2e1e5a81b9831ce54fec19055ce277ca2f39ba42c4826040516105d69190610a52565b60405180910390a25050565b600033905090565b8047101561062d576040517f08c379a000000000000000000000000000000000000000000000000000000000815260040161062490610a12565b60405180910390fd5b60008273ffffffffffffffffffffffffffffffffffffffff1682604051610653906109a2565b60006040518083038185875af1925050503d8060008114610690576040519150601f19603f3d011682016040523d82523d6000602084013e610695565b606091505b50509050806106d9576040517f08c379a00000000000000000000000000000000000000000000000000000000081526004016106d0906109f2565b60405180910390fd5b505050565b60008060009054906101000a900473ffffffffffffffffffffffffffffffffffffffff169050816000806101000a81548173ffffffffffffffffffffffffffffffffffffffff021916908373ffffffffffffffffffffffffffffffffffffffff1602179055508173ffffffffffffffffffffffffffffffffffffffff168173ffffffffffffffffffffffffffffffffffffffff167f8be0079c531659141344cd1fd0a4f28419497f9722a3daafe3b4186f6b6457e060405160405180910390a35050565b6000813590506107b181610b5c565b92915050565b6000813590506107c681610b73565b92915050565b6000602082840312156107de57600080fd5b60006107ec848285016107a2565b91505092915050565b60006020828403121561080757600080fd5b6000610815848285016107b7565b91505092915050565b61082781610adf565b82525050565b600061083a602683610a78565b91507f4f776e61626c653a206e6577206f776e657220697320746865207a65726f206160008301527f64647265737300000000000000000000000000000000000000000000000000006020830152604082019050919050565b60006108a0603a83610a78565b91507f416464726573733a20756e61626c6520746f2073656e642076616c75652c207260008301527f6563697069656e74206d617920686176652072657665727465640000000000006020830152604082019050919050565b6000610906601d83610a78565b91507f416464726573733a20696e73756666696369656e742062616c616e63650000006000830152602082019050919050565b6000610946602083610a78565b91507f4f776e61626c653a2063616c6c6572206973206e6f7420746865206f776e65726000830152602082019050919050565b6000610986600083610a6d565b9150600082019050919050565b61099c81610b23565b82525050565b60006109ad82610979565b9150819050919050565b60006020820190506109cc600083018461081e565b92915050565b600060208201905081810360008301526109eb8161082d565b9050919050565b60006020820190508181036000830152610a0b81610893565b9050919050565b60006020820190508181036000830152610a2b816108f9565b9050919050565b60006020820190508181036000830152610a4b81610939565b9050919050565b6000602082019050610a676000830184610993565b92915050565b600081905092915050565b600082825260208201905092915050565b6000610a9482610b23565b9150610a9f83610b23565b9250827fffffffffffffffffffffffffffffffffffffffffffffffffffffffffffffffff03821115610ad457610ad3610b2d565b5b828201905092915050565b6000610aea82610b03565b9050919050565b6000610afc82610b03565b9050919050565b600073ffffffffffffffffffffffffffffffffffffffff82169050919050565b6000819050919050565b7f4e487b7100000000000000000000000000000000000000000000000000000000600052601160045260246000fd5b610b6581610adf565b8114610b7057600080fd5b50565b610b7c81610af1565b8114610b8757600080fd5b5056fea26469706673582212204e8ab707adc9ee645b828ddc4f791bd246fea3a80e8eeba1ce50ca1d3c28c2cb64736f6c63430008000033",
  "linkReferences": {},
  "deployedLinkReferences": {}
}