{
  "_format": "hh-sol-artifact-1",
  "contractName": "FULLNFT",
  "sourceName": "contracts/AZNFT.sol",
  "abi": [
    {
      "inputs": [
        {
          "internalType": "string",
          "name": "_name",
          "type": "string"
        },
        {
          "internalType": "string",
          "name": "_symbol",
          "type": "string"
        },
        {
          "internalType": "string",
          "name": "_notRevealedTokenURI",
          "type": "string"
        },
        {
          "internalType": "string",
          "name": "_contractMetadataURI",
          "type": "string"
        },
        {
          "internalType": "uint256",
          "name": "_maxNftSupply",
          "type": "uint256"
        }
      ],
      "stateMutability": "nonpayable",
      "type": "constructor"
    },
    {
      "anonymous": false,
      "inputs": [
        {
          "indexed": true,
          "internalType": "address",
          "name": "owner",
          "type": "address"
        },
        {
          "indexed": true,
          "internalType": "address",
          "name": "approved",
          "type": "address"
        },
        {
          "indexed": true,
          "internalType": "uint256",
          "name": "tokenId",
          "type": "uint256"
        }
      ],
      "name": "Approval",
      "type": "event"
    },
    {
      "anonymous": false,
      "inputs": [
        {
          "indexed": true,
          "internalType": "address",
          "name": "owner",
          "type": "address"
        },
        {
          "indexed": true,
          "internalType": "address",
          "name": "operator",
          "type": "address"
        },
        {
          "indexed": false,
          "internalType": "bool",
          "name": "approved",
          "type": "bool"
        }
      ],
      "name": "ApprovalForAll",
      "type": "event"
    },
    {
      "anonymous": false,
      "inputs": [
        {
          "indexed": false,
          "internalType": "address",
          "name": "_by",
          "type": "address"
        },
        {
          "indexed": false,
          "internalType": "string",
          "name": "_oldVal",
          "type": "string"
        },
        {
          "indexed": false,
          "internalType": "string",
          "name": "_newVal",
          "type": "string"
        }
      ],
      "name": "BaseURIChanged",
      "type": "event"
    },
    {
      "anonymous": false,
      "inputs": [
        {
          "indexed": true,
          "internalType": "address",
          "name": "previousOwner",
          "type": "address"
        },
        {
          "indexed": true,
          "internalType": "address",
          "name": "newOwner",
          "type": "address"
        }
      ],
      "name": "OwnershipTransferred",
      "type": "event"
    },
    {
      "anonymous": false,
      "inputs": [
        {
          "indexed": false,
          "internalType": "address",
          "name": "_by",
          "type": "address"
        },
        {
          "indexed": false,
          "internalType": "string",
          "name": "_provenance",
          "type": "string"
        }
      ],
      "name": "ProvenanceHashChanged",
      "type": "event"
    },
    {
      "anonymous": false,
      "inputs": [
        {
          "indexed": false,
          "internalType": "address",
          "name": "_by",
          "type": "address"
        },
        {
          "indexed": false,
          "internalType": "uint256",
          "name": "_newTimestamp",
          "type": "uint256"
        }
      ],
      "name": "RevealTimestampChanged",
      "type": "event"
    },
    {
      "anonymous": false,
      "inputs": [
        {
          "indexed": false,
          "internalType": "address",
          "name": "_by",
          "type": "address"
        },
        {
          "indexed": false,
          "internalType": "string",
          "name": "_saleType",
          "type": "string"
        },
        {
          "indexed": false,
          "internalType": "bool",
          "name": "_newSaleState",
          "type": "bool"
        }
      ],
      "name": "SaleStateChanged",
      "type": "event"
    },
    {
      "anonymous": false,
      "inputs": [
        {
          "indexed": true,
          "internalType": "address",
          "name": "from",
          "type": "address"
        },
        {
          "indexed": true,
          "internalType": "address",
          "name": "to",
          "type": "address"
        },
        {
          "indexed": true,
          "internalType": "uint256",
          "name": "tokenId",
          "type": "uint256"
        }
      ],
      "name": "Transfer",
      "type": "event"
    },
    {
      "inputs": [],
      "name": "BASE_EXTENSION",
      "outputs": [
        {
          "internalType": "string",
          "name": "",
          "type": "string"
        }
      ],
      "stateMutability": "view",
      "type": "function"
    },
    {
      "inputs": [],
      "name": "BASE_TOKEN_URI",
      "outputs": [
        {
          "internalType": "string",
          "name": "",
          "type": "string"
        }
      ],
      "stateMutability": "view",
      "type": "function"
    },
    {
      "inputs": [],
      "name": "CONTRACT_METADATA_URI",
      "outputs": [
        {
          "internalType": "string",
          "name": "",
          "type": "string"
        }
      ],
      "stateMutability": "view",
      "type": "function"
    },
    {
      "inputs": [],
      "name": "MAX_MINT_QTY",
      "outputs": [
        {
          "internalType": "uint8",
          "name": "",
          "type": "uint8"
        }
      ],
      "stateMutability": "view",
      "type": "function"
    },
    {
      "inputs": [],
      "name": "MAX_MINT_QTY_PRESALE",
      "outputs": [
        {
          "internalType": "uint8",
          "name": "",
          "type": "uint8"
        }
      ],
      "stateMutability": "view",
      "type": "function"
    },
    {
      "inputs": [],
      "name": "MAX_SUPPLY",
      "outputs": [
        {
          "internalType": "uint256",
          "name": "",
          "type": "uint256"
        }
      ],
      "stateMutability": "view",
      "type": "function"
    },
    {
      "inputs": [],
      "name": "MINT_PRICE",
      "outputs": [
        {
          "internalType": "uint256",
          "name": "",
          "type": "uint256"
        }
      ],
      "stateMutability": "view",
      "type": "function"
    },
    {
      "inputs": [],
      "name": "NOT_REVEALED_TOKEN_URI",
      "outputs": [
        {
          "internalType": "string",
          "name": "",
          "type": "string"
        }
      ],
      "stateMutability": "view",
      "type": "function"
    },
    {
      "inputs": [],
      "name": "PROVENANCE",
      "outputs": [
        {
          "internalType": "string",
          "name": "",
          "type": "string"
        }
      ],
      "stateMutability": "view",
      "type": "function"
    },
    {
      "inputs": [],
      "name": "REVEAL_TIMESTAMP",
      "outputs": [
        {
          "internalType": "uint256",
          "name": "",
          "type": "uint256"
        }
      ],
      "stateMutability": "view",
      "type": "function"
    },
    {
      "inputs": [
        {
          "internalType": "address[]",
          "name": "addrs",
          "type": "address[]"
        }
      ],
      "name": "addAddressesToWhitelist",
      "outputs": [],
      "stateMutability": "nonpayable",
      "type": "function"
    },
    {
      "inputs": [
        {
          "internalType": "address",
          "name": "_addressToAirdrop",
          "type": "address"
        }
      ],
      "name": "airdropMint",
      "outputs": [],
      "stateMutability": "nonpayable",
      "type": "function"
    },
    {
      "inputs": [
        {
          "internalType": "address",
          "name": "to",
          "type": "address"
        },
        {
          "internalType": "uint256",
          "name": "tokenId",
          "type": "uint256"
        }
      ],
      "name": "approve",
      "outputs": [],
      "stateMutability": "nonpayable",
      "type": "function"
    },
    {
      "inputs": [
        {
          "internalType": "address",
          "name": "owner",
          "type": "address"
        }
      ],
      "name": "balanceOf",
      "outputs": [
        {
          "internalType": "uint256",
          "name": "",
          "type": "uint256"
        }
      ],
      "stateMutability": "view",
      "type": "function"
    },
    {
      "inputs": [],
      "name": "contractURI",
      "outputs": [
        {
          "internalType": "string",
          "name": "",
          "type": "string"
        }
      ],
      "stateMutability": "view",
      "type": "function"
    },
    {
      "inputs": [],
      "name": "flipPresaleState",
      "outputs": [],
      "stateMutability": "nonpayable",
      "type": "function"
    },
    {
      "inputs": [],
      "name": "flipPublicSaleState",
      "outputs": [],
      "stateMutability": "nonpayable",
      "type": "function"
    },
    {
      "inputs": [],
      "name": "flipRevealed",
      "outputs": [],
      "stateMutability": "nonpayable",
      "type": "function"
    },
    {
      "inputs": [
        {
          "internalType": "uint256",
          "name": "tokenId",
          "type": "uint256"
        }
      ],
      "name": "getApproved",
      "outputs": [
        {
          "internalType": "address",
          "name": "",
          "type": "address"
        }
      ],
      "stateMutability": "view",
      "type": "function"
    },
    {
      "inputs": [
        {
          "internalType": "address",
          "name": "owner",
          "type": "address"
        },
        {
          "internalType": "address",
          "name": "operator",
          "type": "address"
        }
      ],
      "name": "isApprovedForAll",
      "outputs": [
        {
          "internalType": "bool",
          "name": "",
          "type": "bool"
        }
      ],
      "stateMutability": "view",
      "type": "function"
    },
    {
      "inputs": [],
      "name": "isPresaleActive",
      "outputs": [
        {
          "internalType": "bool",
          "name": "",
          "type": "bool"
        }
      ],
      "stateMutability": "view",
      "type": "function"
    },
    {
      "inputs": [],
      "name": "isPublicSaleActive",
      "outputs": [
        {
          "internalType": "bool",
          "name": "",
          "type": "bool"
        }
      ],
      "stateMutability": "view",
      "type": "function"
    },
    {
      "inputs": [
        {
          "internalType": "address",
          "name": "addr",
          "type": "address"
        }
      ],
      "name": "isWhitelisted",
      "outputs": [
        {
          "internalType": "bool",
          "name": "isWhiteListed",
          "type": "bool"
        }
      ],
      "stateMutability": "view",
      "type": "function"
    },
    {
      "inputs": [],
      "name": "name",
      "outputs": [
        {
          "internalType": "string",
          "name": "",
          "type": "string"
        }
      ],
      "stateMutability": "view",
      "type": "function"
    },
    {
      "inputs": [],
      "name": "owner",
      "outputs": [
        {
          "internalType": "address",
          "name": "",
          "type": "address"
        }
      ],
      "stateMutability": "view",
      "type": "function"
    },
    {
      "inputs": [
        {
          "internalType": "uint256",
          "name": "tokenId",
          "type": "uint256"
        }
      ],
      "name": "ownerOf",
      "outputs": [
        {
          "internalType": "address",
          "name": "",
          "type": "address"
        }
      ],
      "stateMutability": "view",
      "type": "function"
    },
    {
      "inputs": [
        {
          "internalType": "address",
          "name": "dest",
          "type": "address"
        }
      ],
      "name": "payments",
      "outputs": [
        {
          "internalType": "uint256",
          "name": "",
          "type": "uint256"
        }
      ],
      "stateMutability": "view",
      "type": "function"
    },
    {
      "inputs": [
        {
          "internalType": "uint256",
          "name": "numberOfTokens",
          "type": "uint256"
        }
      ],
      "name": "presaleMint",
      "outputs": [],
      "stateMutability": "payable",
      "type": "function"
    },
    {
      "inputs": [
        {
          "internalType": "uint256",
          "name": "numberOfTokens",
          "type": "uint256"
        }
      ],
      "name": "publicMint",
      "outputs": [],
      "stateMutability": "payable",
      "type": "function"
    },
    {
      "inputs": [],
      "name": "renounceOwnership",
      "outputs": [],
      "stateMutability": "nonpayable",
      "type": "function"
    },
    {
      "inputs": [
        {
          "internalType": "uint256",
          "name": "_tokensToReserve",
          "type": "uint256"
        }
      ],
      "name": "reserveToken",
      "outputs": [],
      "stateMutability": "nonpayable",
      "type": "function"
    },
    {
      "inputs": [],
      "name": "revealed",
      "outputs": [
        {
          "internalType": "bool",
          "name": "",
          "type": "bool"
        }
      ],
      "stateMutability": "view",
      "type": "function"
    },
    {
      "inputs": [
        {
          "internalType": "address",
          "name": "from",
          "type": "address"
        },
        {
          "internalType": "address",
          "name": "to",
          "type": "address"
        },
        {
          "internalType": "uint256",
          "name": "tokenId",
          "type": "uint256"
        }
      ],
      "name": "safeTransferFrom",
      "outputs": [],
      "stateMutability": "nonpayable",
      "type": "function"
    },
    {
      "inputs": [
        {
          "internalType": "address",
          "name": "from",
          "type": "address"
        },
        {
          "internalType": "address",
          "name": "to",
          "type": "address"
        },
        {
          "internalType": "uint256",
          "name": "tokenId",
          "type": "uint256"
        },
        {
          "internalType": "bytes",
          "name": "_data",
          "type": "bytes"
        }
      ],
      "name": "safeTransferFrom",
      "outputs": [],
      "stateMutability": "nonpayable",
      "type": "function"
    },
    {
      "inputs": [
        {
          "internalType": "address",
          "name": "operator",
          "type": "address"
        },
        {
          "internalType": "bool",
          "name": "approved",
          "type": "bool"
        }
      ],
      "name": "setApprovalForAll",
      "outputs": [],
      "stateMutability": "nonpayable",
      "type": "function"
    },
    {
      "inputs": [
        {
          "internalType": "string",
          "name": "_baseTokenURI",
          "type": "string"
        }
      ],
      "name": "setBaseTokenURI",
      "outputs": [],
      "stateMutability": "nonpayable",
      "type": "function"
    },
    {
      "inputs": [
        {
          "internalType": "string",
          "name": "_contractMetadataURI",
          "type": "string"
        }
      ],
      "name": "setContractMetadataURI",
      "outputs": [],
      "stateMutability": "nonpayable",
      "type": "function"
    },
    {
      "inputs": [
        {
          "internalType": "string",
          "name": "_notRevealedTokenURI",
          "type": "string"
        }
      ],
      "name": "setNotRevealedTokenURI",
      "outputs": [],
      "stateMutability": "nonpayable",
      "type": "function"
    },
    {
      "inputs": [
        {
          "internalType": "string",
          "name": "_provenanceHash",
          "type": "string"
        }
      ],
      "name": "setProvenanceHash",
      "outputs": [],
      "stateMutability": "nonpayable",
      "type": "function"
    },
    {
      "inputs": [
        {
          "internalType": "uint256",
          "name": "_revealTimestampInSec",
          "type": "uint256"
        }
      ],
      "name": "setRevealTimestamp",
      "outputs": [],
      "stateMutability": "nonpayable",
      "type": "function"
    },
    {
      "inputs": [
        {
          "internalType": "bytes4",
          "name": "interfaceId",
          "type": "bytes4"
        }
      ],
      "name": "supportsInterface",
      "outputs": [
        {
          "internalType": "bool",
          "name": "",
          "type": "bool"
        }
      ],
      "stateMutability": "view",
      "type": "function"
    },
    {
      "inputs": [],
      "name": "symbol",
      "outputs": [
        {
          "internalType": "string",
          "name": "",
          "type": "string"
        }
      ],
      "stateMutability": "view",
      "type": "function"
    },
    {
      "inputs": [
        {
          "internalType": "uint256",
          "name": "index",
          "type": "uint256"
        }
      ],
      "name": "tokenByIndex",
      "outputs": [
        {
          "internalType": "uint256",
          "name": "",
          "type": "uint256"
        }
      ],
      "stateMutability": "view",
      "type": "function"
    },
    {
      "inputs": [
        {
          "internalType": "address",
          "name": "owner",
          "type": "address"
        },
        {
          "internalType": "uint256",
          "name": "index",
          "type": "uint256"
        }
      ],
      "name": "tokenOfOwnerByIndex",
      "outputs": [
        {
          "internalType": "uint256",
          "name": "",
          "type": "uint256"
        }
      ],
      "stateMutability": "view",
      "type": "function"
    },
    {
      "inputs": [
        {
          "internalType": "uint256",
          "name": "tokenId",
          "type": "uint256"
        }
      ],
      "name": "tokenURI",
      "outputs": [
        {
          "internalType": "string",
          "name": "",
          "type": "string"
        }
      ],
      "stateMutability": "view",
      "type": "function"
    },
    {
      "inputs": [],
      "name": "totalSupply",
      "outputs": [
        {
          "internalType": "uint256",
          "name": "",
          "type": "uint256"
        }
      ],
      "stateMutability": "view",
      "type": "function"
    },
    {
      "inputs": [
        {
          "internalType": "address",
          "name": "from",
          "type": "address"
        },
        {
          "internalType": "address",
          "name": "to",
          "type": "address"
        },
        {
          "internalType": "uint256",
          "name": "tokenId",
          "type": "uint256"
        }
      ],
      "name": "transferFrom",
      "outputs": [],
      "stateMutability": "nonpayable",
      "type": "function"
    },
    {
      "inputs": [
        {
          "internalType": "address",
          "name": "newOwner",
          "type": "address"
        }
      ],
      "name": "transferOwnership",
      "outputs": [],
      "stateMutability": "nonpayable",
      "type": "function"
    },
    {
      "inputs": [
        {
          "internalType": "address",
          "name": "",
          "type": "address"
        }
      ],
      "name": "whitelist",
      "outputs": [
        {
          "internalType": "address",
          "name": "addr",
          "type": "address"
        },
        {
          "internalType": "uint256",
          "name": "hasMinted",
          "type": "uint256"
        }
      ],
      "stateMutability": "view",
      "type": "function"
    },
    {
      "inputs": [
        {
          "internalType": "address payable",
          "name": "payee",
          "type": "address"
        }
      ],
      "name": "withdrawPayments",
      "outputs": [],
      "stateMutability": "nonpayable",
      "type": "function"
    }
  ],
  "bytecode": "0x60a06040526000601160006101000a81548160ff0219169083151502179055506000601160016101000a81548160ff0219169083151502179055506000601160026101000a81548160ff0219169083151502179055503480156200006257600080fd5b5060405162006e2438038062006e24833981810160405281019062000088919062000509565b84848160009080519060200190620000a2929190620003c2565b508060019080519060200190620000bb929190620003c2565b505050604051620000cc9062000453565b604051809103906000f080158015620000e9573d6000803e3d6000fd5b5073ffffffffffffffffffffffffffffffffffffffff1660808173ffffffffffffffffffffffffffffffffffffffff1660601b8152505062000140620001346200017460201b60201c565b6200017c60201b60201c565b80600f8190555062000158826200024260201b60201c565b6200016983620002ed60201b60201c565b5050505050620007b9565b600033905090565b6000600a60009054906101000a900473ffffffffffffffffffffffffffffffffffffffff16905081600a60006101000a81548173ffffffffffffffffffffffffffffffffffffffff021916908373ffffffffffffffffffffffffffffffffffffffff1602179055508173ffffffffffffffffffffffffffffffffffffffff168173ffffffffffffffffffffffffffffffffffffffff167f8be0079c531659141344cd1fd0a4f28419497f9722a3daafe3b4186f6b6457e060405160405180910390a35050565b620002526200017460201b60201c565b73ffffffffffffffffffffffffffffffffffffffff16620002786200039860201b60201c565b73ffffffffffffffffffffffffffffffffffffffff1614620002d1576040517f08c379a0000000000000000000000000000000000000000000000000000000008152600401620002c89062000631565b60405180910390fd5b80600e9080519060200190620002e9929190620003c2565b5050565b620002fd6200017460201b60201c565b73ffffffffffffffffffffffffffffffffffffffff16620003236200039860201b60201c565b73ffffffffffffffffffffffffffffffffffffffff16146200037c576040517f08c379a0000000000000000000000000000000000000000000000000000000008152600401620003739062000631565b60405180910390fd5b80600c908051906020019062000394929190620003c2565b5050565b6000600a60009054906101000a900473ffffffffffffffffffffffffffffffffffffffff16905090565b828054620003d0906200070b565b90600052602060002090601f016020900481019282620003f4576000855562000440565b82601f106200040f57805160ff191683800117855562000440565b8280016001018555821562000440579182015b828111156200043f57825182559160200191906001019062000422565b5b5090506200044f919062000461565b5090565b610ccd806200615783390190565b5b808211156200047c57600081600090555060010162000462565b5090565b600062000497620004918462000687565b62000653565b905082815260208101848484011115620004b057600080fd5b620004bd848285620006d5565b509392505050565b600082601f830112620004d757600080fd5b8151620004e984826020860162000480565b91505092915050565b60008151905062000503816200079f565b92915050565b600080600080600060a086880312156200052257600080fd5b600086015167ffffffffffffffff8111156200053d57600080fd5b6200054b88828901620004c5565b955050602086015167ffffffffffffffff8111156200056957600080fd5b6200057788828901620004c5565b945050604086015167ffffffffffffffff8111156200059557600080fd5b620005a388828901620004c5565b935050606086015167ffffffffffffffff811115620005c157600080fd5b620005cf88828901620004c5565b9250506080620005e288828901620004f2565b9150509295509295909350565b6000620005fe602083620006ba565b91507f4f776e61626c653a2063616c6c6572206973206e6f7420746865206f776e65726000830152602082019050919050565b600060208201905081810360008301526200064c81620005ef565b9050919050565b6000604051905081810181811067ffffffffffffffff821117156200067d576200067c62000770565b5b8060405250919050565b600067ffffffffffffffff821115620006a557620006a462000770565b5b601f19601f8301169050602081019050919050565b600082825260208201905092915050565b6000819050919050565b60005b83811015620006f5578082015181840152602081019050620006d8565b8381111562000705576000848401525b50505050565b600060028204905060018216806200072457607f821691505b602082108114156200073b576200073a62000741565b5b50919050565b7f4e487b7100000000000000000000000000000000000000000000000000000000600052602260045260246000fd5b7f4e487b7100000000000000000000000000000000000000000000000000000000600052604160045260246000fd5b620007aa81620006cb565b8114620007b657600080fd5b50565b60805160601c61597f620007d860003960006123b2015261597f6000f3fe6080604052600436106102c95760003560e01c80636352211e11610175578063a201fc50116100dc578063df3fdf0011610095578063e8a3d4851161006f578063e8a3d48514610ac7578063e985e9c514610af2578063f2fde38b14610b2f578063f81227d414610b58576102c9565b8063df3fdf0014610a36578063e2982c2114610a61578063e2ec6ec314610a9e576102c9565b8063a201fc5014610937578063a22cb46514610960578063b88d4fde14610989578063c002d23d146109b2578063c87b56dd146109dd578063c9b298f114610a1a576102c9565b80637ea6c88d1161012e5780637ea6c88d146108385780638da5cb5b1461086157806395d89b411461088c5780639b19251a146108b75780639e47f7a9146108f5578063a10866ef14610920576102c9565b80636352211e146107285780636373a6b1146107655780636f4581331461079057806370a08231146107bb578063715018a6146107f85780637b5e26af1461080f576102c9565b806326d7fd8611610234578063336d8fa6116101ed57806342842e0e116101c757806342842e0e1461066c5780634f6ccce71461069557806351830227146106d257806360d938dc146106fd576102c9565b8063336d8fa6146105ed5780633af32abf146106185780633b2c3fb614610655576102c9565b806326d7fd86146104ec5780632db11544146105175780632f745c591461053357806330176e131461057057806331b3eb941461059957806332cb6b0c146105c2576102c9565b806310c0e1581161028657806310c0e158146103ee57806316ffecb71461041757806318160ddd1461044257806318e20a381461046d5780631e84c4131461049857806323b872dd146104c3576102c9565b8063018a2c37146102ce57806301ffc9a7146102f757806306fdde0314610334578063081812fc1461035f578063095ea7b31461039c57806310969523146103c5575b600080fd5b3480156102da57600080fd5b506102f560048036038101906102f09190614287565b610b6f565b005b34801561030357600080fd5b5061031e600480360381019061031991906141f4565b610c39565b60405161032b9190615080565b60405180910390f35b34801561034057600080fd5b50610349610c4b565b604051610356919061509b565b60405180910390f35b34801561036b57600080fd5b5061038660048036038101906103819190614287565b610cdd565b6040516103939190614f03565b60405180910390f35b3480156103a857600080fd5b506103c360048036038101906103be9190614177565b610d62565b005b3480156103d157600080fd5b506103ec60048036038101906103e79190614246565b610e7a565b005b3480156103fa57600080fd5b5061041560048036038101906104109190614287565b610f49565b005b34801561042357600080fd5b5061042c611009565b6040516104399190615438565b60405180910390f35b34801561044e57600080fd5b5061045761100e565b604051610464919061541d565b60405180910390f35b34801561047957600080fd5b5061048261101b565b60405161048f919061541d565b60405180910390f35b3480156104a457600080fd5b506104ad611021565b6040516104ba9190615080565b60405180910390f35b3480156104cf57600080fd5b506104ea60048036038101906104e59190614071565b611034565b005b3480156104f857600080fd5b50610501611094565b60405161050e9190615438565b60405180910390f35b610531600480360381019061052c9190614287565b611099565b005b34801561053f57600080fd5b5061055a60048036038101906105559190614177565b61124c565b604051610567919061541d565b60405180910390f35b34801561057c57600080fd5b5061059760048036038101906105929190614246565b6112f1565b005b3480156105a557600080fd5b506105c060048036038101906105bb919061400c565b6113c3565b005b3480156105ce57600080fd5b506105d76114b9565b6040516105e4919061541d565b60405180910390f35b3480156105f957600080fd5b506106026114bf565b60405161060f919061509b565b60405180910390f35b34801561062457600080fd5b5061063f600480360381019061063a9190613fe3565b61154d565b60405161064c9190615080565b60405180910390f35b34801561066157600080fd5b5061066a6115e7565b005b34801561067857600080fd5b50610693600480360381019061068e9190614071565b61168f565b005b3480156106a157600080fd5b506106bc60048036038101906106b79190614287565b6116af565b6040516106c9919061541d565b60405180910390f35b3480156106de57600080fd5b506106e7611746565b6040516106f49190615080565b60405180910390f35b34801561070957600080fd5b50610712611759565b60405161071f9190615080565b60405180910390f35b34801561073457600080fd5b5061074f600480360381019061074a9190614287565b61176c565b60405161075c9190614f03565b60405180910390f35b34801561077157600080fd5b5061077a61181e565b604051610787919061509b565b60405180910390f35b34801561079c57600080fd5b506107a56118ac565b6040516107b2919061509b565b60405180910390f35b3480156107c757600080fd5b506107e260048036038101906107dd9190613fe3565b61193a565b6040516107ef919061541d565b60405180910390f35b34801561080457600080fd5b5061080d6119f2565b005b34801561081b57600080fd5b5061083660048036038101906108319190613fe3565b611a7a565b005b34801561084457600080fd5b5061085f600480360381019061085a9190614246565b611b1c565b005b34801561086d57600080fd5b50610876611bb2565b6040516108839190614f03565b60405180910390f35b34801561089857600080fd5b506108a1611bdc565b6040516108ae919061509b565b60405180910390f35b3480156108c357600080fd5b506108de60048036038101906108d99190613fe3565b611c6e565b6040516108ec929190615057565b60405180910390f35b34801561090157600080fd5b5061090a611cb2565b604051610917919061509b565b60405180910390f35b34801561092c57600080fd5b50610935611d40565b005b34801561094357600080fd5b5061095e60048036038101906109599190614246565b611e31565b005b34801561096c57600080fd5b506109876004803603810190610982919061413b565b611ec7565b005b34801561099557600080fd5b506109b060048036038101906109ab91906140c0565b611edd565b005b3480156109be57600080fd5b506109c7611f3f565b6040516109d4919061541d565b60405180910390f35b3480156109e957600080fd5b50610a0460048036038101906109ff9190614287565b611f4a565b604051610a11919061509b565b60405180910390f35b610a346004803603810190610a2f9190614287565b6120a2565b005b348015610a4257600080fd5b50610a4b612375565b604051610a58919061509b565b60405180910390f35b348015610a6d57600080fd5b50610a886004803603810190610a839190613fe3565b6123ae565b604051610a95919061541d565b60405180910390f35b348015610aaa57600080fd5b50610ac56004803603810190610ac091906141b3565b612460565b005b348015610ad357600080fd5b50610adc612711565b604051610ae9919061509b565b60405180910390f35b348015610afe57600080fd5b50610b196004803603810190610b149190614035565b6127a3565b604051610b269190615080565b60405180910390f35b348015610b3b57600080fd5b50610b566004803603810190610b519190613fe3565b612837565b005b348015610b6457600080fd5b50610b6d61292f565b005b610b77612a20565b73ffffffffffffffffffffffffffffffffffffffff16610b95611bb2565b73ffffffffffffffffffffffffffffffffffffffff1614610beb576040517f08c379a0000000000000000000000000000000000000000000000000000000008152600401610be29061533d565b60405180910390fd5b7f78fa28fded65b623d079e3d7ddcc0992a573a72ad6051ce04ea38b04975ca2643382604051610c1c929190615057565b60405180910390a18042610c309190615573565b60108190555050565b6000610c4482612a28565b9050919050565b606060008054610c5a9061575d565b80601f0160208091040260200160405190810160405280929190818152602001828054610c869061575d565b8015610cd35780601f10610ca857610100808354040283529160200191610cd3565b820191906000526020600020905b815481529060010190602001808311610cb657829003601f168201915b5050505050905090565b6000610ce882612aa2565b610d27576040517f08c379a0000000000000000000000000000000000000000000000000000000008152600401610d1e9061531d565b60405180910390fd5b6004600083815260200190815260200160002060009054906101000a900473ffffffffffffffffffffffffffffffffffffffff169050919050565b6000610d6d8261176c565b90508073ffffffffffffffffffffffffffffffffffffffff168373ffffffffffffffffffffffffffffffffffffffff161415610dde576040517f08c379a0000000000000000000000000000000000000000000000000000000008152600401610dd59061539d565b60405180910390fd5b8073ffffffffffffffffffffffffffffffffffffffff16610dfd612a20565b73ffffffffffffffffffffffffffffffffffffffff161480610e2c5750610e2b81610e26612a20565b6127a3565b5b610e6b576040517f08c379a0000000000000000000000000000000000000000000000000000000008152600401610e629061523d565b60405180910390fd5b610e758383612b0e565b505050565b610e82612a20565b73ffffffffffffffffffffffffffffffffffffffff16610ea0611bb2565b73ffffffffffffffffffffffffffffffffffffffff1614610ef6576040517f08c379a0000000000000000000000000000000000000000000000000000000008152600401610eed9061533d565b60405180910390fd5b7fd0802c3c74ed914544449c08ef5edb3054d739fbf8dea1720419d7b4cb8bc3f13382604051610f27929190614f6a565b60405180910390a180600b9080519060200190610f45929190613d47565b5050565b610f51612a20565b73ffffffffffffffffffffffffffffffffffffffff16610f6f611bb2565b73ffffffffffffffffffffffffffffffffffffffff1614610fc5576040517f08c379a0000000000000000000000000000000000000000000000000000000008152600401610fbc9061533d565b60405180910390fd5b6000610fcf61100e565b905060005b8281101561100457610ff1338284610fec9190615573565b612bc7565b8080610ffc9061578f565b915050610fd4565b505050565b601481565b6000600880549050905090565b60105481565b601160009054906101000a900460ff1681565b61104561103f612a20565b82612be5565b611084576040517f08c379a000000000000000000000000000000000000000000000000000000000815260040161107b906153dd565b60405180910390fd5b61108f838383612cc3565b505050565b601e81565b601160009054906101000a900460ff166110e8576040517f08c379a00000000000000000000000000000000000000000000000000000000081526004016110df906150bd565b60405180910390fd5b600f54611105826110f761100e565b612f1f90919063ffffffff16565b1115611146576040517f08c379a000000000000000000000000000000000000000000000000000000000815260040161113d906152dd565b60405180910390fd5b6111608166470de4df820000612f3590919063ffffffff16565b3410156111a2576040517f08c379a0000000000000000000000000000000000000000000000000000000008152600401611199906151dd565b60405180910390fd5b6000811180156111b65750601460ff168111155b6111f5576040517f08c379a00000000000000000000000000000000000000000000000000000000081526004016111ec906153bd565b60405180910390fd5b60005b8181101561124857600061120a61100e565b9050600f5461121761100e565b1015611234576112333360018361122e9190615573565b612bc7565b5b5080806112409061578f565b9150506111f8565b5050565b60006112578361193a565b8210611298576040517f08c379a000000000000000000000000000000000000000000000000000000000815260040161128f906150fd565b60405180910390fd5b600660008473ffffffffffffffffffffffffffffffffffffffff1673ffffffffffffffffffffffffffffffffffffffff168152602001908152602001600020600083815260200190815260200160002054905092915050565b6112f9612a20565b73ffffffffffffffffffffffffffffffffffffffff16611317611bb2565b73ffffffffffffffffffffffffffffffffffffffff161461136d576040517f08c379a00000000000000000000000000000000000000000000000000000000081526004016113649061533d565b60405180910390fd5b7f92bf6a7b8937c17e6781a68d61f9fe6a5ce08604b96ca2206f311049a3a295ea33600d836040516113a193929190614f9a565b60405180910390a180600d90805190602001906113bf929190613d47565b5050565b6113cb612a20565b73ffffffffffffffffffffffffffffffffffffffff166113e9611bb2565b73ffffffffffffffffffffffffffffffffffffffff161461143f576040517f08c379a00000000000000000000000000000000000000000000000000000000081526004016114369061533d565b60405180910390fd5b60008173ffffffffffffffffffffffffffffffffffffffff164760405161146590614eee565b60006040518083038185875af1925050503d80600081146114a2576040519150601f19603f3d011682016040523d82523d6000602084013e6114a7565b606091505b50509050806114b557600080fd5b5050565b600f5481565b600c80546114cc9061575d565b80601f01602080910402602001604051908101604052809291908181526020018280546114f89061575d565b80156115455780601f1061151a57610100808354040283529160200191611545565b820191906000526020600020905b81548152906001019060200180831161152857829003601f168201915b505050505081565b60008173ffffffffffffffffffffffffffffffffffffffff16601260008473ffffffffffffffffffffffffffffffffffffffff1673ffffffffffffffffffffffffffffffffffffffff16815260200190815260200160002060000160009054906101000a900473ffffffffffffffffffffffffffffffffffffffff1673ffffffffffffffffffffffffffffffffffffffff16149050919050565b6115ef612a20565b73ffffffffffffffffffffffffffffffffffffffff1661160d611bb2565b73ffffffffffffffffffffffffffffffffffffffff1614611663576040517f08c379a000000000000000000000000000000000000000000000000000000000815260040161165a9061533d565b60405180910390fd5b601160029054906101000a900460ff1615601160026101000a81548160ff021916908315150217905550565b6116aa83838360405180602001604052806000815250611edd565b505050565b60006116b961100e565b82106116fa576040517f08c379a00000000000000000000000000000000000000000000000000000000081526004016116f1906153fd565b60405180910390fd5b60088281548110611734577f4e487b7100000000000000000000000000000000000000000000000000000000600052603260045260246000fd5b90600052602060002001549050919050565b601160029054906101000a900460ff1681565b601160019054906101000a900460ff1681565b6000806002600084815260200190815260200160002060009054906101000a900473ffffffffffffffffffffffffffffffffffffffff169050600073ffffffffffffffffffffffffffffffffffffffff168173ffffffffffffffffffffffffffffffffffffffff161415611815576040517f08c379a000000000000000000000000000000000000000000000000000000000815260040161180c9061529d565b60405180910390fd5b80915050919050565b600b805461182b9061575d565b80601f01602080910402602001604051908101604052809291908181526020018280546118579061575d565b80156118a45780601f10611879576101008083540402835291602001916118a4565b820191906000526020600020905b81548152906001019060200180831161188757829003601f168201915b505050505081565b600d80546118b99061575d565b80601f01602080910402602001604051908101604052809291908181526020018280546118e59061575d565b80156119325780601f1061190757610100808354040283529160200191611932565b820191906000526020600020905b81548152906001019060200180831161191557829003601f168201915b505050505081565b60008073ffffffffffffffffffffffffffffffffffffffff168273ffffffffffffffffffffffffffffffffffffffff1614156119ab576040517f08c379a00000000000000000000000000000000000000000000000000000000081526004016119a29061527d565b60405180910390fd5b600360008373ffffffffffffffffffffffffffffffffffffffff1673ffffffffffffffffffffffffffffffffffffffff168152602001908152602001600020549050919050565b6119fa612a20565b73ffffffffffffffffffffffffffffffffffffffff16611a18611bb2565b73ffffffffffffffffffffffffffffffffffffffff1614611a6e576040517f08c379a0000000000000000000000000000000000000000000000000000000008152600401611a659061533d565b60405180910390fd5b611a786000612f4b565b565b611a82612a20565b73ffffffffffffffffffffffffffffffffffffffff16611aa0611bb2565b73ffffffffffffffffffffffffffffffffffffffff1614611af6576040517f08c379a0000000000000000000000000000000000000000000000000000000008152600401611aed9061533d565b60405180910390fd5b6000611b0061100e565b9050611b1882600183611b139190615573565b612bc7565b5050565b611b24612a20565b73ffffffffffffffffffffffffffffffffffffffff16611b42611bb2565b73ffffffffffffffffffffffffffffffffffffffff1614611b98576040517f08c379a0000000000000000000000000000000000000000000000000000000008152600401611b8f9061533d565b60405180910390fd5b80600c9080519060200190611bae929190613d47565b5050565b6000600a60009054906101000a900473ffffffffffffffffffffffffffffffffffffffff16905090565b606060018054611beb9061575d565b80601f0160208091040260200160405190810160405280929190818152602001828054611c179061575d565b8015611c645780601f10611c3957610100808354040283529160200191611c64565b820191906000526020600020905b815481529060010190602001808311611c4757829003601f168201915b5050505050905090565b60126020528060005260406000206000915090508060000160009054906101000a900473ffffffffffffffffffffffffffffffffffffffff16908060010154905082565b600e8054611cbf9061575d565b80601f0160208091040260200160405190810160405280929190818152602001828054611ceb9061575d565b8015611d385780601f10611d0d57610100808354040283529160200191611d38565b820191906000526020600020905b815481529060010190602001808311611d1b57829003601f168201915b505050505081565b611d48612a20565b73ffffffffffffffffffffffffffffffffffffffff16611d66611bb2565b73ffffffffffffffffffffffffffffffffffffffff1614611dbc576040517f08c379a0000000000000000000000000000000000000000000000000000000008152600401611db39061533d565b60405180910390fd5b7f3bbc4dea8861e902000354aa6e3dd2f206a1e352a84328120a1781f96ff25ae933601160009054906101000a900460ff1615604051611dfd92919061501b565b60405180910390a1601160009054906101000a900460ff1615601160006101000a81548160ff021916908315150217905550565b611e39612a20565b73ffffffffffffffffffffffffffffffffffffffff16611e57611bb2565b73ffffffffffffffffffffffffffffffffffffffff1614611ead576040517f08c379a0000000000000000000000000000000000000000000000000000000008152600401611ea49061533d565b60405180910390fd5b80600e9080519060200190611ec3929190613d47565b5050565b611ed9611ed2612a20565b8383613011565b5050565b611eee611ee8612a20565b83612be5565b611f2d576040517f08c379a0000000000000000000000000000000000000000000000000000000008152600401611f24906153dd565b60405180910390fd5b611f398484848461317e565b50505050565b66470de4df82000081565b6060611f5582612aa2565b611f94576040517f08c379a0000000000000000000000000000000000000000000000000000000008152600401611f8b906150dd565b60405180910390fd5b601160029054906101000a900460ff1661203857600c8054611fb59061575d565b80601f0160208091040260200160405190810160405280929190818152602001828054611fe19061575d565b801561202e5780601f106120035761010080835404028352916020019161202e565b820191906000526020600020905b81548152906001019060200180831161201157829003601f168201915b505050505061209b565b600d612043836131da565b6040518060400160405280600581526020017f2e6a736f6e00000000000000000000000000000000000000000000000000000081525060405160200161208b93929190614ebd565b6040516020818303038152906040525b9050919050565b601160019054906101000a900460ff166120f1576040517f08c379a00000000000000000000000000000000000000000000000000000000081526004016120e89061525d565b60405180910390fd5b6120fa3361154d565b612139576040517f08c379a0000000000000000000000000000000000000000000000000000000008152600401612130906151bd565b60405180910390fd5b6121538166470de4df820000612f3590919063ffffffff16565b341015612195576040517f08c379a000000000000000000000000000000000000000000000000000000000815260040161218c906151dd565b60405180910390fd5b601e60ff166121ef82601260003373ffffffffffffffffffffffffffffffffffffffff1673ffffffffffffffffffffffffffffffffffffffff16815260200190815260200160002060010154612f1f90919063ffffffff16565b1115612230576040517f08c379a00000000000000000000000000000000000000000000000000000000081526004016122279061521d565b60405180910390fd5b6000811180156122445750601e60ff168111155b612283576040517f08c379a000000000000000000000000000000000000000000000000000000000815260040161227a906152bd565b60405180910390fd5b6122d881601260003373ffffffffffffffffffffffffffffffffffffffff1673ffffffffffffffffffffffffffffffffffffffff16815260200190815260200160002060010154612f1f90919063ffffffff16565b601260003373ffffffffffffffffffffffffffffffffffffffff1673ffffffffffffffffffffffffffffffffffffffff1681526020019081526020016000206001018190555060005b8181101561237157600061233361100e565b9050600f5461234061100e565b101561235d5761235c336001836123579190615573565b612bc7565b5b5080806123699061578f565b915050612321565b5050565b6040518060400160405280600581526020017f2e6a736f6e00000000000000000000000000000000000000000000000000000081525081565b60007f000000000000000000000000000000000000000000000000000000000000000073ffffffffffffffffffffffffffffffffffffffff1663e3a9db1a836040518263ffffffff1660e01b81526004016124099190614f03565b60206040518083038186803b15801561242157600080fd5b505afa158015612435573d6000803e3d6000fd5b505050506040513d601f19601f8201168201806040525081019061245991906142b0565b9050919050565b612468612a20565b73ffffffffffffffffffffffffffffffffffffffff16612486611bb2565b73ffffffffffffffffffffffffffffffffffffffff16146124dc576040517f08c379a00000000000000000000000000000000000000000000000000000000081526004016124d39061533d565b60405180910390fd5b60005b815181101561270d57612531828281518110612524577f4e487b7100000000000000000000000000000000000000000000000000000000600052603260045260246000fd5b602002602001015161154d565b15612571576040517f08c379a00000000000000000000000000000000000000000000000000000000081526004016125689061537d565b60405180910390fd5b8181815181106125aa577f4e487b7100000000000000000000000000000000000000000000000000000000600052603260045260246000fd5b6020026020010151601260008484815181106125ef577f4e487b7100000000000000000000000000000000000000000000000000000000600052603260045260246000fd5b602002602001015173ffffffffffffffffffffffffffffffffffffffff1673ffffffffffffffffffffffffffffffffffffffff16815260200190815260200160002060000160006101000a81548173ffffffffffffffffffffffffffffffffffffffff021916908373ffffffffffffffffffffffffffffffffffffffff1602179055506000601260008484815181106126b1577f4e487b7100000000000000000000000000000000000000000000000000000000600052603260045260246000fd5b602002602001015173ffffffffffffffffffffffffffffffffffffffff1673ffffffffffffffffffffffffffffffffffffffff1681526020019081526020016000206001018190555080806127059061578f565b9150506124df565b5050565b6060600e80546127209061575d565b80601f016020809104026020016040519081016040528092919081815260200182805461274c9061575d565b80156127995780601f1061276e57610100808354040283529160200191612799565b820191906000526020600020905b81548152906001019060200180831161277c57829003601f168201915b5050505050905090565b6000600560008473ffffffffffffffffffffffffffffffffffffffff1673ffffffffffffffffffffffffffffffffffffffff16815260200190815260200160002060008373ffffffffffffffffffffffffffffffffffffffff1673ffffffffffffffffffffffffffffffffffffffff16815260200190815260200160002060009054906101000a900460ff16905092915050565b61283f612a20565b73ffffffffffffffffffffffffffffffffffffffff1661285d611bb2565b73ffffffffffffffffffffffffffffffffffffffff16146128b3576040517f08c379a00000000000000000000000000000000000000000000000000000000081526004016128aa9061533d565b60405180910390fd5b600073ffffffffffffffffffffffffffffffffffffffff168173ffffffffffffffffffffffffffffffffffffffff161415612923576040517f08c379a000000000000000000000000000000000000000000000000000000000815260040161291a9061513d565b60405180910390fd5b61292c81612f4b565b50565b612937612a20565b73ffffffffffffffffffffffffffffffffffffffff16612955611bb2565b73ffffffffffffffffffffffffffffffffffffffff16146129ab576040517f08c379a00000000000000000000000000000000000000000000000000000000081526004016129a29061533d565b60405180910390fd5b7f3bbc4dea8861e902000354aa6e3dd2f206a1e352a84328120a1781f96ff25ae933601160019054906101000a900460ff16156040516129ec929190614fdf565b60405180910390a1601160019054906101000a900460ff1615601160016101000a81548160ff021916908315150217905550565b600033905090565b60007f780e9d63000000000000000000000000000000000000000000000000000000007bffffffffffffffffffffffffffffffffffffffffffffffffffffffff1916827bffffffffffffffffffffffffffffffffffffffffffffffffffffffff19161480612a9b5750612a9a82613387565b5b9050919050565b60008073ffffffffffffffffffffffffffffffffffffffff166002600084815260200190815260200160002060009054906101000a900473ffffffffffffffffffffffffffffffffffffffff1673ffffffffffffffffffffffffffffffffffffffff1614159050919050565b816004600083815260200190815260200160002060006101000a81548173ffffffffffffffffffffffffffffffffffffffff021916908373ffffffffffffffffffffffffffffffffffffffff160217905550808273ffffffffffffffffffffffffffffffffffffffff16612b818361176c565b73ffffffffffffffffffffffffffffffffffffffff167f8c5be1e5ebec7d5bd14f71427d1e84f3dd0314c0f7b2291e5b200ac8c7c3b92560405160405180910390a45050565b612be1828260405180602001604052806000815250613469565b5050565b6000612bf082612aa2565b612c2f576040517f08c379a0000000000000000000000000000000000000000000000000000000008152600401612c26906151fd565b60405180910390fd5b6000612c3a8361176c565b90508073ffffffffffffffffffffffffffffffffffffffff168473ffffffffffffffffffffffffffffffffffffffff161480612ca957508373ffffffffffffffffffffffffffffffffffffffff16612c9184610cdd565b73ffffffffffffffffffffffffffffffffffffffff16145b80612cba5750612cb981856127a3565b5b91505092915050565b8273ffffffffffffffffffffffffffffffffffffffff16612ce38261176c565b73ffffffffffffffffffffffffffffffffffffffff1614612d39576040517f08c379a0000000000000000000000000000000000000000000000000000000008152600401612d309061535d565b60405180910390fd5b600073ffffffffffffffffffffffffffffffffffffffff168273ffffffffffffffffffffffffffffffffffffffff161415612da9576040517f08c379a0000000000000000000000000000000000000000000000000000000008152600401612da09061517d565b60405180910390fd5b612db48383836134c4565b612dbf600082612b0e565b6001600360008573ffffffffffffffffffffffffffffffffffffffff1673ffffffffffffffffffffffffffffffffffffffff1681526020019081526020016000206000828254612e0f9190615654565b925050819055506001600360008473ffffffffffffffffffffffffffffffffffffffff1673ffffffffffffffffffffffffffffffffffffffff1681526020019081526020016000206000828254612e669190615573565b92505081905550816002600083815260200190815260200160002060006101000a81548173ffffffffffffffffffffffffffffffffffffffff021916908373ffffffffffffffffffffffffffffffffffffffff160217905550808273ffffffffffffffffffffffffffffffffffffffff168473ffffffffffffffffffffffffffffffffffffffff167fddf252ad1be2c89b69c2b068fc378daa952ba7f163c4a11628f55a4df523b3ef60405160405180910390a4505050565b60008183612f2d9190615573565b905092915050565b60008183612f4391906155fa565b905092915050565b6000600a60009054906101000a900473ffffffffffffffffffffffffffffffffffffffff16905081600a60006101000a81548173ffffffffffffffffffffffffffffffffffffffff021916908373ffffffffffffffffffffffffffffffffffffffff1602179055508173ffffffffffffffffffffffffffffffffffffffff168173ffffffffffffffffffffffffffffffffffffffff167f8be0079c531659141344cd1fd0a4f28419497f9722a3daafe3b4186f6b6457e060405160405180910390a35050565b8173ffffffffffffffffffffffffffffffffffffffff168373ffffffffffffffffffffffffffffffffffffffff161415613080576040517f08c379a00000000000000000000000000000000000000000000000000000000081526004016130779061519d565b60405180910390fd5b80600560008573ffffffffffffffffffffffffffffffffffffffff1673ffffffffffffffffffffffffffffffffffffffff16815260200190815260200160002060008473ffffffffffffffffffffffffffffffffffffffff1673ffffffffffffffffffffffffffffffffffffffff16815260200190815260200160002060006101000a81548160ff0219169083151502179055508173ffffffffffffffffffffffffffffffffffffffff168373ffffffffffffffffffffffffffffffffffffffff167f17307eab39ab6107e8899845ad3d59bd9653f200f220920489ca2b5937696c31836040516131719190615080565b60405180910390a3505050565b613189848484612cc3565b613195848484846134d4565b6131d4576040517f08c379a00000000000000000000000000000000000000000000000000000000081526004016131cb9061511d565b60405180910390fd5b50505050565b60606000821415613222576040518060400160405280600181526020017f30000000000000000000000000000000000000000000000000000000000000008152509050613382565b600082905060005b6000821461325457808061323d9061578f565b915050600a8261324d91906155c9565b915061322a565b60008167ffffffffffffffff811115613296577f4e487b7100000000000000000000000000000000000000000000000000000000600052604160045260246000fd5b6040519080825280601f01601f1916602001820160405280156132c85781602001600182028036833780820191505090505b5090505b6000851461337b576001826132e19190615654565b9150600a856132f091906157d8565b60306132fc9190615573565b60f81b818381518110613338577f4e487b7100000000000000000000000000000000000000000000000000000000600052603260045260246000fd5b60200101907effffffffffffffffffffffffffffffffffffffffffffffffffffffffffffff1916908160001a905350600a8561337491906155c9565b94506132cc565b8093505050505b919050565b60007f80ac58cd000000000000000000000000000000000000000000000000000000007bffffffffffffffffffffffffffffffffffffffffffffffffffffffff1916827bffffffffffffffffffffffffffffffffffffffffffffffffffffffff1916148061345257507f5b5e139f000000000000000000000000000000000000000000000000000000007bffffffffffffffffffffffffffffffffffffffffffffffffffffffff1916827bffffffffffffffffffffffffffffffffffffffffffffffffffffffff1916145b8061346257506134618261366b565b5b9050919050565b61347383836136d5565b61348060008484846134d4565b6134bf576040517f08c379a00000000000000000000000000000000000000000000000000000000081526004016134b69061511d565b60405180910390fd5b505050565b6134cf8383836138a3565b505050565b60006134f58473ffffffffffffffffffffffffffffffffffffffff166139b7565b1561365e578373ffffffffffffffffffffffffffffffffffffffff1663150b7a0261351e612a20565b8786866040518563ffffffff1660e01b81526004016135409493929190614f1e565b602060405180830381600087803b15801561355a57600080fd5b505af192505050801561358b57506040513d601f19601f82011682018060405250810190613588919061421d565b60015b61360e573d80600081146135bb576040519150601f19603f3d011682016040523d82523d6000602084013e6135c0565b606091505b50600081511415613606576040517f08c379a00000000000000000000000000000000000000000000000000000000081526004016135fd9061511d565b60405180910390fd5b805181602001fd5b63150b7a0260e01b7bffffffffffffffffffffffffffffffffffffffffffffffffffffffff1916817bffffffffffffffffffffffffffffffffffffffffffffffffffffffff191614915050613663565b600190505b949350505050565b60007f01ffc9a7000000000000000000000000000000000000000000000000000000007bffffffffffffffffffffffffffffffffffffffffffffffffffffffff1916827bffffffffffffffffffffffffffffffffffffffffffffffffffffffff1916149050919050565b600073ffffffffffffffffffffffffffffffffffffffff168273ffffffffffffffffffffffffffffffffffffffff161415613745576040517f08c379a000000000000000000000000000000000000000000000000000000000815260040161373c906152fd565b60405180910390fd5b61374e81612aa2565b1561378e576040517f08c379a00000000000000000000000000000000000000000000000000000000081526004016137859061515d565b60405180910390fd5b61379a600083836134c4565b6001600360008473ffffffffffffffffffffffffffffffffffffffff1673ffffffffffffffffffffffffffffffffffffffff16815260200190815260200160002060008282546137ea9190615573565b92505081905550816002600083815260200190815260200160002060006101000a81548173ffffffffffffffffffffffffffffffffffffffff021916908373ffffffffffffffffffffffffffffffffffffffff160217905550808273ffffffffffffffffffffffffffffffffffffffff16600073ffffffffffffffffffffffffffffffffffffffff167fddf252ad1be2c89b69c2b068fc378daa952ba7f163c4a11628f55a4df523b3ef60405160405180910390a45050565b6138ae8383836139ca565b600073ffffffffffffffffffffffffffffffffffffffff168373ffffffffffffffffffffffffffffffffffffffff1614156138f1576138ec816139cf565b613930565b8173ffffffffffffffffffffffffffffffffffffffff168373ffffffffffffffffffffffffffffffffffffffff161461392f5761392e8382613a18565b5b5b600073ffffffffffffffffffffffffffffffffffffffff168273ffffffffffffffffffffffffffffffffffffffff1614156139735761396e81613b85565b6139b2565b8273ffffffffffffffffffffffffffffffffffffffff168273ffffffffffffffffffffffffffffffffffffffff16146139b1576139b08282613cc8565b5b5b505050565b600080823b905060008111915050919050565b505050565b6008805490506009600083815260200190815260200160002081905550600881908060018154018082558091505060019003906000526020600020016000909190919091505550565b60006001613a258461193a565b613a2f9190615654565b9050600060076000848152602001908152602001600020549050818114613b14576000600660008673ffffffffffffffffffffffffffffffffffffffff1673ffffffffffffffffffffffffffffffffffffffff168152602001908152602001600020600084815260200190815260200160002054905080600660008773ffffffffffffffffffffffffffffffffffffffff1673ffffffffffffffffffffffffffffffffffffffff168152602001908152602001600020600084815260200190815260200160002081905550816007600083815260200190815260200160002081905550505b6007600084815260200190815260200160002060009055600660008573ffffffffffffffffffffffffffffffffffffffff1673ffffffffffffffffffffffffffffffffffffffff16815260200190815260200160002060008381526020019081526020016000206000905550505050565b60006001600880549050613b999190615654565b9050600060096000848152602001908152602001600020549050600060088381548110613bef577f4e487b7100000000000000000000000000000000000000000000000000000000600052603260045260246000fd5b906000526020600020015490508060088381548110613c37577f4e487b7100000000000000000000000000000000000000000000000000000000600052603260045260246000fd5b906000526020600020018190555081600960008381526020019081526020016000208190555060096000858152602001908152602001600020600090556008805480613cac577f4e487b7100000000000000000000000000000000000000000000000000000000600052603160045260246000fd5b6001900381819060005260206000200160009055905550505050565b6000613cd38361193a565b905081600660008573ffffffffffffffffffffffffffffffffffffffff1673ffffffffffffffffffffffffffffffffffffffff168152602001908152602001600020600083815260200190815260200160002081905550806007600084815260200190815260200160002081905550505050565b828054613d539061575d565b90600052602060002090601f016020900481019282613d755760008555613dbc565b82601f10613d8e57805160ff1916838001178555613dbc565b82800160010185558215613dbc579182015b82811115613dbb578251825591602001919060010190613da0565b5b509050613dc99190613dcd565b5090565b5b80821115613de6576000816000905550600101613dce565b5090565b6000613dfd613df884615484565b615453565b90508083825260208201905082856020860282011115613e1c57600080fd5b60005b85811015613e4c5781613e328882613ed2565b845260208401935060208301925050600181019050613e1f565b5050509392505050565b6000613e69613e64846154b0565b615453565b905082815260208101848484011115613e8157600080fd5b613e8c84828561571b565b509392505050565b6000613ea7613ea2846154e0565b615453565b905082815260208101848484011115613ebf57600080fd5b613eca84828561571b565b509392505050565b600081359050613ee1816158d6565b92915050565b600081359050613ef6816158ed565b92915050565b600082601f830112613f0d57600080fd5b8135613f1d848260208601613dea565b91505092915050565b600081359050613f3581615904565b92915050565b600081359050613f4a8161591b565b92915050565b600081519050613f5f8161591b565b92915050565b600082601f830112613f7657600080fd5b8135613f86848260208601613e56565b91505092915050565b600082601f830112613fa057600080fd5b8135613fb0848260208601613e94565b91505092915050565b600081359050613fc881615932565b92915050565b600081519050613fdd81615932565b92915050565b600060208284031215613ff557600080fd5b600061400384828501613ed2565b91505092915050565b60006020828403121561401e57600080fd5b600061402c84828501613ee7565b91505092915050565b6000806040838503121561404857600080fd5b600061405685828601613ed2565b925050602061406785828601613ed2565b9150509250929050565b60008060006060848603121561408657600080fd5b600061409486828701613ed2565b93505060206140a586828701613ed2565b92505060406140b686828701613fb9565b9150509250925092565b600080600080608085870312156140d657600080fd5b60006140e487828801613ed2565b94505060206140f587828801613ed2565b935050604061410687828801613fb9565b925050606085013567ffffffffffffffff81111561412357600080fd5b61412f87828801613f65565b91505092959194509250565b6000806040838503121561414e57600080fd5b600061415c85828601613ed2565b925050602061416d85828601613f26565b9150509250929050565b6000806040838503121561418a57600080fd5b600061419885828601613ed2565b92505060206141a985828601613fb9565b9150509250929050565b6000602082840312156141c557600080fd5b600082013567ffffffffffffffff8111156141df57600080fd5b6141eb84828501613efc565b91505092915050565b60006020828403121561420657600080fd5b600061421484828501613f3b565b91505092915050565b60006020828403121561422f57600080fd5b600061423d84828501613f50565b91505092915050565b60006020828403121561425857600080fd5b600082013567ffffffffffffffff81111561427257600080fd5b61427e84828501613f8f565b91505092915050565b60006020828403121561429957600080fd5b60006142a784828501613fb9565b91505092915050565b6000602082840312156142c257600080fd5b60006142d084828501613fce565b91505092915050565b6142e281615688565b82525050565b6142f1816156ac565b82525050565b600061430282615525565b61430c818561553b565b935061431c81856020860161572a565b614325816158c5565b840191505092915050565b600061433b82615530565b6143458185615557565b935061435581856020860161572a565b61435e816158c5565b840191505092915050565b600061437482615530565b61437e8185615568565b935061438e81856020860161572a565b80840191505092915050565b600081546143a78161575d565b6143b18186615557565b945060018216600081146143cc57600181146143de57614411565b60ff1983168652602086019350614411565b6143e785615510565b60005b83811015614409578154818901526001820191506020810190506143ea565b808801955050505b50505092915050565b600081546144278161575d565b6144318186615568565b9450600182166000811461444c576001811461445d57614490565b60ff19831686528186019350614490565b61446685615510565b60005b8381101561448857815481890152600182019150602081019050614469565b838801955050505b50505092915050565b60006144a6602283615557565b91507f5075626c69632073616c65206d7573742062652061637469766520746f206d6960008301527f6e740000000000000000000000000000000000000000000000000000000000006020830152604082019050919050565b600061450c602183615557565b91507f4552433732314d657461646174613a204e6f6e6578697374656e7420746f6b6560008301527f6e000000000000000000000000000000000000000000000000000000000000006020830152604082019050919050565b6000614572602b83615557565b91507f455243373231456e756d657261626c653a206f776e657220696e646578206f7560008301527f74206f6620626f756e64730000000000000000000000000000000000000000006020830152604082019050919050565b60006145d8603283615557565b91507f4552433732313a207472616e7366657220746f206e6f6e20455243373231526560008301527f63656976657220696d706c656d656e74657200000000000000000000000000006020830152604082019050919050565b600061463e602683615557565b91507f4f776e61626c653a206e6577206f776e657220697320746865207a65726f206160008301527f64647265737300000000000000000000000000000000000000000000000000006020830152604082019050919050565b60006146a4601c83615557565b91507f4552433732313a20746f6b656e20616c7265616479206d696e746564000000006000830152602082019050919050565b60006146e4602483615557565b91507f4552433732313a207472616e7366657220746f20746865207a65726f2061646460008301527f72657373000000000000000000000000000000000000000000000000000000006020830152604082019050919050565b600061474a601983615557565b91507f4552433732313a20617070726f766520746f2063616c6c6572000000000000006000830152602082019050919050565b600061478a601a83615557565b91507f41646472657373206973206e6f742077686974656c69737465640000000000006000830152602082019050919050565b60006147ca601f83615557565b91507f45746865722076616c75652073656e74206973206e6f7420636f7272656374006000830152602082019050919050565b600061480a602c83615557565b91507f4552433732313a206f70657261746f7220717565727920666f72206e6f6e657860008301527f697374656e7420746f6b656e00000000000000000000000000000000000000006020830152604082019050919050565b6000614870602783615557565b91507f41626f76652070726573616c65206d617820616c6c6f776564206d696e74207160008301527f75616e74697479000000000000000000000000000000000000000000000000006020830152604082019050919050565b60006148d6603883615557565b91507f4552433732313a20617070726f76652063616c6c6572206973206e6f74206f7760008301527f6e6572206e6f7220617070726f76656420666f7220616c6c00000000000000006020830152604082019050919050565b600061493c601e83615557565b91507f50726573616c65206d7573742062652061637469766520746f206d696e7400006000830152602082019050919050565b600061497c602a83615557565b91507f4552433732313a2062616c616e636520717565727920666f7220746865207a6560008301527f726f2061646472657373000000000000000000000000000000000000000000006020830152604082019050919050565b60006149e2602983615557565b91507f4552433732313a206f776e657220717565727920666f72206e6f6e657869737460008301527f656e7420746f6b656e00000000000000000000000000000000000000000000006020830152604082019050919050565b6000614a48603383615557565b91507f43616e206f6e6c79206d696e74204d41585f4d494e545f5154595f505245534160008301527f4c4520746f6b656e7320617420612074696d65000000000000000000000000006020830152604082019050919050565b6000614aae602083615557565b91507f507572636861736520776f756c6420657863656564206d617820737570706c796000830152602082019050919050565b6000614aee602083615557565b91507f4552433732313a206d696e7420746f20746865207a65726f20616464726573736000830152602082019050919050565b6000614b2e602c83615557565b91507f4552433732313a20617070726f76656420717565727920666f72206e6f6e657860008301527f697374656e7420746f6b656e00000000000000000000000000000000000000006020830152604082019050919050565b6000614b94602083615557565b91507f4f776e61626c653a2063616c6c6572206973206e6f7420746865206f776e65726000830152602082019050919050565b6000614bd4602983615557565b91507f4552433732313a207472616e73666572206f6620746f6b656e2074686174206960008301527f73206e6f74206f776e00000000000000000000000000000000000000000000006020830152604082019050919050565b6000614c3a601383615557565b91507f416c72656164792077686974656c6973746564000000000000000000000000006000830152602082019050919050565b6000614c7a602183615557565b91507f4552433732313a20617070726f76616c20746f2063757272656e74206f776e6560008301527f72000000000000000000000000000000000000000000000000000000000000006020830152604082019050919050565b6000614ce0602b83615557565b91507f43616e206f6e6c79206d696e74204d41585f4d494e545f51545920746f6b656e60008301527f7320617420612074696d650000000000000000000000000000000000000000006020830152604082019050919050565b6000614d4660008361554c565b9150600082019050919050565b6000614d60603183615557565b91507f4552433732313a207472616e736665722063616c6c6572206973206e6f74206f60008301527f776e6572206e6f7220617070726f7665640000000000000000000000000000006020830152604082019050919050565b6000614dc6600783615557565b91507f50726573616c65000000000000000000000000000000000000000000000000006000830152602082019050919050565b6000614e06602c83615557565b91507f455243373231456e756d657261626c653a20676c6f62616c20696e646578206f60008301527f7574206f6620626f756e647300000000000000000000000000000000000000006020830152604082019050919050565b6000614e6c600b83615557565b91507f5075626c69632053616c650000000000000000000000000000000000000000006000830152602082019050919050565b614ea881615704565b82525050565b614eb78161570e565b82525050565b6000614ec9828661441a565b9150614ed58285614369565b9150614ee18284614369565b9150819050949350505050565b6000614ef982614d39565b9150819050919050565b6000602082019050614f1860008301846142d9565b92915050565b6000608082019050614f3360008301876142d9565b614f4060208301866142d9565b614f4d6040830185614e9f565b8181036060830152614f5f81846142f7565b905095945050505050565b6000604082019050614f7f60008301856142d9565b8181036020830152614f918184614330565b90509392505050565b6000606082019050614faf60008301866142d9565b8181036020830152614fc1818561439a565b90508181036040830152614fd58184614330565b9050949350505050565b6000606082019050614ff460008301856142d9565b818103602083015261500581614db9565b905061501460408301846142e8565b9392505050565b600060608201905061503060008301856142d9565b818103602083015261504181614e5f565b905061505060408301846142e8565b9392505050565b600060408201905061506c60008301856142d9565b6150796020830184614e9f565b9392505050565b600060208201905061509560008301846142e8565b92915050565b600060208201905081810360008301526150b58184614330565b905092915050565b600060208201905081810360008301526150d681614499565b9050919050565b600060208201905081810360008301526150f6816144ff565b9050919050565b6000602082019050818103600083015261511681614565565b9050919050565b60006020820190508181036000830152615136816145cb565b9050919050565b6000602082019050818103600083015261515681614631565b9050919050565b6000602082019050818103600083015261517681614697565b9050919050565b60006020820190508181036000830152615196816146d7565b9050919050565b600060208201905081810360008301526151b68161473d565b9050919050565b600060208201905081810360008301526151d68161477d565b9050919050565b600060208201905081810360008301526151f6816147bd565b9050919050565b60006020820190508181036000830152615216816147fd565b9050919050565b6000602082019050818103600083015261523681614863565b9050919050565b60006020820190508181036000830152615256816148c9565b9050919050565b600060208201905081810360008301526152768161492f565b9050919050565b600060208201905081810360008301526152968161496f565b9050919050565b600060208201905081810360008301526152b6816149d5565b9050919050565b600060208201905081810360008301526152d681614a3b565b9050919050565b600060208201905081810360008301526152f681614aa1565b9050919050565b6000602082019050818103600083015261531681614ae1565b9050919050565b6000602082019050818103600083015261533681614b21565b9050919050565b6000602082019050818103600083015261535681614b87565b9050919050565b6000602082019050818103600083015261537681614bc7565b9050919050565b6000602082019050818103600083015261539681614c2d565b9050919050565b600060208201905081810360008301526153b681614c6d565b9050919050565b600060208201905081810360008301526153d681614cd3565b9050919050565b600060208201905081810360008301526153f681614d53565b9050919050565b6000602082019050818103600083015261541681614df9565b9050919050565b60006020820190506154326000830184614e9f565b92915050565b600060208201905061544d6000830184614eae565b92915050565b6000604051905081810181811067ffffffffffffffff8211171561547a57615479615896565b5b8060405250919050565b600067ffffffffffffffff82111561549f5761549e615896565b5b602082029050602081019050919050565b600067ffffffffffffffff8211156154cb576154ca615896565b5b601f19601f8301169050602081019050919050565b600067ffffffffffffffff8211156154fb576154fa615896565b5b601f19601f8301169050602081019050919050565b60008190508160005260206000209050919050565b600081519050919050565b600081519050919050565b600082825260208201905092915050565b600081905092915050565b600082825260208201905092915050565b600081905092915050565b600061557e82615704565b915061558983615704565b9250827fffffffffffffffffffffffffffffffffffffffffffffffffffffffffffffffff038211156155be576155bd615809565b5b828201905092915050565b60006155d482615704565b91506155df83615704565b9250826155ef576155ee615838565b5b828204905092915050565b600061560582615704565b915061561083615704565b9250817fffffffffffffffffffffffffffffffffffffffffffffffffffffffffffffffff048311821515161561564957615648615809565b5b828202905092915050565b600061565f82615704565b915061566a83615704565b92508282101561567d5761567c615809565b5b828203905092915050565b6000615693826156e4565b9050919050565b60006156a5826156e4565b9050919050565b60008115159050919050565b60007fffffffff0000000000000000000000000000000000000000000000000000000082169050919050565b600073ffffffffffffffffffffffffffffffffffffffff82169050919050565b6000819050919050565b600060ff82169050919050565b82818337600083830152505050565b60005b8381101561574857808201518184015260208101905061572d565b83811115615757576000848401525b50505050565b6000600282049050600182168061577557607f821691505b6020821081141561578957615788615867565b5b50919050565b600061579a82615704565b91507fffffffffffffffffffffffffffffffffffffffffffffffffffffffffffffffff8214156157cd576157cc615809565b5b600182019050919050565b60006157e382615704565b91506157ee83615704565b9250826157fe576157fd615838565b5b828206905092915050565b7f4e487b7100000000000000000000000000000000000000000000000000000000600052601160045260246000fd5b7f4e487b7100000000000000000000000000000000000000000000000000000000600052601260045260246000fd5b7f4e487b7100000000000000000000000000000000000000000000000000000000600052602260045260246000fd5b7f4e487b7100000000000000000000000000000000000000000000000000000000600052604160045260246000fd5b6000601f19601f8301169050919050565b6158df81615688565b81146158ea57600080fd5b50565b6158f68161569a565b811461590157600080fd5b50565b61590d816156ac565b811461591857600080fd5b50565b615924816156b8565b811461592f57600080fd5b50565b61593b81615704565b811461594657600080fd5b5056fea264697066735822122067fe38ce0ed2412cda7b8ebbbaf726b410d72c28c84b6ebe17dc5f3627ee763564736f6c63430008000033608060405234801561001057600080fd5b5061002d61002261003260201b60201c565b61003a60201b60201c565b6100fe565b600033905090565b60008060009054906101000a900473ffffffffffffffffffffffffffffffffffffffff169050816000806101000a81548173ffffffffffffffffffffffffffffffffffffffff021916908373ffffffffffffffffffffffffffffffffffffffff1602179055508173ffffffffffffffffffffffffffffffffffffffff168173ffffffffffffffffffffffffffffffffffffffff167f8be0079c531659141344cd1fd0a4f28419497f9722a3daafe3b4186f6b6457e060405160405180910390a35050565b610bc08061010d6000396000f3fe6080604052600436106100555760003560e01c806351cff8d91461005a578063715018a6146100835780638da5cb5b1461009a578063e3a9db1a146100c5578063f2fde38b14610102578063f340fa011461012b575b600080fd5b34801561006657600080fd5b50610081600480360381019061007c91906107f5565b610147565b005b34801561008f57600080fd5b506100986102c7565b005b3480156100a657600080fd5b506100af61034f565b6040516100bc91906109b7565b60405180910390f35b3480156100d157600080fd5b506100ec60048036038101906100e791906107cc565b610378565b6040516100f99190610a52565b60405180910390f35b34801561010e57600080fd5b50610129600480360381019061012491906107cc565b6103c1565b005b610145600480360381019061014091906107cc565b6104b9565b005b61014f6105e2565b73ffffffffffffffffffffffffffffffffffffffff1661016d61034f565b73ffffffffffffffffffffffffffffffffffffffff16146101c3576040517f08c379a00000000000000000000000000000000000000000000000000000000081526004016101ba90610a32565b60405180910390fd5b6000600160008373ffffffffffffffffffffffffffffffffffffffff1673ffffffffffffffffffffffffffffffffffffffff1681526020019081526020016000205490506000600160008473ffffffffffffffffffffffffffffffffffffffff1673ffffffffffffffffffffffffffffffffffffffff16815260200190815260200160002081905550610275818373ffffffffffffffffffffffffffffffffffffffff166105ea90919063ffffffff16565b8173ffffffffffffffffffffffffffffffffffffffff167f7084f5476618d8e60b11ef0d7d3f06914655adb8793e28ff7f018d4c76d505d5826040516102bb9190610a52565b60405180910390a25050565b6102cf6105e2565b73ffffffffffffffffffffffffffffffffffffffff166102ed61034f565b73ffffffffffffffffffffffffffffffffffffffff1614610343576040517f08c379a000000000000000000000000000000000000000000000000000000000815260040161033a90610a32565b60405180910390fd5b61034d60006106de565b565b60008060009054906101000a900473ffffffffffffffffffffffffffffffffffffffff16905090565b6000600160008373ffffffffffffffffffffffffffffffffffffffff1673ffffffffffffffffffffffffffffffffffffffff168152602001908152602001600020549050919050565b6103c96105e2565b73ffffffffffffffffffffffffffffffffffffffff166103e761034f565b73ffffffffffffffffffffffffffffffffffffffff161461043d576040517f08c379a000000000000000000000000000000000000000000000000000000000815260040161043490610a32565b60405180910390fd5b600073ffffffffffffffffffffffffffffffffffffffff168173ffffffffffffffffffffffffffffffffffffffff1614156104ad576040517f08c379a00000000000000000000000000000000000000000000000000000000081526004016104a4906109d2565b60405180910390fd5b6104b6816106de565b50565b6104c16105e2565b73ffffffffffffffffffffffffffffffffffffffff166104df61034f565b73ffffffffffffffffffffffffffffffffffffffff1614610535576040517f08c379a000000000000000000000000000000000000000000000000000000000815260040161052c90610a32565b60405180910390fd5b600034905080600160008473ffffffffffffffffffffffffffffffffffffffff1673ffffffffffffffffffffffffffffffffffffffff16815260200190815260200160002060008282546105899190610a89565b925050819055508173ffffffffffffffffffffffffffffffffffffffff167f2da466a7b24304f47e87fa2e1e5a81b9831ce54fec19055ce277ca2f39ba42c4826040516105d69190610a52565b60405180910390a25050565b600033905090565b8047101561062d576040517f08c379a000000000000000000000000000000000000000000000000000000000815260040161062490610a12565b60405180910390fd5b60008273ffffffffffffffffffffffffffffffffffffffff1682604051610653906109a2565b60006040518083038185875af1925050503d8060008114610690576040519150601f19603f3d011682016040523d82523d6000602084013e610695565b606091505b50509050806106d9576040517f08c379a00000000000000000000000000000000000000000000000000000000081526004016106d0906109f2565b60405180910390fd5b505050565b60008060009054906101000a900473ffffffffffffffffffffffffffffffffffffffff169050816000806101000a81548173ffffffffffffffffffffffffffffffffffffffff021916908373ffffffffffffffffffffffffffffffffffffffff1602179055508173ffffffffffffffffffffffffffffffffffffffff168173ffffffffffffffffffffffffffffffffffffffff167f8be0079c531659141344cd1fd0a4f28419497f9722a3daafe3b4186f6b6457e060405160405180910390a35050565b6000813590506107b181610b5c565b92915050565b6000813590506107c681610b73565b92915050565b6000602082840312156107de57600080fd5b60006107ec848285016107a2565b91505092915050565b60006020828403121561080757600080fd5b6000610815848285016107b7565b91505092915050565b61082781610adf565b82525050565b600061083a602683610a78565b91507f4f776e61626c653a206e6577206f776e657220697320746865207a65726f206160008301527f64647265737300000000000000000000000000000000000000000000000000006020830152604082019050919050565b60006108a0603a83610a78565b91507f416464726573733a20756e61626c6520746f2073656e642076616c75652c207260008301527f6563697069656e74206d617920686176652072657665727465640000000000006020830152604082019050919050565b6000610906601d83610a78565b91507f416464726573733a20696e73756666696369656e742062616c616e63650000006000830152602082019050919050565b6000610946602083610a78565b91507f4f776e61626c653a2063616c6c6572206973206e6f7420746865206f776e65726000830152602082019050919050565b6000610986600083610a6d565b9150600082019050919050565b61099c81610b23565b82525050565b60006109ad82610979565b9150819050919050565b60006020820190506109cc600083018461081e565b92915050565b600060208201905081810360008301526109eb8161082d565b9050919050565b60006020820190508181036000830152610a0b81610893565b9050919050565b60006020820190508181036000830152610a2b816108f9565b9050919050565b60006020820190508181036000830152610a4b81610939565b9050919050565b6000602082019050610a676000830184610993565b92915050565b600081905092915050565b600082825260208201905092915050565b6000610a9482610b23565b9150610a9f83610b23565b9250827fffffffffffffffffffffffffffffffffffffffffffffffffffffffffffffffff03821115610ad457610ad3610b2d565b5b828201905092915050565b6000610aea82610b03565b9050919050565b6000610afc82610b03565b9050919050565b600073ffffffffffffffffffffffffffffffffffffffff82169050919050565b6000819050919050565b7f4e487b7100000000000000000000000000000000000000000000000000000000600052601160045260246000fd5b610b6581610adf565b8114610b7057600080fd5b50565b610b7c81610af1565b8114610b8757600080fd5b5056fea26469706673582212204e8ab707adc9ee645b828ddc4f791bd246fea3a80e8eeba1ce50ca1d3c28c2cb64736f6c63430008000033",
  "linkReferences": {},
  "deployedLinkReferences": {}
}