{
  "_format": "hh-sol-artifact-1",
  "contractName": "FULLNFT",
  "sourceName": "contracts/AZNFT.sol",
  "abi": [
    {
      "inputs": [
        {
          "internalType": "string",
          "name": "_name",
          "type": "string"
        },
        {
          "internalType": "string",
          "name": "_symbol",
          "type": "string"
        },
        {
          "internalType": "string",
          "name": "_hiddenMetadata",
          "type": "string"
        },
        {
          "internalType": "string",
          "name": "_contractMetadata",
          "type": "string"
        }
      ],
      "stateMutability": "nonpayable",
      "type": "constructor"
    },
    {
      "anonymous": false,
      "inputs": [
        {
          "indexed": true,
          "internalType": "address",
          "name": "owner",
          "type": "address"
        },
        {
          "indexed": true,
          "internalType": "address",
          "name": "approved",
          "type": "address"
        },
        {
          "indexed": true,
          "internalType": "uint256",
          "name": "tokenId",
          "type": "uint256"
        }
      ],
      "name": "Approval",
      "type": "event"
    },
    {
      "anonymous": false,
      "inputs": [
        {
          "indexed": true,
          "internalType": "address",
          "name": "owner",
          "type": "address"
        },
        {
          "indexed": true,
          "internalType": "address",
          "name": "operator",
          "type": "address"
        },
        {
          "indexed": false,
          "internalType": "bool",
          "name": "approved",
          "type": "bool"
        }
      ],
      "name": "ApprovalForAll",
      "type": "event"
    },
    {
      "anonymous": false,
      "inputs": [
        {
          "indexed": true,
          "internalType": "address",
          "name": "previousOwner",
          "type": "address"
        },
        {
          "indexed": true,
          "internalType": "address",
          "name": "newOwner",
          "type": "address"
        }
      ],
      "name": "OwnershipTransferred",
      "type": "event"
    },
    {
      "anonymous": false,
      "inputs": [
        {
          "indexed": true,
          "internalType": "address",
          "name": "from",
          "type": "address"
        },
        {
          "indexed": true,
          "internalType": "address",
          "name": "to",
          "type": "address"
        },
        {
          "indexed": true,
          "internalType": "uint256",
          "name": "tokenId",
          "type": "uint256"
        }
      ],
      "name": "Transfer",
      "type": "event"
    },
    {
      "inputs": [],
      "name": "_baseFileType",
      "outputs": [
        {
          "internalType": "string",
          "name": "",
          "type": "string"
        }
      ],
      "stateMutability": "view",
      "type": "function"
    },
    {
      "inputs": [],
      "name": "_baseTokenURI",
      "outputs": [
        {
          "internalType": "string",
          "name": "",
          "type": "string"
        }
      ],
      "stateMutability": "view",
      "type": "function"
    },
    {
      "inputs": [],
      "name": "_contractMetadataURI",
      "outputs": [
        {
          "internalType": "string",
          "name": "",
          "type": "string"
        }
      ],
      "stateMutability": "view",
      "type": "function"
    },
    {
      "inputs": [],
      "name": "_hiddenMetadataURI",
      "outputs": [
        {
          "internalType": "string",
          "name": "",
          "type": "string"
        }
      ],
      "stateMutability": "view",
      "type": "function"
    },
    {
      "inputs": [],
      "name": "_maxMintPerTx",
      "outputs": [
        {
          "internalType": "uint8",
          "name": "",
          "type": "uint8"
        }
      ],
      "stateMutability": "view",
      "type": "function"
    },
    {
      "inputs": [],
      "name": "_maxSupply",
      "outputs": [
        {
          "internalType": "uint256",
          "name": "",
          "type": "uint256"
        }
      ],
      "stateMutability": "view",
      "type": "function"
    },
    {
      "inputs": [],
      "name": "_mintPrice",
      "outputs": [
        {
          "internalType": "uint256",
          "name": "",
          "type": "uint256"
        }
      ],
      "stateMutability": "view",
      "type": "function"
    },
    {
      "inputs": [],
      "name": "_presaleMaxMint",
      "outputs": [
        {
          "internalType": "uint8",
          "name": "",
          "type": "uint8"
        }
      ],
      "stateMutability": "view",
      "type": "function"
    },
    {
      "inputs": [],
      "name": "_provenance",
      "outputs": [
        {
          "internalType": "string",
          "name": "",
          "type": "string"
        }
      ],
      "stateMutability": "view",
      "type": "function"
    },
    {
      "inputs": [
        {
          "internalType": "address[]",
          "name": "addrs",
          "type": "address[]"
        }
      ],
      "name": "addAddressesToWhitelist",
      "outputs": [],
      "stateMutability": "nonpayable",
      "type": "function"
    },
    {
      "inputs": [
        {
          "internalType": "address",
          "name": "_addressToAirdrop",
          "type": "address"
        }
      ],
      "name": "airdropMint",
      "outputs": [],
      "stateMutability": "nonpayable",
      "type": "function"
    },
    {
      "inputs": [
        {
          "internalType": "address",
          "name": "to",
          "type": "address"
        },
        {
          "internalType": "uint256",
          "name": "tokenId",
          "type": "uint256"
        }
      ],
      "name": "approve",
      "outputs": [],
      "stateMutability": "nonpayable",
      "type": "function"
    },
    {
      "inputs": [
        {
          "internalType": "address",
          "name": "owner",
          "type": "address"
        }
      ],
      "name": "balanceOf",
      "outputs": [
        {
          "internalType": "uint256",
          "name": "",
          "type": "uint256"
        }
      ],
      "stateMutability": "view",
      "type": "function"
    },
    {
      "inputs": [],
      "name": "contractURI",
      "outputs": [
        {
          "internalType": "string",
          "name": "",
          "type": "string"
        }
      ],
      "stateMutability": "view",
      "type": "function"
    },
    {
      "inputs": [],
      "name": "flipPresaleState",
      "outputs": [],
      "stateMutability": "nonpayable",
      "type": "function"
    },
    {
      "inputs": [],
      "name": "flipPublicSaleState",
      "outputs": [],
      "stateMutability": "nonpayable",
      "type": "function"
    },
    {
      "inputs": [],
      "name": "flipRevealed",
      "outputs": [],
      "stateMutability": "nonpayable",
      "type": "function"
    },
    {
      "inputs": [
        {
          "internalType": "uint256",
          "name": "tokenId",
          "type": "uint256"
        }
      ],
      "name": "getApproved",
      "outputs": [
        {
          "internalType": "address",
          "name": "",
          "type": "address"
        }
      ],
      "stateMutability": "view",
      "type": "function"
    },
    {
      "inputs": [
        {
          "internalType": "address",
          "name": "owner",
          "type": "address"
        },
        {
          "internalType": "address",
          "name": "operator",
          "type": "address"
        }
      ],
      "name": "isApprovedForAll",
      "outputs": [
        {
          "internalType": "bool",
          "name": "",
          "type": "bool"
        }
      ],
      "stateMutability": "view",
      "type": "function"
    },
    {
      "inputs": [],
      "name": "isPresaleActive",
      "outputs": [
        {
          "internalType": "bool",
          "name": "",
          "type": "bool"
        }
      ],
      "stateMutability": "view",
      "type": "function"
    },
    {
      "inputs": [],
      "name": "isPublicSaleActive",
      "outputs": [
        {
          "internalType": "bool",
          "name": "",
          "type": "bool"
        }
      ],
      "stateMutability": "view",
      "type": "function"
    },
    {
      "inputs": [
        {
          "internalType": "address",
          "name": "addr",
          "type": "address"
        }
      ],
      "name": "isWhitelisted",
      "outputs": [
        {
          "internalType": "bool",
          "name": "isWhiteListed",
          "type": "bool"
        }
      ],
      "stateMutability": "view",
      "type": "function"
    },
    {
      "inputs": [],
      "name": "name",
      "outputs": [
        {
          "internalType": "string",
          "name": "",
          "type": "string"
        }
      ],
      "stateMutability": "view",
      "type": "function"
    },
    {
      "inputs": [],
      "name": "owner",
      "outputs": [
        {
          "internalType": "address",
          "name": "",
          "type": "address"
        }
      ],
      "stateMutability": "view",
      "type": "function"
    },
    {
      "inputs": [
        {
          "internalType": "uint256",
          "name": "tokenId",
          "type": "uint256"
        }
      ],
      "name": "ownerOf",
      "outputs": [
        {
          "internalType": "address",
          "name": "",
          "type": "address"
        }
      ],
      "stateMutability": "view",
      "type": "function"
    },
    {
      "inputs": [
        {
          "internalType": "address",
          "name": "dest",
          "type": "address"
        }
      ],
      "name": "payments",
      "outputs": [
        {
          "internalType": "uint256",
          "name": "",
          "type": "uint256"
        }
      ],
      "stateMutability": "view",
      "type": "function"
    },
    {
      "inputs": [
        {
          "internalType": "uint256",
          "name": "_mintAmount",
          "type": "uint256"
        }
      ],
      "name": "presaleMint",
      "outputs": [],
      "stateMutability": "payable",
      "type": "function"
    },
    {
      "inputs": [
        {
          "internalType": "uint256",
          "name": "_mintAmount",
          "type": "uint256"
        }
      ],
      "name": "publicMint",
      "outputs": [],
      "stateMutability": "payable",
      "type": "function"
    },
    {
      "inputs": [],
      "name": "renounceOwnership",
      "outputs": [],
      "stateMutability": "nonpayable",
      "type": "function"
    },
    {
      "inputs": [
        {
          "internalType": "uint256",
          "name": "_tokensToReserve",
          "type": "uint256"
        }
      ],
      "name": "reserveToken",
      "outputs": [],
      "stateMutability": "nonpayable",
      "type": "function"
    },
    {
      "inputs": [],
      "name": "revealed",
      "outputs": [
        {
          "internalType": "bool",
          "name": "",
          "type": "bool"
        }
      ],
      "stateMutability": "view",
      "type": "function"
    },
    {
      "inputs": [
        {
          "internalType": "address",
          "name": "from",
          "type": "address"
        },
        {
          "internalType": "address",
          "name": "to",
          "type": "address"
        },
        {
          "internalType": "uint256",
          "name": "tokenId",
          "type": "uint256"
        }
      ],
      "name": "safeTransferFrom",
      "outputs": [],
      "stateMutability": "nonpayable",
      "type": "function"
    },
    {
      "inputs": [
        {
          "internalType": "address",
          "name": "from",
          "type": "address"
        },
        {
          "internalType": "address",
          "name": "to",
          "type": "address"
        },
        {
          "internalType": "uint256",
          "name": "tokenId",
          "type": "uint256"
        },
        {
          "internalType": "bytes",
          "name": "_data",
          "type": "bytes"
        }
      ],
      "name": "safeTransferFrom",
      "outputs": [],
      "stateMutability": "nonpayable",
      "type": "function"
    },
    {
      "inputs": [
        {
          "internalType": "address",
          "name": "operator",
          "type": "address"
        },
        {
          "internalType": "bool",
          "name": "approved",
          "type": "bool"
        }
      ],
      "name": "setApprovalForAll",
      "outputs": [],
      "stateMutability": "nonpayable",
      "type": "function"
    },
    {
      "inputs": [
        {
          "internalType": "string",
          "name": "_newBaseURI",
          "type": "string"
        }
      ],
      "name": "setBaseTokenURI",
      "outputs": [],
      "stateMutability": "nonpayable",
      "type": "function"
    },
    {
      "inputs": [
        {
          "internalType": "string",
          "name": "_newContractMetadataURI",
          "type": "string"
        }
      ],
      "name": "setContractMetadataURI",
      "outputs": [],
      "stateMutability": "nonpayable",
      "type": "function"
    },
    {
      "inputs": [
        {
          "internalType": "string",
          "name": "_newHiddenMetadataURI",
          "type": "string"
        }
      ],
      "name": "setHiddenMetadataURI",
      "outputs": [],
      "stateMutability": "nonpayable",
      "type": "function"
    },
    {
      "inputs": [
        {
          "internalType": "string",
          "name": "_provenanceHash",
          "type": "string"
        }
      ],
      "name": "setProvenanceHash",
      "outputs": [],
      "stateMutability": "nonpayable",
      "type": "function"
    },
    {
      "inputs": [
        {
          "internalType": "bytes4",
          "name": "interfaceId",
          "type": "bytes4"
        }
      ],
      "name": "supportsInterface",
      "outputs": [
        {
          "internalType": "bool",
          "name": "",
          "type": "bool"
        }
      ],
      "stateMutability": "view",
      "type": "function"
    },
    {
      "inputs": [],
      "name": "symbol",
      "outputs": [
        {
          "internalType": "string",
          "name": "",
          "type": "string"
        }
      ],
      "stateMutability": "view",
      "type": "function"
    },
    {
      "inputs": [
        {
          "internalType": "uint256",
          "name": "tokenId",
          "type": "uint256"
        }
      ],
      "name": "tokenURI",
      "outputs": [
        {
          "internalType": "string",
          "name": "",
          "type": "string"
        }
      ],
      "stateMutability": "view",
      "type": "function"
    },
    {
      "inputs": [],
      "name": "totalSupply",
      "outputs": [
        {
          "internalType": "uint256",
          "name": "",
          "type": "uint256"
        }
      ],
      "stateMutability": "view",
      "type": "function"
    },
    {
      "inputs": [
        {
          "internalType": "address",
          "name": "from",
          "type": "address"
        },
        {
          "internalType": "address",
          "name": "to",
          "type": "address"
        },
        {
          "internalType": "uint256",
          "name": "tokenId",
          "type": "uint256"
        }
      ],
      "name": "transferFrom",
      "outputs": [],
      "stateMutability": "nonpayable",
      "type": "function"
    },
    {
      "inputs": [
        {
          "internalType": "address",
          "name": "newOwner",
          "type": "address"
        }
      ],
      "name": "transferOwnership",
      "outputs": [],
      "stateMutability": "nonpayable",
      "type": "function"
    },
    {
      "inputs": [
        {
          "internalType": "address",
          "name": "",
          "type": "address"
        }
      ],
      "name": "whitelist",
      "outputs": [
        {
          "internalType": "address",
          "name": "addr",
          "type": "address"
        },
        {
          "internalType": "uint256",
          "name": "hasMinted",
          "type": "uint256"
        }
      ],
      "stateMutability": "view",
      "type": "function"
    },
    {
      "inputs": [
        {
          "internalType": "address payable",
          "name": "payee",
          "type": "address"
        }
      ],
      "name": "withdrawPayments",
      "outputs": [],
      "stateMutability": "nonpayable",
      "type": "function"
    }
  ],
  "bytecode": "0x60a06040526000600c60006101000a81548160ff0219169083151502179055506000600c60016101000a81548160ff0219169083151502179055506000600c60026101000a81548160ff0219169083151502179055503480156200006257600080fd5b506040516200612a3803806200612a8339818101604052810190620000889190620004ea565b83838160009080519060200190620000a2929190620003ba565b508060019080519060200190620000bb929190620003ba565b505050604051620000cc906200044b565b604051809103906000f080158015620000e9573d6000803e3d6000fd5b5073ffffffffffffffffffffffffffffffffffffffff1660808173ffffffffffffffffffffffffffffffffffffffff1660601b8152505062000140620001346200016c60201b60201c565b6200017460201b60201c565b62000151816200023a60201b60201c565b6200016282620002e560201b60201c565b5050505062000760565b600033905090565b6000600660009054906101000a900473ffffffffffffffffffffffffffffffffffffffff16905081600660006101000a81548173ffffffffffffffffffffffffffffffffffffffff021916908373ffffffffffffffffffffffffffffffffffffffff1602179055508173ffffffffffffffffffffffffffffffffffffffff168173ffffffffffffffffffffffffffffffffffffffff167f8be0079c531659141344cd1fd0a4f28419497f9722a3daafe3b4186f6b6457e060405160405180910390a35050565b6200024a6200016c60201b60201c565b73ffffffffffffffffffffffffffffffffffffffff16620002706200039060201b60201c565b73ffffffffffffffffffffffffffffffffffffffff1614620002c9576040517f08c379a0000000000000000000000000000000000000000000000000000000008152600401620002c090620005fc565b60405180910390fd5b80600b9080519060200190620002e1929190620003ba565b5050565b620002f56200016c60201b60201c565b73ffffffffffffffffffffffffffffffffffffffff166200031b6200039060201b60201c565b73ffffffffffffffffffffffffffffffffffffffff161462000374576040517f08c379a00000000000000000000000000000000000000000000000000000000081526004016200036b90620005fc565b60405180910390fd5b80600990805190602001906200038c929190620003ba565b5050565b6000600660009054906101000a900473ffffffffffffffffffffffffffffffffffffffff16905090565b828054620003c890620006cc565b90600052602060002090601f016020900481019282620003ec576000855562000438565b82601f106200040757805160ff191683800117855562000438565b8280016001018555821562000438579182015b82811115620004375782518255916020019190600101906200041a565b5b50905062000447919062000459565b5090565b610ccd806200545d83390190565b5b80821115620004745760008160009055506001016200045a565b5090565b60006200048f620004898462000652565b6200061e565b905082815260208101848484011115620004a857600080fd5b620004b584828562000696565b509392505050565b600082601f830112620004cf57600080fd5b8151620004e184826020860162000478565b91505092915050565b600080600080608085870312156200050157600080fd5b600085015167ffffffffffffffff8111156200051c57600080fd5b6200052a87828801620004bd565b945050602085015167ffffffffffffffff8111156200054857600080fd5b6200055687828801620004bd565b935050604085015167ffffffffffffffff8111156200057457600080fd5b6200058287828801620004bd565b925050606085015167ffffffffffffffff811115620005a057600080fd5b620005ae87828801620004bd565b91505092959194509250565b6000620005c960208362000685565b91507f4f776e61626c653a2063616c6c6572206973206e6f7420746865206f776e65726000830152602082019050919050565b600060208201905081810360008301526200061781620005ba565b9050919050565b6000604051905081810181811067ffffffffffffffff8211171562000648576200064762000731565b5b8060405250919050565b600067ffffffffffffffff82111562000670576200066f62000731565b5b601f19601f8301169050602081019050919050565b600082825260208201905092915050565b60005b83811015620006b657808201518184015260208101905062000699565b83811115620006c6576000848401525b50505050565b60006002820490506001821680620006e557607f821691505b60208210811415620006fc57620006fb62000702565b5b50919050565b7f4e487b7100000000000000000000000000000000000000000000000000000000600052602260045260246000fd5b7f4e487b7100000000000000000000000000000000000000000000000000000000600052604160045260246000fd5b60805160601c614cde6200077f600039600061206d0152614cde6000f3fe60806040526004361061027d5760003560e01c80637b5e26af1161014f578063c9b298f1116100c1578063e2982c211161007a578063e2982c2114610947578063e2ec6ec314610984578063e8a3d485146109ad578063e985e9c5146109d8578063f2fde38b14610a15578063f81227d414610a3e5761027d565b8063c9b298f114610854578063cfc86f7b14610870578063d69714e71461089b578063da7191f7146108c6578063de314a59146108f1578063e1bed95a1461091c5761027d565b8063a201fc5011610113578063a201fc5014610746578063a22cb4651461076f578063adb28a1d14610798578063b88d4fde146107c3578063be58787d146107ec578063c87b56dd146108175761027d565b80637b5e26af146106725780638da5cb5b1461069b57806395d89b41146106c65780639b19251a146106f1578063a10866ef1461072f5761027d565b80632db11544116101f3578063512507c6116101ac578063512507c614610562578063518302271461058b57806360d938dc146105b65780636352211e146105e157806370a082311461061e578063715018a61461065b5761027d565b80632db115441461047757806330176e131461049357806331b3eb94146104bc5780633af32abf146104e55780633b2c3fb61461052257806342842e0e146105395761027d565b80631096952311610245578063109695231461037b57806310c0e158146103a457806318160ddd146103cd5780631e84c413146103f857806322f4596f1461042357806323b872dd1461044e5761027d565b806301ffc9a7146102825780630387da42146102bf57806306fdde03146102ea578063081812fc14610315578063095ea7b314610352575b600080fd5b34801561028e57600080fd5b506102a960048036038101906102a491906138d2565b610a55565b6040516102b6919061443f565b60405180910390f35b3480156102cb57600080fd5b506102d4610b37565b6040516102e1919061477c565b60405180910390f35b3480156102f657600080fd5b506102ff610b42565b60405161030c919061445a565b60405180910390f35b34801561032157600080fd5b5061033c60048036038101906103379190613965565b610bd4565b60405161034991906143af565b60405180910390f35b34801561035e57600080fd5b5061037960048036038101906103749190613855565b610c59565b005b34801561038757600080fd5b506103a2600480360381019061039d9190613924565b610d71565b005b3480156103b057600080fd5b506103cb60048036038101906103c69190613965565b610e07565b005b3480156103d957600080fd5b506103e2610ec7565b6040516103ef919061477c565b60405180910390f35b34801561040457600080fd5b5061040d610ed8565b60405161041a919061443f565b60405180910390f35b34801561042f57600080fd5b50610438610eeb565b604051610445919061477c565b60405180910390f35b34801561045a57600080fd5b506104756004803603810190610470919061374f565b610ef0565b005b610491600480360381019061048c9190613965565b610f50565b005b34801561049f57600080fd5b506104ba60048036038101906104b59190613924565b6110ba565b005b3480156104c857600080fd5b506104e360048036038101906104de91906136ea565b611150565b005b3480156104f157600080fd5b5061050c600480360381019061050791906136c1565b611246565b604051610519919061443f565b60405180910390f35b34801561052e57600080fd5b506105376112e0565b005b34801561054557600080fd5b50610560600480360381019061055b919061374f565b611388565b005b34801561056e57600080fd5b5061058960048036038101906105849190613924565b6113a8565b005b34801561059757600080fd5b506105a061143e565b6040516105ad919061443f565b60405180910390f35b3480156105c257600080fd5b506105cb611451565b6040516105d8919061443f565b60405180910390f35b3480156105ed57600080fd5b5061060860048036038101906106039190613965565b611464565b60405161061591906143af565b60405180910390f35b34801561062a57600080fd5b50610645600480360381019061064091906136c1565b611516565b604051610652919061477c565b60405180910390f35b34801561066757600080fd5b506106706115ce565b005b34801561067e57600080fd5b50610699600480360381019061069491906136c1565b611656565b005b3480156106a757600080fd5b506106b06116f8565b6040516106bd91906143af565b60405180910390f35b3480156106d257600080fd5b506106db611722565b6040516106e8919061445a565b60405180910390f35b3480156106fd57600080fd5b50610718600480360381019061071391906136c1565b6117b4565b604051610726929190614416565b60405180910390f35b34801561073b57600080fd5b506107446117f8565b005b34801561075257600080fd5b5061076d60048036038101906107689190613924565b6118a0565b005b34801561077b57600080fd5b5061079660048036038101906107919190613819565b611936565b005b3480156107a457600080fd5b506107ad61194c565b6040516107ba919061445a565b60405180910390f35b3480156107cf57600080fd5b506107ea60048036038101906107e5919061379e565b6119da565b005b3480156107f857600080fd5b50610801611a3c565b60405161080e919061445a565b60405180910390f35b34801561082357600080fd5b5061083e60048036038101906108399190613965565b611aca565b60405161084b919061445a565b60405180910390f35b61086e60048036038101906108699190613965565b611c22565b005b34801561087c57600080fd5b50610885611f0a565b604051610892919061445a565b60405180910390f35b3480156108a757600080fd5b506108b0611f98565b6040516108bd919061445a565b60405180910390f35b3480156108d257600080fd5b506108db612026565b6040516108e89190614797565b60405180910390f35b3480156108fd57600080fd5b5061090661202b565b6040516109139190614797565b60405180910390f35b34801561092857600080fd5b50610931612030565b60405161093e919061445a565b60405180910390f35b34801561095357600080fd5b5061096e600480360381019061096991906136c1565b612069565b60405161097b919061477c565b60405180910390f35b34801561099057600080fd5b506109ab60048036038101906109a69190613891565b61211b565b005b3480156109b957600080fd5b506109c26123cc565b6040516109cf919061445a565b60405180910390f35b3480156109e457600080fd5b506109ff60048036038101906109fa9190613713565b61245e565b604051610a0c919061443f565b60405180910390f35b348015610a2157600080fd5b50610a3c6004803603810190610a3791906136c1565b6124f2565b005b348015610a4a57600080fd5b50610a536125ea565b005b60007f80ac58cd000000000000000000000000000000000000000000000000000000007bffffffffffffffffffffffffffffffffffffffffffffffffffffffff1916827bffffffffffffffffffffffffffffffffffffffffffffffffffffffff19161480610b2057507f5b5e139f000000000000000000000000000000000000000000000000000000007bffffffffffffffffffffffffffffffffffffffffffffffffffffffff1916827bffffffffffffffffffffffffffffffffffffffffffffffffffffffff1916145b80610b305750610b2f82612692565b5b9050919050565b66470de4df82000081565b606060008054610b5190614abc565b80601f0160208091040260200160405190810160405280929190818152602001828054610b7d90614abc565b8015610bca5780601f10610b9f57610100808354040283529160200191610bca565b820191906000526020600020905b815481529060010190602001808311610bad57829003601f168201915b5050505050905090565b6000610bdf826126fc565b610c1e576040517f08c379a0000000000000000000000000000000000000000000000000000000008152600401610c159061469c565b60405180910390fd5b6004600083815260200190815260200160002060009054906101000a900473ffffffffffffffffffffffffffffffffffffffff169050919050565b6000610c6482611464565b90508073ffffffffffffffffffffffffffffffffffffffff168373ffffffffffffffffffffffffffffffffffffffff161415610cd5576040517f08c379a0000000000000000000000000000000000000000000000000000000008152600401610ccc906146fc565b60405180910390fd5b8073ffffffffffffffffffffffffffffffffffffffff16610cf4612768565b73ffffffffffffffffffffffffffffffffffffffff161480610d235750610d2281610d1d612768565b61245e565b5b610d62576040517f08c379a0000000000000000000000000000000000000000000000000000000008152600401610d59906145dc565b60405180910390fd5b610d6c8383612770565b505050565b610d79612768565b73ffffffffffffffffffffffffffffffffffffffff16610d976116f8565b73ffffffffffffffffffffffffffffffffffffffff1614610ded576040517f08c379a0000000000000000000000000000000000000000000000000000000008152600401610de4906146bc565b60405180910390fd5b8060089080519060200190610e03929190613425565b5050565b610e0f612768565b73ffffffffffffffffffffffffffffffffffffffff16610e2d6116f8565b73ffffffffffffffffffffffffffffffffffffffff1614610e83576040517f08c379a0000000000000000000000000000000000000000000000000000000008152600401610e7a906146bc565b60405180910390fd5b6000610e8d610ec7565b905060005b82811015610ec257610eaf338284610eaa91906148d2565b612829565b8080610eba90614aee565b915050610e92565b505050565b6000610ed36007612847565b905090565b600c60009054906101000a900460ff1681565b600a81565b610f01610efb612768565b82612855565b610f40576040517f08c379a0000000000000000000000000000000000000000000000000000000008152600401610f379061471c565b60405180910390fd5b610f4b838383612933565b505050565b80610f6b8166470de4df820000612b8f90919063ffffffff16565b341015610fad576040517f08c379a0000000000000000000000000000000000000000000000000000000008152600401610fa49061457c565b60405180910390fd5b600081118015610fc15750600a60ff168111155b611000576040517f08c379a0000000000000000000000000000000000000000000000000000000008152600401610ff79061475c565b60405180910390fd5b600a61101c8261100e610ec7565b612ba590919063ffffffff16565b111561105d576040517f08c379a00000000000000000000000000000000000000000000000000000000081526004016110549061465c565b60405180910390fd5b600c60009054906101000a900460ff166110ac576040517f08c379a00000000000000000000000000000000000000000000000000000000081526004016110a39061447c565b60405180910390fd5b6110b63383612bbb565b5050565b6110c2612768565b73ffffffffffffffffffffffffffffffffffffffff166110e06116f8565b73ffffffffffffffffffffffffffffffffffffffff1614611136576040517f08c379a000000000000000000000000000000000000000000000000000000000815260040161112d906146bc565b60405180910390fd5b80600a908051906020019061114c929190613425565b5050565b611158612768565b73ffffffffffffffffffffffffffffffffffffffff166111766116f8565b73ffffffffffffffffffffffffffffffffffffffff16146111cc576040517f08c379a00000000000000000000000000000000000000000000000000000000081526004016111c3906146bc565b60405180910390fd5b60008173ffffffffffffffffffffffffffffffffffffffff16476040516111f29061439a565b60006040518083038185875af1925050503d806000811461122f576040519150601f19603f3d011682016040523d82523d6000602084013e611234565b606091505b505090508061124257600080fd5b5050565b60008173ffffffffffffffffffffffffffffffffffffffff16600d60008473ffffffffffffffffffffffffffffffffffffffff1673ffffffffffffffffffffffffffffffffffffffff16815260200190815260200160002060000160009054906101000a900473ffffffffffffffffffffffffffffffffffffffff1673ffffffffffffffffffffffffffffffffffffffff16149050919050565b6112e8612768565b73ffffffffffffffffffffffffffffffffffffffff166113066116f8565b73ffffffffffffffffffffffffffffffffffffffff161461135c576040517f08c379a0000000000000000000000000000000000000000000000000000000008152600401611353906146bc565b60405180910390fd5b600c60029054906101000a900460ff1615600c60026101000a81548160ff021916908315150217905550565b6113a3838383604051806020016040528060008152506119da565b505050565b6113b0612768565b73ffffffffffffffffffffffffffffffffffffffff166113ce6116f8565b73ffffffffffffffffffffffffffffffffffffffff1614611424576040517f08c379a000000000000000000000000000000000000000000000000000000000815260040161141b906146bc565b60405180910390fd5b806009908051906020019061143a929190613425565b5050565b600c60029054906101000a900460ff1681565b600c60019054906101000a900460ff1681565b6000806002600084815260200190815260200160002060009054906101000a900473ffffffffffffffffffffffffffffffffffffffff169050600073ffffffffffffffffffffffffffffffffffffffff168173ffffffffffffffffffffffffffffffffffffffff16141561150d576040517f08c379a00000000000000000000000000000000000000000000000000000000081526004016115049061463c565b60405180910390fd5b80915050919050565b60008073ffffffffffffffffffffffffffffffffffffffff168273ffffffffffffffffffffffffffffffffffffffff161415611587576040517f08c379a000000000000000000000000000000000000000000000000000000000815260040161157e9061461c565b60405180910390fd5b600360008373ffffffffffffffffffffffffffffffffffffffff1673ffffffffffffffffffffffffffffffffffffffff168152602001908152602001600020549050919050565b6115d6612768565b73ffffffffffffffffffffffffffffffffffffffff166115f46116f8565b73ffffffffffffffffffffffffffffffffffffffff161461164a576040517f08c379a0000000000000000000000000000000000000000000000000000000008152600401611641906146bc565b60405180910390fd5b6116546000612bfb565b565b61165e612768565b73ffffffffffffffffffffffffffffffffffffffff1661167c6116f8565b73ffffffffffffffffffffffffffffffffffffffff16146116d2576040517f08c379a00000000000000000000000000000000000000000000000000000000081526004016116c9906146bc565b60405180910390fd5b60006116dc610ec7565b90506116f4826001836116ef91906148d2565b612829565b5050565b6000600660009054906101000a900473ffffffffffffffffffffffffffffffffffffffff16905090565b60606001805461173190614abc565b80601f016020809104026020016040519081016040528092919081815260200182805461175d90614abc565b80156117aa5780601f1061177f576101008083540402835291602001916117aa565b820191906000526020600020905b81548152906001019060200180831161178d57829003601f168201915b5050505050905090565b600d6020528060005260406000206000915090508060000160009054906101000a900473ffffffffffffffffffffffffffffffffffffffff16908060010154905082565b611800612768565b73ffffffffffffffffffffffffffffffffffffffff1661181e6116f8565b73ffffffffffffffffffffffffffffffffffffffff1614611874576040517f08c379a000000000000000000000000000000000000000000000000000000000815260040161186b906146bc565b60405180910390fd5b600c60009054906101000a900460ff1615600c60006101000a81548160ff021916908315150217905550565b6118a8612768565b73ffffffffffffffffffffffffffffffffffffffff166118c66116f8565b73ffffffffffffffffffffffffffffffffffffffff161461191c576040517f08c379a0000000000000000000000000000000000000000000000000000000008152600401611913906146bc565b60405180910390fd5b80600b9080519060200190611932929190613425565b5050565b611948611941612768565b8383612cc1565b5050565b600b805461195990614abc565b80601f016020809104026020016040519081016040528092919081815260200182805461198590614abc565b80156119d25780601f106119a7576101008083540402835291602001916119d2565b820191906000526020600020905b8154815290600101906020018083116119b557829003601f168201915b505050505081565b6119eb6119e5612768565b83612855565b611a2a576040517f08c379a0000000000000000000000000000000000000000000000000000000008152600401611a219061471c565b60405180910390fd5b611a3684848484612e2e565b50505050565b60098054611a4990614abc565b80601f0160208091040260200160405190810160405280929190818152602001828054611a7590614abc565b8015611ac25780601f10611a9757610100808354040283529160200191611ac2565b820191906000526020600020905b815481529060010190602001808311611aa557829003601f168201915b505050505081565b6060611ad5826126fc565b611b14576040517f08c379a0000000000000000000000000000000000000000000000000000000008152600401611b0b9061449c565b60405180910390fd5b600c60029054906101000a900460ff16611bb85760098054611b3590614abc565b80601f0160208091040260200160405190810160405280929190818152602001828054611b6190614abc565b8015611bae5780601f10611b8357610100808354040283529160200191611bae565b820191906000526020600020905b815481529060010190602001808311611b9157829003601f168201915b5050505050611c1b565b600a611bc383612e8a565b6040518060400160405280600581526020017f2e6a736f6e000000000000000000000000000000000000000000000000000000815250604051602001611c0b93929190614369565b6040516020818303038152906040525b9050919050565b80611c3d8166470de4df820000612b8f90919063ffffffff16565b341015611c7f576040517f08c379a0000000000000000000000000000000000000000000000000000000008152600401611c769061457c565b60405180910390fd5b600081118015611c935750600a60ff168111155b611cd2576040517f08c379a0000000000000000000000000000000000000000000000000000000008152600401611cc99061475c565b60405180910390fd5b600a611cee82611ce0610ec7565b612ba590919063ffffffff16565b1115611d2f576040517f08c379a0000000000000000000000000000000000000000000000000000000008152600401611d269061465c565b60405180910390fd5b600c60019054906101000a900460ff16611d7e576040517f08c379a0000000000000000000000000000000000000000000000000000000008152600401611d75906145fc565b60405180910390fd5b611d8733611246565b611dc6576040517f08c379a0000000000000000000000000000000000000000000000000000000008152600401611dbd9061455c565b60405180910390fd5b601e60ff16611e2083600d60003373ffffffffffffffffffffffffffffffffffffffff1673ffffffffffffffffffffffffffffffffffffffff16815260200190815260200160002060010154612ba590919063ffffffff16565b1115611e61576040517f08c379a0000000000000000000000000000000000000000000000000000000008152600401611e58906145bc565b60405180910390fd5b611eb682600d60003373ffffffffffffffffffffffffffffffffffffffff1673ffffffffffffffffffffffffffffffffffffffff16815260200190815260200160002060010154612ba590919063ffffffff16565b600d60003373ffffffffffffffffffffffffffffffffffffffff1673ffffffffffffffffffffffffffffffffffffffff16815260200190815260200160002060010181905550611f063383612bbb565b5050565b600a8054611f1790614abc565b80601f0160208091040260200160405190810160405280929190818152602001828054611f4390614abc565b8015611f905780601f10611f6557610100808354040283529160200191611f90565b820191906000526020600020905b815481529060010190602001808311611f7357829003601f168201915b505050505081565b60088054611fa590614abc565b80601f0160208091040260200160405190810160405280929190818152602001828054611fd190614abc565b801561201e5780601f10611ff35761010080835404028352916020019161201e565b820191906000526020600020905b81548152906001019060200180831161200157829003601f168201915b505050505081565b601e81565b600a81565b6040518060400160405280600581526020017f2e6a736f6e00000000000000000000000000000000000000000000000000000081525081565b60007f000000000000000000000000000000000000000000000000000000000000000073ffffffffffffffffffffffffffffffffffffffff1663e3a9db1a836040518263ffffffff1660e01b81526004016120c491906143af565b60206040518083038186803b1580156120dc57600080fd5b505afa1580156120f0573d6000803e3d6000fd5b505050506040513d601f19601f82011682018060405250810190612114919061398e565b9050919050565b612123612768565b73ffffffffffffffffffffffffffffffffffffffff166121416116f8565b73ffffffffffffffffffffffffffffffffffffffff1614612197576040517f08c379a000000000000000000000000000000000000000000000000000000000815260040161218e906146bc565b60405180910390fd5b60005b81518110156123c8576121ec8282815181106121df577f4e487b7100000000000000000000000000000000000000000000000000000000600052603260045260246000fd5b6020026020010151611246565b1561222c576040517f08c379a00000000000000000000000000000000000000000000000000000000081526004016122239061473c565b60405180910390fd5b818181518110612265577f4e487b7100000000000000000000000000000000000000000000000000000000600052603260045260246000fd5b6020026020010151600d60008484815181106122aa577f4e487b7100000000000000000000000000000000000000000000000000000000600052603260045260246000fd5b602002602001015173ffffffffffffffffffffffffffffffffffffffff1673ffffffffffffffffffffffffffffffffffffffff16815260200190815260200160002060000160006101000a81548173ffffffffffffffffffffffffffffffffffffffff021916908373ffffffffffffffffffffffffffffffffffffffff1602179055506000600d600084848151811061236c577f4e487b7100000000000000000000000000000000000000000000000000000000600052603260045260246000fd5b602002602001015173ffffffffffffffffffffffffffffffffffffffff1673ffffffffffffffffffffffffffffffffffffffff1681526020019081526020016000206001018190555080806123c090614aee565b91505061219a565b5050565b6060600b80546123db90614abc565b80601f016020809104026020016040519081016040528092919081815260200182805461240790614abc565b80156124545780601f1061242957610100808354040283529160200191612454565b820191906000526020600020905b81548152906001019060200180831161243757829003601f168201915b5050505050905090565b6000600560008473ffffffffffffffffffffffffffffffffffffffff1673ffffffffffffffffffffffffffffffffffffffff16815260200190815260200160002060008373ffffffffffffffffffffffffffffffffffffffff1673ffffffffffffffffffffffffffffffffffffffff16815260200190815260200160002060009054906101000a900460ff16905092915050565b6124fa612768565b73ffffffffffffffffffffffffffffffffffffffff166125186116f8565b73ffffffffffffffffffffffffffffffffffffffff161461256e576040517f08c379a0000000000000000000000000000000000000000000000000000000008152600401612565906146bc565b60405180910390fd5b600073ffffffffffffffffffffffffffffffffffffffff168173ffffffffffffffffffffffffffffffffffffffff1614156125de576040517f08c379a00000000000000000000000000000000000000000000000000000000081526004016125d5906144dc565b60405180910390fd5b6125e781612bfb565b50565b6125f2612768565b73ffffffffffffffffffffffffffffffffffffffff166126106116f8565b73ffffffffffffffffffffffffffffffffffffffff1614612666576040517f08c379a000000000000000000000000000000000000000000000000000000000815260040161265d906146bc565b60405180910390fd5b600c60019054906101000a900460ff1615600c60016101000a81548160ff021916908315150217905550565b60007f01ffc9a7000000000000000000000000000000000000000000000000000000007bffffffffffffffffffffffffffffffffffffffffffffffffffffffff1916827bffffffffffffffffffffffffffffffffffffffffffffffffffffffff1916149050919050565b60008073ffffffffffffffffffffffffffffffffffffffff166002600084815260200190815260200160002060009054906101000a900473ffffffffffffffffffffffffffffffffffffffff1673ffffffffffffffffffffffffffffffffffffffff1614159050919050565b600033905090565b816004600083815260200190815260200160002060006101000a81548173ffffffffffffffffffffffffffffffffffffffff021916908373ffffffffffffffffffffffffffffffffffffffff160217905550808273ffffffffffffffffffffffffffffffffffffffff166127e383611464565b73ffffffffffffffffffffffffffffffffffffffff167f8c5be1e5ebec7d5bd14f71427d1e84f3dd0314c0f7b2291e5b200ac8c7c3b92560405160405180910390a45050565b612843828260405180602001604052806000815250613037565b5050565b600081600001549050919050565b6000612860826126fc565b61289f576040517f08c379a00000000000000000000000000000000000000000000000000000000081526004016128969061459c565b60405180910390fd5b60006128aa83611464565b90508073ffffffffffffffffffffffffffffffffffffffff168473ffffffffffffffffffffffffffffffffffffffff16148061291957508373ffffffffffffffffffffffffffffffffffffffff1661290184610bd4565b73ffffffffffffffffffffffffffffffffffffffff16145b8061292a5750612929818561245e565b5b91505092915050565b8273ffffffffffffffffffffffffffffffffffffffff1661295382611464565b73ffffffffffffffffffffffffffffffffffffffff16146129a9576040517f08c379a00000000000000000000000000000000000000000000000000000000081526004016129a0906146dc565b60405180910390fd5b600073ffffffffffffffffffffffffffffffffffffffff168273ffffffffffffffffffffffffffffffffffffffff161415612a19576040517f08c379a0000000000000000000000000000000000000000000000000000000008152600401612a109061451c565b60405180910390fd5b612a24838383613092565b612a2f600082612770565b6001600360008573ffffffffffffffffffffffffffffffffffffffff1673ffffffffffffffffffffffffffffffffffffffff1681526020019081526020016000206000828254612a7f91906149b3565b925050819055506001600360008473ffffffffffffffffffffffffffffffffffffffff1673ffffffffffffffffffffffffffffffffffffffff1681526020019081526020016000206000828254612ad691906148d2565b92505081905550816002600083815260200190815260200160002060006101000a81548173ffffffffffffffffffffffffffffffffffffffff021916908373ffffffffffffffffffffffffffffffffffffffff160217905550808273ffffffffffffffffffffffffffffffffffffffff168473ffffffffffffffffffffffffffffffffffffffff167fddf252ad1be2c89b69c2b068fc378daa952ba7f163c4a11628f55a4df523b3ef60405160405180910390a4505050565b60008183612b9d9190614959565b905092915050565b60008183612bb391906148d2565b905092915050565b60005b81811015612bf657612bd06007613097565b612be383612bde6007612847565b612829565b8080612bee90614aee565b915050612bbe565b505050565b6000600660009054906101000a900473ffffffffffffffffffffffffffffffffffffffff16905081600660006101000a81548173ffffffffffffffffffffffffffffffffffffffff021916908373ffffffffffffffffffffffffffffffffffffffff1602179055508173ffffffffffffffffffffffffffffffffffffffff168173ffffffffffffffffffffffffffffffffffffffff167f8be0079c531659141344cd1fd0a4f28419497f9722a3daafe3b4186f6b6457e060405160405180910390a35050565b8173ffffffffffffffffffffffffffffffffffffffff168373ffffffffffffffffffffffffffffffffffffffff161415612d30576040517f08c379a0000000000000000000000000000000000000000000000000000000008152600401612d279061453c565b60405180910390fd5b80600560008573ffffffffffffffffffffffffffffffffffffffff1673ffffffffffffffffffffffffffffffffffffffff16815260200190815260200160002060008473ffffffffffffffffffffffffffffffffffffffff1673ffffffffffffffffffffffffffffffffffffffff16815260200190815260200160002060006101000a81548160ff0219169083151502179055508173ffffffffffffffffffffffffffffffffffffffff168373ffffffffffffffffffffffffffffffffffffffff167f17307eab39ab6107e8899845ad3d59bd9653f200f220920489ca2b5937696c3183604051612e21919061443f565b60405180910390a3505050565b612e39848484612933565b612e45848484846130ad565b612e84576040517f08c379a0000000000000000000000000000000000000000000000000000000008152600401612e7b906144bc565b60405180910390fd5b50505050565b60606000821415612ed2576040518060400160405280600181526020017f30000000000000000000000000000000000000000000000000000000000000008152509050613032565b600082905060005b60008214612f04578080612eed90614aee565b915050600a82612efd9190614928565b9150612eda565b60008167ffffffffffffffff811115612f46577f4e487b7100000000000000000000000000000000000000000000000000000000600052604160045260246000fd5b6040519080825280601f01601f191660200182016040528015612f785781602001600182028036833780820191505090505b5090505b6000851461302b57600182612f9191906149b3565b9150600a85612fa09190614b37565b6030612fac91906148d2565b60f81b818381518110612fe8577f4e487b7100000000000000000000000000000000000000000000000000000000600052603260045260246000fd5b60200101907effffffffffffffffffffffffffffffffffffffffffffffffffffffffffffff1916908160001a905350600a856130249190614928565b9450612f7c565b8093505050505b919050565b6130418383613244565b61304e60008484846130ad565b61308d576040517f08c379a0000000000000000000000000000000000000000000000000000000008152600401613084906144bc565b60405180910390fd5b505050565b505050565b6001816000016000828254019250508190555050565b60006130ce8473ffffffffffffffffffffffffffffffffffffffff16613412565b15613237578373ffffffffffffffffffffffffffffffffffffffff1663150b7a026130f7612768565b8786866040518563ffffffff1660e01b815260040161311994939291906143ca565b602060405180830381600087803b15801561313357600080fd5b505af192505050801561316457506040513d601f19601f8201168201806040525081019061316191906138fb565b60015b6131e7573d8060008114613194576040519150601f19603f3d011682016040523d82523d6000602084013e613199565b606091505b506000815114156131df576040517f08c379a00000000000000000000000000000000000000000000000000000000081526004016131d6906144bc565b60405180910390fd5b805181602001fd5b63150b7a0260e01b7bffffffffffffffffffffffffffffffffffffffffffffffffffffffff1916817bffffffffffffffffffffffffffffffffffffffffffffffffffffffff19161491505061323c565b600190505b949350505050565b600073ffffffffffffffffffffffffffffffffffffffff168273ffffffffffffffffffffffffffffffffffffffff1614156132b4576040517f08c379a00000000000000000000000000000000000000000000000000000000081526004016132ab9061467c565b60405180910390fd5b6132bd816126fc565b156132fd576040517f08c379a00000000000000000000000000000000000000000000000000000000081526004016132f4906144fc565b60405180910390fd5b61330960008383613092565b6001600360008473ffffffffffffffffffffffffffffffffffffffff1673ffffffffffffffffffffffffffffffffffffffff168152602001908152602001600020600082825461335991906148d2565b92505081905550816002600083815260200190815260200160002060006101000a81548173ffffffffffffffffffffffffffffffffffffffff021916908373ffffffffffffffffffffffffffffffffffffffff160217905550808273ffffffffffffffffffffffffffffffffffffffff16600073ffffffffffffffffffffffffffffffffffffffff167fddf252ad1be2c89b69c2b068fc378daa952ba7f163c4a11628f55a4df523b3ef60405160405180910390a45050565b600080823b905060008111915050919050565b82805461343190614abc565b90600052602060002090601f016020900481019282613453576000855561349a565b82601f1061346c57805160ff191683800117855561349a565b8280016001018555821561349a579182015b8281111561349957825182559160200191906001019061347e565b5b5090506134a791906134ab565b5090565b5b808211156134c45760008160009055506001016134ac565b5090565b60006134db6134d6846147e3565b6147b2565b905080838252602082019050828560208602820111156134fa57600080fd5b60005b8581101561352a578161351088826135b0565b8452602084019350602083019250506001810190506134fd565b5050509392505050565b60006135476135428461480f565b6147b2565b90508281526020810184848401111561355f57600080fd5b61356a848285614a7a565b509392505050565b60006135856135808461483f565b6147b2565b90508281526020810184848401111561359d57600080fd5b6135a8848285614a7a565b509392505050565b6000813590506135bf81614c35565b92915050565b6000813590506135d481614c4c565b92915050565b600082601f8301126135eb57600080fd5b81356135fb8482602086016134c8565b91505092915050565b60008135905061361381614c63565b92915050565b60008135905061362881614c7a565b92915050565b60008151905061363d81614c7a565b92915050565b600082601f83011261365457600080fd5b8135613664848260208601613534565b91505092915050565b600082601f83011261367e57600080fd5b813561368e848260208601613572565b91505092915050565b6000813590506136a681614c91565b92915050565b6000815190506136bb81614c91565b92915050565b6000602082840312156136d357600080fd5b60006136e1848285016135b0565b91505092915050565b6000602082840312156136fc57600080fd5b600061370a848285016135c5565b91505092915050565b6000806040838503121561372657600080fd5b6000613734858286016135b0565b9250506020613745858286016135b0565b9150509250929050565b60008060006060848603121561376457600080fd5b6000613772868287016135b0565b9350506020613783868287016135b0565b925050604061379486828701613697565b9150509250925092565b600080600080608085870312156137b457600080fd5b60006137c2878288016135b0565b94505060206137d3878288016135b0565b93505060406137e487828801613697565b925050606085013567ffffffffffffffff81111561380157600080fd5b61380d87828801613643565b91505092959194509250565b6000806040838503121561382c57600080fd5b600061383a858286016135b0565b925050602061384b85828601613604565b9150509250929050565b6000806040838503121561386857600080fd5b6000613876858286016135b0565b925050602061388785828601613697565b9150509250929050565b6000602082840312156138a357600080fd5b600082013567ffffffffffffffff8111156138bd57600080fd5b6138c9848285016135da565b91505092915050565b6000602082840312156138e457600080fd5b60006138f284828501613619565b91505092915050565b60006020828403121561390d57600080fd5b600061391b8482850161362e565b91505092915050565b60006020828403121561393657600080fd5b600082013567ffffffffffffffff81111561395057600080fd5b61395c8482850161366d565b91505092915050565b60006020828403121561397757600080fd5b600061398584828501613697565b91505092915050565b6000602082840312156139a057600080fd5b60006139ae848285016136ac565b91505092915050565b6139c0816149e7565b82525050565b6139cf81614a0b565b82525050565b60006139e082614884565b6139ea818561489a565b93506139fa818560208601614a89565b613a0381614c24565b840191505092915050565b6000613a198261488f565b613a2381856148b6565b9350613a33818560208601614a89565b613a3c81614c24565b840191505092915050565b6000613a528261488f565b613a5c81856148c7565b9350613a6c818560208601614a89565b80840191505092915050565b60008154613a8581614abc565b613a8f81866148c7565b94506001821660008114613aaa5760018114613abb57613aee565b60ff19831686528186019350613aee565b613ac48561486f565b60005b83811015613ae657815481890152600182019150602081019050613ac7565b838801955050505b50505092915050565b6000613b046022836148b6565b91507f5075626c69632073616c65206d7573742062652061637469766520746f206d6960008301527f6e740000000000000000000000000000000000000000000000000000000000006020830152604082019050919050565b6000613b6a6021836148b6565b91507f4552433732314d657461646174613a204e6f6e6578697374656e7420746f6b6560008301527f6e000000000000000000000000000000000000000000000000000000000000006020830152604082019050919050565b6000613bd06032836148b6565b91507f4552433732313a207472616e7366657220746f206e6f6e20455243373231526560008301527f63656976657220696d706c656d656e74657200000000000000000000000000006020830152604082019050919050565b6000613c366026836148b6565b91507f4f776e61626c653a206e6577206f776e657220697320746865207a65726f206160008301527f64647265737300000000000000000000000000000000000000000000000000006020830152604082019050919050565b6000613c9c601c836148b6565b91507f4552433732313a20746f6b656e20616c7265616479206d696e746564000000006000830152602082019050919050565b6000613cdc6024836148b6565b91507f4552433732313a207472616e7366657220746f20746865207a65726f2061646460008301527f72657373000000000000000000000000000000000000000000000000000000006020830152604082019050919050565b6000613d426019836148b6565b91507f4552433732313a20617070726f766520746f2063616c6c6572000000000000006000830152602082019050919050565b6000613d82601a836148b6565b91507f41646472657373206973206e6f742077686974656c69737465640000000000006000830152602082019050919050565b6000613dc2601f836148b6565b91507f45746865722076616c75652073656e74206973206e6f7420636f7272656374006000830152602082019050919050565b6000613e02602c836148b6565b91507f4552433732313a206f70657261746f7220717565727920666f72206e6f6e657860008301527f697374656e7420746f6b656e00000000000000000000000000000000000000006020830152604082019050919050565b6000613e686027836148b6565b91507f41626f76652070726573616c65206d617820616c6c6f776564206d696e74207160008301527f75616e74697479000000000000000000000000000000000000000000000000006020830152604082019050919050565b6000613ece6038836148b6565b91507f4552433732313a20617070726f76652063616c6c6572206973206e6f74206f7760008301527f6e6572206e6f7220617070726f76656420666f7220616c6c00000000000000006020830152604082019050919050565b6000613f34601e836148b6565b91507f50726573616c65206d7573742062652061637469766520746f206d696e7400006000830152602082019050919050565b6000613f74602a836148b6565b91507f4552433732313a2062616c616e636520717565727920666f7220746865207a6560008301527f726f2061646472657373000000000000000000000000000000000000000000006020830152604082019050919050565b6000613fda6029836148b6565b91507f4552433732313a206f776e657220717565727920666f72206e6f6e657869737460008301527f656e7420746f6b656e00000000000000000000000000000000000000000000006020830152604082019050919050565b60006140406020836148b6565b91507f507572636861736520776f756c6420657863656564206d617820737570706c796000830152602082019050919050565b60006140806020836148b6565b91507f4552433732313a206d696e7420746f20746865207a65726f20616464726573736000830152602082019050919050565b60006140c0602c836148b6565b91507f4552433732313a20617070726f76656420717565727920666f72206e6f6e657860008301527f697374656e7420746f6b656e00000000000000000000000000000000000000006020830152604082019050919050565b60006141266020836148b6565b91507f4f776e61626c653a2063616c6c6572206973206e6f7420746865206f776e65726000830152602082019050919050565b60006141666029836148b6565b91507f4552433732313a207472616e73666572206f6620746f6b656e2074686174206960008301527f73206e6f74206f776e00000000000000000000000000000000000000000000006020830152604082019050919050565b60006141cc6021836148b6565b91507f4552433732313a20617070726f76616c20746f2063757272656e74206f776e6560008301527f72000000000000000000000000000000000000000000000000000000000000006020830152604082019050919050565b60006142326000836148ab565b9150600082019050919050565b600061424c6031836148b6565b91507f4552433732313a207472616e736665722063616c6c6572206973206e6f74206f60008301527f776e6572206e6f7220617070726f7665640000000000000000000000000000006020830152604082019050919050565b60006142b2601b836148b6565b91507f4164647265737320616c72656164792077686974656c697374656400000000006000830152602082019050919050565b60006142f26021836148b6565b91507f43616e206f6e6c79206d696e7420313020746f6b656e7320617420612074696d60008301527f65000000000000000000000000000000000000000000000000000000000000006020830152604082019050919050565b61435481614a63565b82525050565b61436381614a6d565b82525050565b60006143758286613a78565b91506143818285613a47565b915061438d8284613a47565b9150819050949350505050565b60006143a582614225565b9150819050919050565b60006020820190506143c460008301846139b7565b92915050565b60006080820190506143df60008301876139b7565b6143ec60208301866139b7565b6143f9604083018561434b565b818103606083015261440b81846139d5565b905095945050505050565b600060408201905061442b60008301856139b7565b614438602083018461434b565b9392505050565b600060208201905061445460008301846139c6565b92915050565b600060208201905081810360008301526144748184613a0e565b905092915050565b6000602082019050818103600083015261449581613af7565b9050919050565b600060208201905081810360008301526144b581613b5d565b9050919050565b600060208201905081810360008301526144d581613bc3565b9050919050565b600060208201905081810360008301526144f581613c29565b9050919050565b6000602082019050818103600083015261451581613c8f565b9050919050565b6000602082019050818103600083015261453581613ccf565b9050919050565b6000602082019050818103600083015261455581613d35565b9050919050565b6000602082019050818103600083015261457581613d75565b9050919050565b6000602082019050818103600083015261459581613db5565b9050919050565b600060208201905081810360008301526145b581613df5565b9050919050565b600060208201905081810360008301526145d581613e5b565b9050919050565b600060208201905081810360008301526145f581613ec1565b9050919050565b6000602082019050818103600083015261461581613f27565b9050919050565b6000602082019050818103600083015261463581613f67565b9050919050565b6000602082019050818103600083015261465581613fcd565b9050919050565b6000602082019050818103600083015261467581614033565b9050919050565b6000602082019050818103600083015261469581614073565b9050919050565b600060208201905081810360008301526146b5816140b3565b9050919050565b600060208201905081810360008301526146d581614119565b9050919050565b600060208201905081810360008301526146f581614159565b9050919050565b60006020820190508181036000830152614715816141bf565b9050919050565b600060208201905081810360008301526147358161423f565b9050919050565b60006020820190508181036000830152614755816142a5565b9050919050565b60006020820190508181036000830152614775816142e5565b9050919050565b6000602082019050614791600083018461434b565b92915050565b60006020820190506147ac600083018461435a565b92915050565b6000604051905081810181811067ffffffffffffffff821117156147d9576147d8614bf5565b5b8060405250919050565b600067ffffffffffffffff8211156147fe576147fd614bf5565b5b602082029050602081019050919050565b600067ffffffffffffffff82111561482a57614829614bf5565b5b601f19601f8301169050602081019050919050565b600067ffffffffffffffff82111561485a57614859614bf5565b5b601f19601f8301169050602081019050919050565b60008190508160005260206000209050919050565b600081519050919050565b600081519050919050565b600082825260208201905092915050565b600081905092915050565b600082825260208201905092915050565b600081905092915050565b60006148dd82614a63565b91506148e883614a63565b9250827fffffffffffffffffffffffffffffffffffffffffffffffffffffffffffffffff0382111561491d5761491c614b68565b5b828201905092915050565b600061493382614a63565b915061493e83614a63565b92508261494e5761494d614b97565b5b828204905092915050565b600061496482614a63565b915061496f83614a63565b9250817fffffffffffffffffffffffffffffffffffffffffffffffffffffffffffffffff04831182151516156149a8576149a7614b68565b5b828202905092915050565b60006149be82614a63565b91506149c983614a63565b9250828210156149dc576149db614b68565b5b828203905092915050565b60006149f282614a43565b9050919050565b6000614a0482614a43565b9050919050565b60008115159050919050565b60007fffffffff0000000000000000000000000000000000000000000000000000000082169050919050565b600073ffffffffffffffffffffffffffffffffffffffff82169050919050565b6000819050919050565b600060ff82169050919050565b82818337600083830152505050565b60005b83811015614aa7578082015181840152602081019050614a8c565b83811115614ab6576000848401525b50505050565b60006002820490506001821680614ad457607f821691505b60208210811415614ae857614ae7614bc6565b5b50919050565b6000614af982614a63565b91507fffffffffffffffffffffffffffffffffffffffffffffffffffffffffffffffff821415614b2c57614b2b614b68565b5b600182019050919050565b6000614b4282614a63565b9150614b4d83614a63565b925082614b5d57614b5c614b97565b5b828206905092915050565b7f4e487b7100000000000000000000000000000000000000000000000000000000600052601160045260246000fd5b7f4e487b7100000000000000000000000000000000000000000000000000000000600052601260045260246000fd5b7f4e487b7100000000000000000000000000000000000000000000000000000000600052602260045260246000fd5b7f4e487b7100000000000000000000000000000000000000000000000000000000600052604160045260246000fd5b6000601f19601f8301169050919050565b614c3e816149e7565b8114614c4957600080fd5b50565b614c55816149f9565b8114614c6057600080fd5b50565b614c6c81614a0b565b8114614c7757600080fd5b50565b614c8381614a17565b8114614c8e57600080fd5b50565b614c9a81614a63565b8114614ca557600080fd5b5056fea264697066735822122054d6cc18cd2e0ab9c2b70409a2cd95b7b8c3dbff7db377c06d583bc79bf0695564736f6c63430008000033608060405234801561001057600080fd5b5061002d61002261003260201b60201c565b61003a60201b60201c565b6100fe565b600033905090565b60008060009054906101000a900473ffffffffffffffffffffffffffffffffffffffff169050816000806101000a81548173ffffffffffffffffffffffffffffffffffffffff021916908373ffffffffffffffffffffffffffffffffffffffff1602179055508173ffffffffffffffffffffffffffffffffffffffff168173ffffffffffffffffffffffffffffffffffffffff167f8be0079c531659141344cd1fd0a4f28419497f9722a3daafe3b4186f6b6457e060405160405180910390a35050565b610bc08061010d6000396000f3fe6080604052600436106100555760003560e01c806351cff8d91461005a578063715018a6146100835780638da5cb5b1461009a578063e3a9db1a146100c5578063f2fde38b14610102578063f340fa011461012b575b600080fd5b34801561006657600080fd5b50610081600480360381019061007c91906107f5565b610147565b005b34801561008f57600080fd5b506100986102c7565b005b3480156100a657600080fd5b506100af61034f565b6040516100bc91906109b7565b60405180910390f35b3480156100d157600080fd5b506100ec60048036038101906100e791906107cc565b610378565b6040516100f99190610a52565b60405180910390f35b34801561010e57600080fd5b50610129600480360381019061012491906107cc565b6103c1565b005b610145600480360381019061014091906107cc565b6104b9565b005b61014f6105e2565b73ffffffffffffffffffffffffffffffffffffffff1661016d61034f565b73ffffffffffffffffffffffffffffffffffffffff16146101c3576040517f08c379a00000000000000000000000000000000000000000000000000000000081526004016101ba90610a32565b60405180910390fd5b6000600160008373ffffffffffffffffffffffffffffffffffffffff1673ffffffffffffffffffffffffffffffffffffffff1681526020019081526020016000205490506000600160008473ffffffffffffffffffffffffffffffffffffffff1673ffffffffffffffffffffffffffffffffffffffff16815260200190815260200160002081905550610275818373ffffffffffffffffffffffffffffffffffffffff166105ea90919063ffffffff16565b8173ffffffffffffffffffffffffffffffffffffffff167f7084f5476618d8e60b11ef0d7d3f06914655adb8793e28ff7f018d4c76d505d5826040516102bb9190610a52565b60405180910390a25050565b6102cf6105e2565b73ffffffffffffffffffffffffffffffffffffffff166102ed61034f565b73ffffffffffffffffffffffffffffffffffffffff1614610343576040517f08c379a000000000000000000000000000000000000000000000000000000000815260040161033a90610a32565b60405180910390fd5b61034d60006106de565b565b60008060009054906101000a900473ffffffffffffffffffffffffffffffffffffffff16905090565b6000600160008373ffffffffffffffffffffffffffffffffffffffff1673ffffffffffffffffffffffffffffffffffffffff168152602001908152602001600020549050919050565b6103c96105e2565b73ffffffffffffffffffffffffffffffffffffffff166103e761034f565b73ffffffffffffffffffffffffffffffffffffffff161461043d576040517f08c379a000000000000000000000000000000000000000000000000000000000815260040161043490610a32565b60405180910390fd5b600073ffffffffffffffffffffffffffffffffffffffff168173ffffffffffffffffffffffffffffffffffffffff1614156104ad576040517f08c379a00000000000000000000000000000000000000000000000000000000081526004016104a4906109d2565b60405180910390fd5b6104b6816106de565b50565b6104c16105e2565b73ffffffffffffffffffffffffffffffffffffffff166104df61034f565b73ffffffffffffffffffffffffffffffffffffffff1614610535576040517f08c379a000000000000000000000000000000000000000000000000000000000815260040161052c90610a32565b60405180910390fd5b600034905080600160008473ffffffffffffffffffffffffffffffffffffffff1673ffffffffffffffffffffffffffffffffffffffff16815260200190815260200160002060008282546105899190610a89565b925050819055508173ffffffffffffffffffffffffffffffffffffffff167f2da466a7b24304f47e87fa2e1e5a81b9831ce54fec19055ce277ca2f39ba42c4826040516105d69190610a52565b60405180910390a25050565b600033905090565b8047101561062d576040517f08c379a000000000000000000000000000000000000000000000000000000000815260040161062490610a12565b60405180910390fd5b60008273ffffffffffffffffffffffffffffffffffffffff1682604051610653906109a2565b60006040518083038185875af1925050503d8060008114610690576040519150601f19603f3d011682016040523d82523d6000602084013e610695565b606091505b50509050806106d9576040517f08c379a00000000000000000000000000000000000000000000000000000000081526004016106d0906109f2565b60405180910390fd5b505050565b60008060009054906101000a900473ffffffffffffffffffffffffffffffffffffffff169050816000806101000a81548173ffffffffffffffffffffffffffffffffffffffff021916908373ffffffffffffffffffffffffffffffffffffffff1602179055508173ffffffffffffffffffffffffffffffffffffffff168173ffffffffffffffffffffffffffffffffffffffff167f8be0079c531659141344cd1fd0a4f28419497f9722a3daafe3b4186f6b6457e060405160405180910390a35050565b6000813590506107b181610b5c565b92915050565b6000813590506107c681610b73565b92915050565b6000602082840312156107de57600080fd5b60006107ec848285016107a2565b91505092915050565b60006020828403121561080757600080fd5b6000610815848285016107b7565b91505092915050565b61082781610adf565b82525050565b600061083a602683610a78565b91507f4f776e61626c653a206e6577206f776e657220697320746865207a65726f206160008301527f64647265737300000000000000000000000000000000000000000000000000006020830152604082019050919050565b60006108a0603a83610a78565b91507f416464726573733a20756e61626c6520746f2073656e642076616c75652c207260008301527f6563697069656e74206d617920686176652072657665727465640000000000006020830152604082019050919050565b6000610906601d83610a78565b91507f416464726573733a20696e73756666696369656e742062616c616e63650000006000830152602082019050919050565b6000610946602083610a78565b91507f4f776e61626c653a2063616c6c6572206973206e6f7420746865206f776e65726000830152602082019050919050565b6000610986600083610a6d565b9150600082019050919050565b61099c81610b23565b82525050565b60006109ad82610979565b9150819050919050565b60006020820190506109cc600083018461081e565b92915050565b600060208201905081810360008301526109eb8161082d565b9050919050565b60006020820190508181036000830152610a0b81610893565b9050919050565b60006020820190508181036000830152610a2b816108f9565b9050919050565b60006020820190508181036000830152610a4b81610939565b9050919050565b6000602082019050610a676000830184610993565b92915050565b600081905092915050565b600082825260208201905092915050565b6000610a9482610b23565b9150610a9f83610b23565b9250827fffffffffffffffffffffffffffffffffffffffffffffffffffffffffffffffff03821115610ad457610ad3610b2d565b5b828201905092915050565b6000610aea82610b03565b9050919050565b6000610afc82610b03565b9050919050565b600073ffffffffffffffffffffffffffffffffffffffff82169050919050565b6000819050919050565b7f4e487b7100000000000000000000000000000000000000000000000000000000600052601160045260246000fd5b610b6581610adf565b8114610b7057600080fd5b50565b610b7c81610af1565b8114610b8757600080fd5b5056fea26469706673582212204e8ab707adc9ee645b828ddc4f791bd246fea3a80e8eeba1ce50ca1d3c28c2cb64736f6c63430008000033",
  "linkReferences": {},
  "deployedLinkReferences": {}
}