{
  "_format": "hh-sol-artifact-1",
  "contractName": "BPSC",
  "sourceName": "contracts/BPSC.sol",
  "abi": [
    {
      "inputs": [
        {
          "internalType": "string",
          "name": "_name",
          "type": "string"
        },
        {
          "internalType": "string",
          "name": "_symbol",
          "type": "string"
        },
        {
          "internalType": "string",
          "name": "_hiddenMetadata",
          "type": "string"
        },
        {
          "internalType": "string",
          "name": "_contractMetadata",
          "type": "string"
        }
      ],
      "stateMutability": "nonpayable",
      "type": "constructor"
    },
    {
      "anonymous": false,
      "inputs": [
        {
          "indexed": true,
          "internalType": "address",
          "name": "owner",
          "type": "address"
        },
        {
          "indexed": true,
          "internalType": "address",
          "name": "approved",
          "type": "address"
        },
        {
          "indexed": true,
          "internalType": "uint256",
          "name": "tokenId",
          "type": "uint256"
        }
      ],
      "name": "Approval",
      "type": "event"
    },
    {
      "anonymous": false,
      "inputs": [
        {
          "indexed": true,
          "internalType": "address",
          "name": "owner",
          "type": "address"
        },
        {
          "indexed": true,
          "internalType": "address",
          "name": "operator",
          "type": "address"
        },
        {
          "indexed": false,
          "internalType": "bool",
          "name": "approved",
          "type": "bool"
        }
      ],
      "name": "ApprovalForAll",
      "type": "event"
    },
    {
      "anonymous": false,
      "inputs": [
        {
          "indexed": true,
          "internalType": "address",
          "name": "previousOwner",
          "type": "address"
        },
        {
          "indexed": true,
          "internalType": "address",
          "name": "newOwner",
          "type": "address"
        }
      ],
      "name": "OwnershipTransferred",
      "type": "event"
    },
    {
      "anonymous": false,
      "inputs": [
        {
          "indexed": true,
          "internalType": "address",
          "name": "from",
          "type": "address"
        },
        {
          "indexed": true,
          "internalType": "address",
          "name": "to",
          "type": "address"
        },
        {
          "indexed": true,
          "internalType": "uint256",
          "name": "tokenId",
          "type": "uint256"
        }
      ],
      "name": "Transfer",
      "type": "event"
    },
    {
      "inputs": [],
      "name": "_baseFileType",
      "outputs": [
        {
          "internalType": "string",
          "name": "",
          "type": "string"
        }
      ],
      "stateMutability": "view",
      "type": "function"
    },
    {
      "inputs": [],
      "name": "_baseTokenURI",
      "outputs": [
        {
          "internalType": "string",
          "name": "",
          "type": "string"
        }
      ],
      "stateMutability": "view",
      "type": "function"
    },
    {
      "inputs": [],
      "name": "_contractMetadataURI",
      "outputs": [
        {
          "internalType": "string",
          "name": "",
          "type": "string"
        }
      ],
      "stateMutability": "view",
      "type": "function"
    },
    {
      "inputs": [],
      "name": "_hiddenMetadataURI",
      "outputs": [
        {
          "internalType": "string",
          "name": "",
          "type": "string"
        }
      ],
      "stateMutability": "view",
      "type": "function"
    },
    {
      "inputs": [],
      "name": "_maxMintPerTx",
      "outputs": [
        {
          "internalType": "uint8",
          "name": "",
          "type": "uint8"
        }
      ],
      "stateMutability": "view",
      "type": "function"
    },
    {
      "inputs": [],
      "name": "_maxSupply",
      "outputs": [
        {
          "internalType": "uint256",
          "name": "",
          "type": "uint256"
        }
      ],
      "stateMutability": "view",
      "type": "function"
    },
    {
      "inputs": [],
      "name": "_mintPrice",
      "outputs": [
        {
          "internalType": "uint256",
          "name": "",
          "type": "uint256"
        }
      ],
      "stateMutability": "view",
      "type": "function"
    },
    {
      "inputs": [],
      "name": "_presaleFirstMintPrice",
      "outputs": [
        {
          "internalType": "uint256",
          "name": "",
          "type": "uint256"
        }
      ],
      "stateMutability": "view",
      "type": "function"
    },
    {
      "inputs": [],
      "name": "_provenance",
      "outputs": [
        {
          "internalType": "string",
          "name": "",
          "type": "string"
        }
      ],
      "stateMutability": "view",
      "type": "function"
    },
    {
      "inputs": [
        {
          "internalType": "address[]",
          "name": "addrs",
          "type": "address[]"
        }
      ],
      "name": "addAddressesToWhitelist",
      "outputs": [],
      "stateMutability": "nonpayable",
      "type": "function"
    },
    {
      "inputs": [
        {
          "internalType": "address",
          "name": "_addressToAirdrop",
          "type": "address"
        }
      ],
      "name": "airdropMint",
      "outputs": [],
      "stateMutability": "nonpayable",
      "type": "function"
    },
    {
      "inputs": [
        {
          "internalType": "address",
          "name": "to",
          "type": "address"
        },
        {
          "internalType": "uint256",
          "name": "tokenId",
          "type": "uint256"
        }
      ],
      "name": "approve",
      "outputs": [],
      "stateMutability": "nonpayable",
      "type": "function"
    },
    {
      "inputs": [
        {
          "internalType": "address",
          "name": "owner",
          "type": "address"
        }
      ],
      "name": "balanceOf",
      "outputs": [
        {
          "internalType": "uint256",
          "name": "",
          "type": "uint256"
        }
      ],
      "stateMutability": "view",
      "type": "function"
    },
    {
      "inputs": [],
      "name": "contractURI",
      "outputs": [
        {
          "internalType": "string",
          "name": "",
          "type": "string"
        }
      ],
      "stateMutability": "view",
      "type": "function"
    },
    {
      "inputs": [],
      "name": "flipPresaleState",
      "outputs": [],
      "stateMutability": "nonpayable",
      "type": "function"
    },
    {
      "inputs": [],
      "name": "flipPublicSaleState",
      "outputs": [],
      "stateMutability": "nonpayable",
      "type": "function"
    },
    {
      "inputs": [],
      "name": "flipRevealed",
      "outputs": [],
      "stateMutability": "nonpayable",
      "type": "function"
    },
    {
      "inputs": [
        {
          "internalType": "uint256",
          "name": "tokenId",
          "type": "uint256"
        }
      ],
      "name": "getApproved",
      "outputs": [
        {
          "internalType": "address",
          "name": "",
          "type": "address"
        }
      ],
      "stateMutability": "view",
      "type": "function"
    },
    {
      "inputs": [
        {
          "internalType": "address",
          "name": "owner",
          "type": "address"
        },
        {
          "internalType": "address",
          "name": "operator",
          "type": "address"
        }
      ],
      "name": "isApprovedForAll",
      "outputs": [
        {
          "internalType": "bool",
          "name": "",
          "type": "bool"
        }
      ],
      "stateMutability": "view",
      "type": "function"
    },
    {
      "inputs": [],
      "name": "isPresaleActive",
      "outputs": [
        {
          "internalType": "bool",
          "name": "",
          "type": "bool"
        }
      ],
      "stateMutability": "view",
      "type": "function"
    },
    {
      "inputs": [],
      "name": "isPublicSaleActive",
      "outputs": [
        {
          "internalType": "bool",
          "name": "",
          "type": "bool"
        }
      ],
      "stateMutability": "view",
      "type": "function"
    },
    {
      "inputs": [],
      "name": "isRevealed",
      "outputs": [
        {
          "internalType": "bool",
          "name": "",
          "type": "bool"
        }
      ],
      "stateMutability": "view",
      "type": "function"
    },
    {
      "inputs": [
        {
          "internalType": "address",
          "name": "addr",
          "type": "address"
        }
      ],
      "name": "isWhitelisted",
      "outputs": [
        {
          "internalType": "bool",
          "name": "isWhiteListed",
          "type": "bool"
        }
      ],
      "stateMutability": "view",
      "type": "function"
    },
    {
      "inputs": [
        {
          "internalType": "uint256",
          "name": "_mintAmount",
          "type": "uint256"
        }
      ],
      "name": "mint",
      "outputs": [],
      "stateMutability": "payable",
      "type": "function"
    },
    {
      "inputs": [],
      "name": "name",
      "outputs": [
        {
          "internalType": "string",
          "name": "",
          "type": "string"
        }
      ],
      "stateMutability": "view",
      "type": "function"
    },
    {
      "inputs": [],
      "name": "owner",
      "outputs": [
        {
          "internalType": "address",
          "name": "",
          "type": "address"
        }
      ],
      "stateMutability": "view",
      "type": "function"
    },
    {
      "inputs": [
        {
          "internalType": "uint256",
          "name": "tokenId",
          "type": "uint256"
        }
      ],
      "name": "ownerOf",
      "outputs": [
        {
          "internalType": "address",
          "name": "",
          "type": "address"
        }
      ],
      "stateMutability": "view",
      "type": "function"
    },
    {
      "inputs": [
        {
          "internalType": "address",
          "name": "dest",
          "type": "address"
        }
      ],
      "name": "payments",
      "outputs": [
        {
          "internalType": "uint256",
          "name": "",
          "type": "uint256"
        }
      ],
      "stateMutability": "view",
      "type": "function"
    },
    {
      "inputs": [],
      "name": "presaleFirstMint",
      "outputs": [],
      "stateMutability": "payable",
      "type": "function"
    },
    {
      "inputs": [],
      "name": "renounceOwnership",
      "outputs": [],
      "stateMutability": "nonpayable",
      "type": "function"
    },
    {
      "inputs": [
        {
          "internalType": "uint256",
          "name": "_reserveAmount",
          "type": "uint256"
        }
      ],
      "name": "reserveToken",
      "outputs": [],
      "stateMutability": "nonpayable",
      "type": "function"
    },
    {
      "inputs": [
        {
          "internalType": "address",
          "name": "from",
          "type": "address"
        },
        {
          "internalType": "address",
          "name": "to",
          "type": "address"
        },
        {
          "internalType": "uint256",
          "name": "tokenId",
          "type": "uint256"
        }
      ],
      "name": "safeTransferFrom",
      "outputs": [],
      "stateMutability": "nonpayable",
      "type": "function"
    },
    {
      "inputs": [
        {
          "internalType": "address",
          "name": "from",
          "type": "address"
        },
        {
          "internalType": "address",
          "name": "to",
          "type": "address"
        },
        {
          "internalType": "uint256",
          "name": "tokenId",
          "type": "uint256"
        },
        {
          "internalType": "bytes",
          "name": "_data",
          "type": "bytes"
        }
      ],
      "name": "safeTransferFrom",
      "outputs": [],
      "stateMutability": "nonpayable",
      "type": "function"
    },
    {
      "inputs": [
        {
          "internalType": "address",
          "name": "operator",
          "type": "address"
        },
        {
          "internalType": "bool",
          "name": "approved",
          "type": "bool"
        }
      ],
      "name": "setApprovalForAll",
      "outputs": [],
      "stateMutability": "nonpayable",
      "type": "function"
    },
    {
      "inputs": [
        {
          "internalType": "string",
          "name": "_newBaseURI",
          "type": "string"
        }
      ],
      "name": "setBaseTokenURI",
      "outputs": [],
      "stateMutability": "nonpayable",
      "type": "function"
    },
    {
      "inputs": [
        {
          "internalType": "string",
          "name": "_newContractMetadataURI",
          "type": "string"
        }
      ],
      "name": "setContractMetadataURI",
      "outputs": [],
      "stateMutability": "nonpayable",
      "type": "function"
    },
    {
      "inputs": [
        {
          "internalType": "string",
          "name": "_newHiddenMetadataURI",
          "type": "string"
        }
      ],
      "name": "setHiddenMetadataURI",
      "outputs": [],
      "stateMutability": "nonpayable",
      "type": "function"
    },
    {
      "inputs": [
        {
          "internalType": "string",
          "name": "_provenanceHash",
          "type": "string"
        }
      ],
      "name": "setProvenanceHash",
      "outputs": [],
      "stateMutability": "nonpayable",
      "type": "function"
    },
    {
      "inputs": [
        {
          "internalType": "bytes4",
          "name": "interfaceId",
          "type": "bytes4"
        }
      ],
      "name": "supportsInterface",
      "outputs": [
        {
          "internalType": "bool",
          "name": "",
          "type": "bool"
        }
      ],
      "stateMutability": "view",
      "type": "function"
    },
    {
      "inputs": [],
      "name": "symbol",
      "outputs": [
        {
          "internalType": "string",
          "name": "",
          "type": "string"
        }
      ],
      "stateMutability": "view",
      "type": "function"
    },
    {
      "inputs": [
        {
          "internalType": "uint256",
          "name": "tokenId",
          "type": "uint256"
        }
      ],
      "name": "tokenURI",
      "outputs": [
        {
          "internalType": "string",
          "name": "",
          "type": "string"
        }
      ],
      "stateMutability": "view",
      "type": "function"
    },
    {
      "inputs": [],
      "name": "totalSupply",
      "outputs": [
        {
          "internalType": "uint256",
          "name": "",
          "type": "uint256"
        }
      ],
      "stateMutability": "view",
      "type": "function"
    },
    {
      "inputs": [
        {
          "internalType": "address",
          "name": "from",
          "type": "address"
        },
        {
          "internalType": "address",
          "name": "to",
          "type": "address"
        },
        {
          "internalType": "uint256",
          "name": "tokenId",
          "type": "uint256"
        }
      ],
      "name": "transferFrom",
      "outputs": [],
      "stateMutability": "nonpayable",
      "type": "function"
    },
    {
      "inputs": [
        {
          "internalType": "address",
          "name": "newOwner",
          "type": "address"
        }
      ],
      "name": "transferOwnership",
      "outputs": [],
      "stateMutability": "nonpayable",
      "type": "function"
    },
    {
      "inputs": [
        {
          "internalType": "address",
          "name": "",
          "type": "address"
        }
      ],
      "name": "whitelist",
      "outputs": [
        {
          "internalType": "address",
          "name": "addr",
          "type": "address"
        },
        {
          "internalType": "uint256",
          "name": "hasMinted",
          "type": "uint256"
        }
      ],
      "stateMutability": "view",
      "type": "function"
    },
    {
      "inputs": [
        {
          "internalType": "address payable",
          "name": "payee",
          "type": "address"
        }
      ],
      "name": "withdrawPayments",
      "outputs": [],
      "stateMutability": "nonpayable",
      "type": "function"
    }
  ],
  "bytecode": "0x60a06040526000600c60006101000a81548160ff0219169083151502179055506000600c60016101000a81548160ff0219169083151502179055506000600c60026101000a81548160ff0219169083151502179055503480156200006257600080fd5b506040516200600f3803806200600f8339818101604052810190620000889190620004ea565b83838160009080519060200190620000a2929190620003ba565b508060019080519060200190620000bb929190620003ba565b505050604051620000cc906200044b565b604051809103906000f080158015620000e9573d6000803e3d6000fd5b5073ffffffffffffffffffffffffffffffffffffffff1660808173ffffffffffffffffffffffffffffffffffffffff1660601b8152505062000140620001346200016c60201b60201c565b6200017460201b60201c565b62000151816200023a60201b60201c565b6200016282620002e560201b60201c565b5050505062000760565b600033905090565b6000600660009054906101000a900473ffffffffffffffffffffffffffffffffffffffff16905081600660006101000a81548173ffffffffffffffffffffffffffffffffffffffff021916908373ffffffffffffffffffffffffffffffffffffffff1602179055508173ffffffffffffffffffffffffffffffffffffffff168173ffffffffffffffffffffffffffffffffffffffff167f8be0079c531659141344cd1fd0a4f28419497f9722a3daafe3b4186f6b6457e060405160405180910390a35050565b6200024a6200016c60201b60201c565b73ffffffffffffffffffffffffffffffffffffffff16620002706200039060201b60201c565b73ffffffffffffffffffffffffffffffffffffffff1614620002c9576040517f08c379a0000000000000000000000000000000000000000000000000000000008152600401620002c090620005fc565b60405180910390fd5b80600b9080519060200190620002e1929190620003ba565b5050565b620002f56200016c60201b60201c565b73ffffffffffffffffffffffffffffffffffffffff166200031b6200039060201b60201c565b73ffffffffffffffffffffffffffffffffffffffff161462000374576040517f08c379a00000000000000000000000000000000000000000000000000000000081526004016200036b90620005fc565b60405180910390fd5b80600990805190602001906200038c929190620003ba565b5050565b6000600660009054906101000a900473ffffffffffffffffffffffffffffffffffffffff16905090565b828054620003c890620006cc565b90600052602060002090601f016020900481019282620003ec576000855562000438565b82601f106200040757805160ff191683800117855562000438565b8280016001018555821562000438579182015b82811115620004375782518255916020019190600101906200041a565b5b50905062000447919062000459565b5090565b610ccd806200534283390190565b5b80821115620004745760008160009055506001016200045a565b5090565b60006200048f620004898462000652565b6200061e565b905082815260208101848484011115620004a857600080fd5b620004b584828562000696565b509392505050565b600082601f830112620004cf57600080fd5b8151620004e184826020860162000478565b91505092915050565b600080600080608085870312156200050157600080fd5b600085015167ffffffffffffffff8111156200051c57600080fd5b6200052a87828801620004bd565b945050602085015167ffffffffffffffff8111156200054857600080fd5b6200055687828801620004bd565b935050604085015167ffffffffffffffff8111156200057457600080fd5b6200058287828801620004bd565b925050606085015167ffffffffffffffff811115620005a057600080fd5b620005ae87828801620004bd565b91505092959194509250565b6000620005c960208362000685565b91507f4f776e61626c653a2063616c6c6572206973206e6f7420746865206f776e65726000830152602082019050919050565b600060208201905081810360008301526200061781620005ba565b9050919050565b6000604051905081810181811067ffffffffffffffff8211171562000648576200064762000731565b5b8060405250919050565b600067ffffffffffffffff82111562000670576200066f62000731565b5b601f19601f8301169050602081019050919050565b600082825260208201905092915050565b60005b83811015620006b657808201518184015260208101905062000699565b83811115620006c6576000848401525b50505050565b60006002820490506001821680620006e557607f821691505b60208210811415620006fc57620006fb62000702565b5b50919050565b7f4e487b7100000000000000000000000000000000000000000000000000000000600052602260045260246000fd5b7f4e487b7100000000000000000000000000000000000000000000000000000000600052604160045260246000fd5b60805160601c614bc36200077f6000396000611fa70152614bc36000f3fe60806040526004361061027d5760003560e01c80638da5cb5b1161014f578063c87b56dd116100c1578063e2ec6ec31161007a578063e2ec6ec314610947578063e8a3d48514610970578063e985e9c51461099b578063f2fde38b146109d8578063f81227d414610a01578063fa27a27014610a185761027d565b8063c87b56dd14610821578063cfc86f7b1461085e578063d69714e714610889578063de314a59146108b4578063e1bed95a146108df578063e2982c211461090a5761027d565b8063a10866ef11610113578063a10866ef14610739578063a201fc5014610750578063a22cb46514610779578063adb28a1d146107a2578063b88d4fde146107cd578063be58787d146107f65761027d565b80638da5cb5b1461067f57806395d89b41146106aa5780639b19251a146106d55780639fc5ee5014610713578063a0712d681461071d5761027d565b806330176e13116101f357806354214f69116101ac57806354214f691461056f57806360d938dc1461059a5780636352211e146105c557806370a0823114610602578063715018a61461063f5780637b5e26af146106565761027d565b806330176e131461047757806331b3eb94146104a05780633af32abf146104c95780633b2c3fb61461050657806342842e0e1461051d578063512507c6146105465761027d565b80631096952311610245578063109695231461037b57806310c0e158146103a457806318160ddd146103cd5780631e84c413146103f857806322f4596f1461042357806323b872dd1461044e5761027d565b806301ffc9a7146102825780630387da42146102bf57806306fdde03146102ea578063081812fc14610315578063095ea7b314610352575b600080fd5b34801561028e57600080fd5b506102a960048036038101906102a49190613817565b610a43565b6040516102b69190614344565b60405180910390f35b3480156102cb57600080fd5b506102d4610b25565b6040516102e19190614661565b60405180910390f35b3480156102f657600080fd5b506102ff610b30565b60405161030c919061435f565b60405180910390f35b34801561032157600080fd5b5061033c600480360381019061033791906138aa565b610bc2565b60405161034991906142b4565b60405180910390f35b34801561035e57600080fd5b506103796004803603810190610374919061379a565b610c47565b005b34801561038757600080fd5b506103a2600480360381019061039d9190613869565b610d5f565b005b3480156103b057600080fd5b506103cb60048036038101906103c691906138aa565b610df5565b005b3480156103d957600080fd5b506103e2610edb565b6040516103ef9190614661565b60405180910390f35b34801561040457600080fd5b5061040d610eec565b60405161041a9190614344565b60405180910390f35b34801561042f57600080fd5b50610438610eff565b6040516104459190614661565b60405180910390f35b34801561045a57600080fd5b5061047560048036038101906104709190613694565b610f04565b005b34801561048357600080fd5b5061049e60048036038101906104999190613869565b610f64565b005b3480156104ac57600080fd5b506104c760048036038101906104c2919061362f565b610ffa565b005b3480156104d557600080fd5b506104f060048036038101906104eb9190613606565b6110f0565b6040516104fd9190614344565b60405180910390f35b34801561051257600080fd5b5061051b61118a565b005b34801561052957600080fd5b50610544600480360381019061053f9190613694565b611232565b005b34801561055257600080fd5b5061056d60048036038101906105689190613869565b611252565b005b34801561057b57600080fd5b506105846112e8565b6040516105919190614344565b60405180910390f35b3480156105a657600080fd5b506105af6112fb565b6040516105bc9190614344565b60405180910390f35b3480156105d157600080fd5b506105ec60048036038101906105e791906138aa565b61130e565b6040516105f991906142b4565b60405180910390f35b34801561060e57600080fd5b5061062960048036038101906106249190613606565b6113c0565b6040516106369190614661565b60405180910390f35b34801561064b57600080fd5b50610654611478565b005b34801561066257600080fd5b5061067d60048036038101906106789190613606565b611500565b005b34801561068b57600080fd5b506106946115e8565b6040516106a191906142b4565b60405180910390f35b3480156106b657600080fd5b506106bf611612565b6040516106cc919061435f565b60405180910390f35b3480156106e157600080fd5b506106fc60048036038101906106f79190613606565b6116a4565b60405161070a92919061431b565b60405180910390f35b61071b6116e8565b005b610737600480360381019061073291906138aa565b611852565b005b34801561074557600080fd5b5061074e611a1f565b005b34801561075c57600080fd5b5061077760048036038101906107729190613869565b611ac7565b005b34801561078557600080fd5b506107a0600480360381019061079b919061375e565b611b5d565b005b3480156107ae57600080fd5b506107b7611b73565b6040516107c4919061435f565b60405180910390f35b3480156107d957600080fd5b506107f460048036038101906107ef91906136e3565b611c01565b005b34801561080257600080fd5b5061080b611c63565b604051610818919061435f565b60405180910390f35b34801561082d57600080fd5b50610848600480360381019061084391906138aa565b611cf1565b604051610855919061435f565b60405180910390f35b34801561086a57600080fd5b50610873611e49565b604051610880919061435f565b60405180910390f35b34801561089557600080fd5b5061089e611ed7565b6040516108ab919061435f565b60405180910390f35b3480156108c057600080fd5b506108c9611f65565b6040516108d6919061467c565b60405180910390f35b3480156108eb57600080fd5b506108f4611f6a565b604051610901919061435f565b60405180910390f35b34801561091657600080fd5b50610931600480360381019061092c9190613606565b611fa3565b60405161093e9190614661565b60405180910390f35b34801561095357600080fd5b5061096e600480360381019061096991906137d6565b612055565b005b34801561097c57600080fd5b50610985612306565b604051610992919061435f565b60405180910390f35b3480156109a757600080fd5b506109c260048036038101906109bd9190613658565b612398565b6040516109cf9190614344565b60405180910390f35b3480156109e457600080fd5b506109ff60048036038101906109fa9190613606565b61242c565b005b348015610a0d57600080fd5b50610a16612524565b005b348015610a2457600080fd5b50610a2d6125cc565b604051610a3a9190614661565b60405180910390f35b60007f80ac58cd000000000000000000000000000000000000000000000000000000007bffffffffffffffffffffffffffffffffffffffffffffffffffffffff1916827bffffffffffffffffffffffffffffffffffffffffffffffffffffffff19161480610b0e57507f5b5e139f000000000000000000000000000000000000000000000000000000007bffffffffffffffffffffffffffffffffffffffffffffffffffffffff1916827bffffffffffffffffffffffffffffffffffffffffffffffffffffffff1916145b80610b1e5750610b1d826125d7565b5b9050919050565b66470de4df82000081565b606060008054610b3f906149a1565b80601f0160208091040260200160405190810160405280929190818152602001828054610b6b906149a1565b8015610bb85780601f10610b8d57610100808354040283529160200191610bb8565b820191906000526020600020905b815481529060010190602001808311610b9b57829003601f168201915b5050505050905090565b6000610bcd82612641565b610c0c576040517f08c379a0000000000000000000000000000000000000000000000000000000008152600401610c03906145a1565b60405180910390fd5b6004600083815260200190815260200160002060009054906101000a900473ffffffffffffffffffffffffffffffffffffffff169050919050565b6000610c528261130e565b90508073ffffffffffffffffffffffffffffffffffffffff168373ffffffffffffffffffffffffffffffffffffffff161415610cc3576040517f08c379a0000000000000000000000000000000000000000000000000000000008152600401610cba90614601565b60405180910390fd5b8073ffffffffffffffffffffffffffffffffffffffff16610ce26126ad565b73ffffffffffffffffffffffffffffffffffffffff161480610d115750610d1081610d0b6126ad565b612398565b5b610d50576040517f08c379a0000000000000000000000000000000000000000000000000000000008152600401610d4790614501565b60405180910390fd5b610d5a83836126b5565b505050565b610d676126ad565b73ffffffffffffffffffffffffffffffffffffffff16610d856115e8565b73ffffffffffffffffffffffffffffffffffffffff1614610ddb576040517f08c379a0000000000000000000000000000000000000000000000000000000008152600401610dd2906145c1565b60405180910390fd5b8060089080519060200190610df192919061336a565b5050565b610dfd6126ad565b73ffffffffffffffffffffffffffffffffffffffff16610e1b6115e8565b73ffffffffffffffffffffffffffffffffffffffff1614610e71576040517f08c379a0000000000000000000000000000000000000000000000000000000008152600401610e68906145c1565b60405180910390fd5b600a610e8d82610e7f610edb565b61276e90919063ffffffff16565b1115610ece576040517f08c379a0000000000000000000000000000000000000000000000000000000008152600401610ec590614561565b60405180910390fd5b610ed83382612784565b50565b6000610ee760076127c4565b905090565b600c60009054906101000a900460ff1681565b600a81565b610f15610f0f6126ad565b826127d2565b610f54576040517f08c379a0000000000000000000000000000000000000000000000000000000008152600401610f4b90614621565b60405180910390fd5b610f5f8383836128b0565b505050565b610f6c6126ad565b73ffffffffffffffffffffffffffffffffffffffff16610f8a6115e8565b73ffffffffffffffffffffffffffffffffffffffff1614610fe0576040517f08c379a0000000000000000000000000000000000000000000000000000000008152600401610fd7906145c1565b60405180910390fd5b80600a9080519060200190610ff692919061336a565b5050565b6110026126ad565b73ffffffffffffffffffffffffffffffffffffffff166110206115e8565b73ffffffffffffffffffffffffffffffffffffffff1614611076576040517f08c379a000000000000000000000000000000000000000000000000000000000815260040161106d906145c1565b60405180910390fd5b60008173ffffffffffffffffffffffffffffffffffffffff164760405161109c9061429f565b60006040518083038185875af1925050503d80600081146110d9576040519150601f19603f3d011682016040523d82523d6000602084013e6110de565b606091505b50509050806110ec57600080fd5b5050565b60008173ffffffffffffffffffffffffffffffffffffffff16600d60008473ffffffffffffffffffffffffffffffffffffffff1673ffffffffffffffffffffffffffffffffffffffff16815260200190815260200160002060000160009054906101000a900473ffffffffffffffffffffffffffffffffffffffff1673ffffffffffffffffffffffffffffffffffffffff16149050919050565b6111926126ad565b73ffffffffffffffffffffffffffffffffffffffff166111b06115e8565b73ffffffffffffffffffffffffffffffffffffffff1614611206576040517f08c379a00000000000000000000000000000000000000000000000000000000081526004016111fd906145c1565b60405180910390fd5b600c60029054906101000a900460ff1615600c60026101000a81548160ff021916908315150217905550565b61124d83838360405180602001604052806000815250611c01565b505050565b61125a6126ad565b73ffffffffffffffffffffffffffffffffffffffff166112786115e8565b73ffffffffffffffffffffffffffffffffffffffff16146112ce576040517f08c379a00000000000000000000000000000000000000000000000000000000081526004016112c5906145c1565b60405180910390fd5b80600990805190602001906112e492919061336a565b5050565b600c60029054906101000a900460ff1681565b600c60019054906101000a900460ff1681565b6000806002600084815260200190815260200160002060009054906101000a900473ffffffffffffffffffffffffffffffffffffffff169050600073ffffffffffffffffffffffffffffffffffffffff168173ffffffffffffffffffffffffffffffffffffffff1614156113b7576040517f08c379a00000000000000000000000000000000000000000000000000000000081526004016113ae90614541565b60405180910390fd5b80915050919050565b60008073ffffffffffffffffffffffffffffffffffffffff168273ffffffffffffffffffffffffffffffffffffffff161415611431576040517f08c379a000000000000000000000000000000000000000000000000000000000815260040161142890614521565b60405180910390fd5b600360008373ffffffffffffffffffffffffffffffffffffffff1673ffffffffffffffffffffffffffffffffffffffff168152602001908152602001600020549050919050565b6114806126ad565b73ffffffffffffffffffffffffffffffffffffffff1661149e6115e8565b73ffffffffffffffffffffffffffffffffffffffff16146114f4576040517f08c379a00000000000000000000000000000000000000000000000000000000081526004016114eb906145c1565b60405180910390fd5b6114fe6000612b0c565b565b6115086126ad565b73ffffffffffffffffffffffffffffffffffffffff166115266115e8565b73ffffffffffffffffffffffffffffffffffffffff161461157c576040517f08c379a0000000000000000000000000000000000000000000000000000000008152600401611573906145c1565b60405180910390fd5b600a611599600161158b610edb565b61276e90919063ffffffff16565b11156115da576040517f08c379a00000000000000000000000000000000000000000000000000000000081526004016115d190614561565b60405180910390fd5b6115e5816001612784565b50565b6000600660009054906101000a900473ffffffffffffffffffffffffffffffffffffffff16905090565b606060018054611621906149a1565b80601f016020809104026020016040519081016040528092919081815260200182805461164d906149a1565b801561169a5780601f1061166f5761010080835404028352916020019161169a565b820191906000526020600020905b81548152906001019060200180831161167d57829003601f168201915b5050505050905090565b600d6020528060005260406000206000915090508060000160009054906101000a900473ffffffffffffffffffffffffffffffffffffffff16908060010154905082565b6116f1336110f0565b611730576040517f08c379a000000000000000000000000000000000000000000000000000000000815260040161172790614381565b60405180910390fd5b6000600d60003373ffffffffffffffffffffffffffffffffffffffff1673ffffffffffffffffffffffffffffffffffffffff16815260200190815260200160002060010154146117b5576040517f08c379a00000000000000000000000000000000000000000000000000000000081526004016117ac90614441565b60405180910390fd5b662386f26fc100003410156117ff576040517f08c379a00000000000000000000000000000000000000000000000000000000081526004016117f6906144c1565b60405180910390fd5b61180833611500565b6001600d60003373ffffffffffffffffffffffffffffffffffffffff1673ffffffffffffffffffffffffffffffffffffffff16815260200190815260200160002060010181905550565b8061186d8166470de4df820000612bd290919063ffffffff16565b3410156118af576040517f08c379a00000000000000000000000000000000000000000000000000000000081526004016118a6906144c1565b60405180910390fd5b6000811180156118c35750600560ff168111155b611902576040517f08c379a00000000000000000000000000000000000000000000000000000000081526004016118f9906143e1565b60405180910390fd5b600a61191e82611910610edb565b61276e90919063ffffffff16565b111561195f576040517f08c379a000000000000000000000000000000000000000000000000000000000815260040161195690614561565b60405180910390fd5b600c60019054906101000a900460ff16156119c15761197d336110f0565b6119bc576040517f08c379a00000000000000000000000000000000000000000000000000000000081526004016119b390614381565b60405180910390fd5b611a11565b600c60009054906101000a900460ff16611a10576040517f08c379a0000000000000000000000000000000000000000000000000000000008152600401611a07906143a1565b60405180910390fd5b5b611a1b3383612784565b5050565b611a276126ad565b73ffffffffffffffffffffffffffffffffffffffff16611a456115e8565b73ffffffffffffffffffffffffffffffffffffffff1614611a9b576040517f08c379a0000000000000000000000000000000000000000000000000000000008152600401611a92906145c1565b60405180910390fd5b600c60009054906101000a900460ff1615600c60006101000a81548160ff021916908315150217905550565b611acf6126ad565b73ffffffffffffffffffffffffffffffffffffffff16611aed6115e8565b73ffffffffffffffffffffffffffffffffffffffff1614611b43576040517f08c379a0000000000000000000000000000000000000000000000000000000008152600401611b3a906145c1565b60405180910390fd5b80600b9080519060200190611b5992919061336a565b5050565b611b6f611b686126ad565b8383612be8565b5050565b600b8054611b80906149a1565b80601f0160208091040260200160405190810160405280929190818152602001828054611bac906149a1565b8015611bf95780601f10611bce57610100808354040283529160200191611bf9565b820191906000526020600020905b815481529060010190602001808311611bdc57829003601f168201915b505050505081565b611c12611c0c6126ad565b836127d2565b611c51576040517f08c379a0000000000000000000000000000000000000000000000000000000008152600401611c4890614621565b60405180910390fd5b611c5d84848484612d55565b50505050565b60098054611c70906149a1565b80601f0160208091040260200160405190810160405280929190818152602001828054611c9c906149a1565b8015611ce95780601f10611cbe57610100808354040283529160200191611ce9565b820191906000526020600020905b815481529060010190602001808311611ccc57829003601f168201915b505050505081565b6060611cfc82612641565b611d3b576040517f08c379a0000000000000000000000000000000000000000000000000000000008152600401611d32906143c1565b60405180910390fd5b600c60029054906101000a900460ff16611ddf5760098054611d5c906149a1565b80601f0160208091040260200160405190810160405280929190818152602001828054611d88906149a1565b8015611dd55780601f10611daa57610100808354040283529160200191611dd5565b820191906000526020600020905b815481529060010190602001808311611db857829003601f168201915b5050505050611e42565b600a611dea83612db1565b6040518060400160405280600581526020017f2e6a736f6e000000000000000000000000000000000000000000000000000000815250604051602001611e329392919061426e565b6040516020818303038152906040525b9050919050565b600a8054611e56906149a1565b80601f0160208091040260200160405190810160405280929190818152602001828054611e82906149a1565b8015611ecf5780601f10611ea457610100808354040283529160200191611ecf565b820191906000526020600020905b815481529060010190602001808311611eb257829003601f168201915b505050505081565b60088054611ee4906149a1565b80601f0160208091040260200160405190810160405280929190818152602001828054611f10906149a1565b8015611f5d5780601f10611f3257610100808354040283529160200191611f5d565b820191906000526020600020905b815481529060010190602001808311611f4057829003601f168201915b505050505081565b600581565b6040518060400160405280600581526020017f2e6a736f6e00000000000000000000000000000000000000000000000000000081525081565b60007f000000000000000000000000000000000000000000000000000000000000000073ffffffffffffffffffffffffffffffffffffffff1663e3a9db1a836040518263ffffffff1660e01b8152600401611ffe91906142b4565b60206040518083038186803b15801561201657600080fd5b505afa15801561202a573d6000803e3d6000fd5b505050506040513d601f19601f8201168201806040525081019061204e91906138d3565b9050919050565b61205d6126ad565b73ffffffffffffffffffffffffffffffffffffffff1661207b6115e8565b73ffffffffffffffffffffffffffffffffffffffff16146120d1576040517f08c379a00000000000000000000000000000000000000000000000000000000081526004016120c8906145c1565b60405180910390fd5b60005b815181101561230257612126828281518110612119577f4e487b7100000000000000000000000000000000000000000000000000000000600052603260045260246000fd5b60200260200101516110f0565b15612166576040517f08c379a000000000000000000000000000000000000000000000000000000000815260040161215d90614641565b60405180910390fd5b81818151811061219f577f4e487b7100000000000000000000000000000000000000000000000000000000600052603260045260246000fd5b6020026020010151600d60008484815181106121e4577f4e487b7100000000000000000000000000000000000000000000000000000000600052603260045260246000fd5b602002602001015173ffffffffffffffffffffffffffffffffffffffff1673ffffffffffffffffffffffffffffffffffffffff16815260200190815260200160002060000160006101000a81548173ffffffffffffffffffffffffffffffffffffffff021916908373ffffffffffffffffffffffffffffffffffffffff1602179055506000600d60008484815181106122a6577f4e487b7100000000000000000000000000000000000000000000000000000000600052603260045260246000fd5b602002602001015173ffffffffffffffffffffffffffffffffffffffff1673ffffffffffffffffffffffffffffffffffffffff1681526020019081526020016000206001018190555080806122fa906149d3565b9150506120d4565b5050565b6060600b8054612315906149a1565b80601f0160208091040260200160405190810160405280929190818152602001828054612341906149a1565b801561238e5780601f106123635761010080835404028352916020019161238e565b820191906000526020600020905b81548152906001019060200180831161237157829003601f168201915b5050505050905090565b6000600560008473ffffffffffffffffffffffffffffffffffffffff1673ffffffffffffffffffffffffffffffffffffffff16815260200190815260200160002060008373ffffffffffffffffffffffffffffffffffffffff1673ffffffffffffffffffffffffffffffffffffffff16815260200190815260200160002060009054906101000a900460ff16905092915050565b6124346126ad565b73ffffffffffffffffffffffffffffffffffffffff166124526115e8565b73ffffffffffffffffffffffffffffffffffffffff16146124a8576040517f08c379a000000000000000000000000000000000000000000000000000000000815260040161249f906145c1565b60405180910390fd5b600073ffffffffffffffffffffffffffffffffffffffff168173ffffffffffffffffffffffffffffffffffffffff161415612518576040517f08c379a000000000000000000000000000000000000000000000000000000000815260040161250f90614421565b60405180910390fd5b61252181612b0c565b50565b61252c6126ad565b73ffffffffffffffffffffffffffffffffffffffff1661254a6115e8565b73ffffffffffffffffffffffffffffffffffffffff16146125a0576040517f08c379a0000000000000000000000000000000000000000000000000000000008152600401612597906145c1565b60405180910390fd5b600c60019054906101000a900460ff1615600c60016101000a81548160ff021916908315150217905550565b662386f26fc1000081565b60007f01ffc9a7000000000000000000000000000000000000000000000000000000007bffffffffffffffffffffffffffffffffffffffffffffffffffffffff1916827bffffffffffffffffffffffffffffffffffffffffffffffffffffffff1916149050919050565b60008073ffffffffffffffffffffffffffffffffffffffff166002600084815260200190815260200160002060009054906101000a900473ffffffffffffffffffffffffffffffffffffffff1673ffffffffffffffffffffffffffffffffffffffff1614159050919050565b600033905090565b816004600083815260200190815260200160002060006101000a81548173ffffffffffffffffffffffffffffffffffffffff021916908373ffffffffffffffffffffffffffffffffffffffff160217905550808273ffffffffffffffffffffffffffffffffffffffff166127288361130e565b73ffffffffffffffffffffffffffffffffffffffff167f8c5be1e5ebec7d5bd14f71427d1e84f3dd0314c0f7b2291e5b200ac8c7c3b92560405160405180910390a45050565b6000818361277c91906147b7565b905092915050565b60005b818110156127bf576127996007612f5e565b6127ac836127a760076127c4565b612f74565b80806127b7906149d3565b915050612787565b505050565b600081600001549050919050565b60006127dd82612641565b61281c576040517f08c379a0000000000000000000000000000000000000000000000000000000008152600401612813906144e1565b60405180910390fd5b60006128278361130e565b90508073ffffffffffffffffffffffffffffffffffffffff168473ffffffffffffffffffffffffffffffffffffffff16148061289657508373ffffffffffffffffffffffffffffffffffffffff1661287e84610bc2565b73ffffffffffffffffffffffffffffffffffffffff16145b806128a757506128a68185612398565b5b91505092915050565b8273ffffffffffffffffffffffffffffffffffffffff166128d08261130e565b73ffffffffffffffffffffffffffffffffffffffff1614612926576040517f08c379a000000000000000000000000000000000000000000000000000000000815260040161291d906145e1565b60405180910390fd5b600073ffffffffffffffffffffffffffffffffffffffff168273ffffffffffffffffffffffffffffffffffffffff161415612996576040517f08c379a000000000000000000000000000000000000000000000000000000000815260040161298d90614481565b60405180910390fd5b6129a1838383612f92565b6129ac6000826126b5565b6001600360008573ffffffffffffffffffffffffffffffffffffffff1673ffffffffffffffffffffffffffffffffffffffff16815260200190815260200160002060008282546129fc9190614898565b925050819055506001600360008473ffffffffffffffffffffffffffffffffffffffff1673ffffffffffffffffffffffffffffffffffffffff1681526020019081526020016000206000828254612a5391906147b7565b92505081905550816002600083815260200190815260200160002060006101000a81548173ffffffffffffffffffffffffffffffffffffffff021916908373ffffffffffffffffffffffffffffffffffffffff160217905550808273ffffffffffffffffffffffffffffffffffffffff168473ffffffffffffffffffffffffffffffffffffffff167fddf252ad1be2c89b69c2b068fc378daa952ba7f163c4a11628f55a4df523b3ef60405160405180910390a4505050565b6000600660009054906101000a900473ffffffffffffffffffffffffffffffffffffffff16905081600660006101000a81548173ffffffffffffffffffffffffffffffffffffffff021916908373ffffffffffffffffffffffffffffffffffffffff1602179055508173ffffffffffffffffffffffffffffffffffffffff168173ffffffffffffffffffffffffffffffffffffffff167f8be0079c531659141344cd1fd0a4f28419497f9722a3daafe3b4186f6b6457e060405160405180910390a35050565b60008183612be0919061483e565b905092915050565b8173ffffffffffffffffffffffffffffffffffffffff168373ffffffffffffffffffffffffffffffffffffffff161415612c57576040517f08c379a0000000000000000000000000000000000000000000000000000000008152600401612c4e906144a1565b60405180910390fd5b80600560008573ffffffffffffffffffffffffffffffffffffffff1673ffffffffffffffffffffffffffffffffffffffff16815260200190815260200160002060008473ffffffffffffffffffffffffffffffffffffffff1673ffffffffffffffffffffffffffffffffffffffff16815260200190815260200160002060006101000a81548160ff0219169083151502179055508173ffffffffffffffffffffffffffffffffffffffff168373ffffffffffffffffffffffffffffffffffffffff167f17307eab39ab6107e8899845ad3d59bd9653f200f220920489ca2b5937696c3183604051612d489190614344565b60405180910390a3505050565b612d608484846128b0565b612d6c84848484612f97565b612dab576040517f08c379a0000000000000000000000000000000000000000000000000000000008152600401612da290614401565b60405180910390fd5b50505050565b60606000821415612df9576040518060400160405280600181526020017f30000000000000000000000000000000000000000000000000000000000000008152509050612f59565b600082905060005b60008214612e2b578080612e14906149d3565b915050600a82612e24919061480d565b9150612e01565b60008167ffffffffffffffff811115612e6d577f4e487b7100000000000000000000000000000000000000000000000000000000600052604160045260246000fd5b6040519080825280601f01601f191660200182016040528015612e9f5781602001600182028036833780820191505090505b5090505b60008514612f5257600182612eb89190614898565b9150600a85612ec79190614a1c565b6030612ed391906147b7565b60f81b818381518110612f0f577f4e487b7100000000000000000000000000000000000000000000000000000000600052603260045260246000fd5b60200101907effffffffffffffffffffffffffffffffffffffffffffffffffffffffffffff1916908160001a905350600a85612f4b919061480d565b9450612ea3565b8093505050505b919050565b6001816000016000828254019250508190555050565b612f8e82826040518060200160405280600081525061312e565b5050565b505050565b6000612fb88473ffffffffffffffffffffffffffffffffffffffff16613189565b15613121578373ffffffffffffffffffffffffffffffffffffffff1663150b7a02612fe16126ad565b8786866040518563ffffffff1660e01b815260040161300394939291906142cf565b602060405180830381600087803b15801561301d57600080fd5b505af192505050801561304e57506040513d601f19601f8201168201806040525081019061304b9190613840565b60015b6130d1573d806000811461307e576040519150601f19603f3d011682016040523d82523d6000602084013e613083565b606091505b506000815114156130c9576040517f08c379a00000000000000000000000000000000000000000000000000000000081526004016130c090614401565b60405180910390fd5b805181602001fd5b63150b7a0260e01b7bffffffffffffffffffffffffffffffffffffffffffffffffffffffff1916817bffffffffffffffffffffffffffffffffffffffffffffffffffffffff191614915050613126565b600190505b949350505050565b613138838361319c565b6131456000848484612f97565b613184576040517f08c379a000000000000000000000000000000000000000000000000000000000815260040161317b90614401565b60405180910390fd5b505050565b600080823b905060008111915050919050565b600073ffffffffffffffffffffffffffffffffffffffff168273ffffffffffffffffffffffffffffffffffffffff16141561320c576040517f08c379a000000000000000000000000000000000000000000000000000000000815260040161320390614581565b60405180910390fd5b61321581612641565b15613255576040517f08c379a000000000000000000000000000000000000000000000000000000000815260040161324c90614461565b60405180910390fd5b61326160008383612f92565b6001600360008473ffffffffffffffffffffffffffffffffffffffff1673ffffffffffffffffffffffffffffffffffffffff16815260200190815260200160002060008282546132b191906147b7565b92505081905550816002600083815260200190815260200160002060006101000a81548173ffffffffffffffffffffffffffffffffffffffff021916908373ffffffffffffffffffffffffffffffffffffffff160217905550808273ffffffffffffffffffffffffffffffffffffffff16600073ffffffffffffffffffffffffffffffffffffffff167fddf252ad1be2c89b69c2b068fc378daa952ba7f163c4a11628f55a4df523b3ef60405160405180910390a45050565b828054613376906149a1565b90600052602060002090601f01602090048101928261339857600085556133df565b82601f106133b157805160ff19168380011785556133df565b828001600101855582156133df579182015b828111156133de5782518255916020019190600101906133c3565b5b5090506133ec91906133f0565b5090565b5b808211156134095760008160009055506001016133f1565b5090565b600061342061341b846146c8565b614697565b9050808382526020820190508285602086028201111561343f57600080fd5b60005b8581101561346f578161345588826134f5565b845260208401935060208301925050600181019050613442565b5050509392505050565b600061348c613487846146f4565b614697565b9050828152602081018484840111156134a457600080fd5b6134af84828561495f565b509392505050565b60006134ca6134c584614724565b614697565b9050828152602081018484840111156134e257600080fd5b6134ed84828561495f565b509392505050565b60008135905061350481614b1a565b92915050565b60008135905061351981614b31565b92915050565b600082601f83011261353057600080fd5b813561354084826020860161340d565b91505092915050565b60008135905061355881614b48565b92915050565b60008135905061356d81614b5f565b92915050565b60008151905061358281614b5f565b92915050565b600082601f83011261359957600080fd5b81356135a9848260208601613479565b91505092915050565b600082601f8301126135c357600080fd5b81356135d38482602086016134b7565b91505092915050565b6000813590506135eb81614b76565b92915050565b60008151905061360081614b76565b92915050565b60006020828403121561361857600080fd5b6000613626848285016134f5565b91505092915050565b60006020828403121561364157600080fd5b600061364f8482850161350a565b91505092915050565b6000806040838503121561366b57600080fd5b6000613679858286016134f5565b925050602061368a858286016134f5565b9150509250929050565b6000806000606084860312156136a957600080fd5b60006136b7868287016134f5565b93505060206136c8868287016134f5565b92505060406136d9868287016135dc565b9150509250925092565b600080600080608085870312156136f957600080fd5b6000613707878288016134f5565b9450506020613718878288016134f5565b9350506040613729878288016135dc565b925050606085013567ffffffffffffffff81111561374657600080fd5b61375287828801613588565b91505092959194509250565b6000806040838503121561377157600080fd5b600061377f858286016134f5565b925050602061379085828601613549565b9150509250929050565b600080604083850312156137ad57600080fd5b60006137bb858286016134f5565b92505060206137cc858286016135dc565b9150509250929050565b6000602082840312156137e857600080fd5b600082013567ffffffffffffffff81111561380257600080fd5b61380e8482850161351f565b91505092915050565b60006020828403121561382957600080fd5b60006138378482850161355e565b91505092915050565b60006020828403121561385257600080fd5b600061386084828501613573565b91505092915050565b60006020828403121561387b57600080fd5b600082013567ffffffffffffffff81111561389557600080fd5b6138a1848285016135b2565b91505092915050565b6000602082840312156138bc57600080fd5b60006138ca848285016135dc565b91505092915050565b6000602082840312156138e557600080fd5b60006138f3848285016135f1565b91505092915050565b613905816148cc565b82525050565b613914816148f0565b82525050565b600061392582614769565b61392f818561477f565b935061393f81856020860161496e565b61394881614b09565b840191505092915050565b600061395e82614774565b613968818561479b565b935061397881856020860161496e565b61398181614b09565b840191505092915050565b600061399782614774565b6139a181856147ac565b93506139b181856020860161496e565b80840191505092915050565b600081546139ca816149a1565b6139d481866147ac565b945060018216600081146139ef5760018114613a0057613a33565b60ff19831686528186019350613a33565b613a0985614754565b60005b83811015613a2b57815481890152600182019150602081019050613a0c565b838801955050505b50505092915050565b6000613a4960238361479b565b91507f41646472657373206d7573742062652077686974656c697374656420746f206d60008301527f696e7400000000000000000000000000000000000000000000000000000000006020830152604082019050919050565b6000613aaf60228361479b565b91507f5075626c69632073616c65206d7573742062652061637469766520746f206d6960008301527f6e740000000000000000000000000000000000000000000000000000000000006020830152604082019050919050565b6000613b1560218361479b565b91507f4552433732314d657461646174613a204e6f6e6578697374656e7420746f6b6560008301527f6e000000000000000000000000000000000000000000000000000000000000006020830152604082019050919050565b6000613b7b60208361479b565b91507f43616e206f6e6c79206d696e74203520746f6b656e7320617420612074696d656000830152602082019050919050565b6000613bbb60328361479b565b91507f4552433732313a207472616e7366657220746f206e6f6e20455243373231526560008301527f63656976657220696d706c656d656e74657200000000000000000000000000006020830152604082019050919050565b6000613c2160268361479b565b91507f4f776e61626c653a206e6577206f776e657220697320746865207a65726f206160008301527f64647265737300000000000000000000000000000000000000000000000000006020830152604082019050919050565b6000613c8760388361479b565b91507f416c7265616479206d696e7465642074686520746f6b656e2c20706c6561736560008301527f207761697420756e74696c2070726573616c65206d696e7400000000000000006020830152604082019050919050565b6000613ced601c8361479b565b91507f4552433732313a20746f6b656e20616c7265616479206d696e746564000000006000830152602082019050919050565b6000613d2d60248361479b565b91507f4552433732313a207472616e7366657220746f20746865207a65726f2061646460008301527f72657373000000000000000000000000000000000000000000000000000000006020830152604082019050919050565b6000613d9360198361479b565b91507f4552433732313a20617070726f766520746f2063616c6c6572000000000000006000830152602082019050919050565b6000613dd3601f8361479b565b91507f45746865722076616c75652073656e74206973206e6f7420636f7272656374006000830152602082019050919050565b6000613e13602c8361479b565b91507f4552433732313a206f70657261746f7220717565727920666f72206e6f6e657860008301527f697374656e7420746f6b656e00000000000000000000000000000000000000006020830152604082019050919050565b6000613e7960388361479b565b91507f4552433732313a20617070726f76652063616c6c6572206973206e6f74206f7760008301527f6e6572206e6f7220617070726f76656420666f7220616c6c00000000000000006020830152604082019050919050565b6000613edf602a8361479b565b91507f4552433732313a2062616c616e636520717565727920666f7220746865207a6560008301527f726f2061646472657373000000000000000000000000000000000000000000006020830152604082019050919050565b6000613f4560298361479b565b91507f4552433732313a206f776e657220717565727920666f72206e6f6e657869737460008301527f656e7420746f6b656e00000000000000000000000000000000000000000000006020830152604082019050919050565b6000613fab60208361479b565b91507f507572636861736520776f756c6420657863656564206d617820737570706c796000830152602082019050919050565b6000613feb60208361479b565b91507f4552433732313a206d696e7420746f20746865207a65726f20616464726573736000830152602082019050919050565b600061402b602c8361479b565b91507f4552433732313a20617070726f76656420717565727920666f72206e6f6e657860008301527f697374656e7420746f6b656e00000000000000000000000000000000000000006020830152604082019050919050565b600061409160208361479b565b91507f4f776e61626c653a2063616c6c6572206973206e6f7420746865206f776e65726000830152602082019050919050565b60006140d160298361479b565b91507f4552433732313a207472616e73666572206f6620746f6b656e2074686174206960008301527f73206e6f74206f776e00000000000000000000000000000000000000000000006020830152604082019050919050565b600061413760218361479b565b91507f4552433732313a20617070726f76616c20746f2063757272656e74206f776e6560008301527f72000000000000000000000000000000000000000000000000000000000000006020830152604082019050919050565b600061419d600083614790565b9150600082019050919050565b60006141b760318361479b565b91507f4552433732313a207472616e736665722063616c6c6572206973206e6f74206f60008301527f776e6572206e6f7220617070726f7665640000000000000000000000000000006020830152604082019050919050565b600061421d601b8361479b565b91507f4164647265737320616c72656164792077686974656c697374656400000000006000830152602082019050919050565b61425981614948565b82525050565b61426881614952565b82525050565b600061427a82866139bd565b9150614286828561398c565b9150614292828461398c565b9150819050949350505050565b60006142aa82614190565b9150819050919050565b60006020820190506142c960008301846138fc565b92915050565b60006080820190506142e460008301876138fc565b6142f160208301866138fc565b6142fe6040830185614250565b8181036060830152614310818461391a565b905095945050505050565b600060408201905061433060008301856138fc565b61433d6020830184614250565b9392505050565b6000602082019050614359600083018461390b565b92915050565b600060208201905081810360008301526143798184613953565b905092915050565b6000602082019050818103600083015261439a81613a3c565b9050919050565b600060208201905081810360008301526143ba81613aa2565b9050919050565b600060208201905081810360008301526143da81613b08565b9050919050565b600060208201905081810360008301526143fa81613b6e565b9050919050565b6000602082019050818103600083015261441a81613bae565b9050919050565b6000602082019050818103600083015261443a81613c14565b9050919050565b6000602082019050818103600083015261445a81613c7a565b9050919050565b6000602082019050818103600083015261447a81613ce0565b9050919050565b6000602082019050818103600083015261449a81613d20565b9050919050565b600060208201905081810360008301526144ba81613d86565b9050919050565b600060208201905081810360008301526144da81613dc6565b9050919050565b600060208201905081810360008301526144fa81613e06565b9050919050565b6000602082019050818103600083015261451a81613e6c565b9050919050565b6000602082019050818103600083015261453a81613ed2565b9050919050565b6000602082019050818103600083015261455a81613f38565b9050919050565b6000602082019050818103600083015261457a81613f9e565b9050919050565b6000602082019050818103600083015261459a81613fde565b9050919050565b600060208201905081810360008301526145ba8161401e565b9050919050565b600060208201905081810360008301526145da81614084565b9050919050565b600060208201905081810360008301526145fa816140c4565b9050919050565b6000602082019050818103600083015261461a8161412a565b9050919050565b6000602082019050818103600083015261463a816141aa565b9050919050565b6000602082019050818103600083015261465a81614210565b9050919050565b60006020820190506146766000830184614250565b92915050565b6000602082019050614691600083018461425f565b92915050565b6000604051905081810181811067ffffffffffffffff821117156146be576146bd614ada565b5b8060405250919050565b600067ffffffffffffffff8211156146e3576146e2614ada565b5b602082029050602081019050919050565b600067ffffffffffffffff82111561470f5761470e614ada565b5b601f19601f8301169050602081019050919050565b600067ffffffffffffffff82111561473f5761473e614ada565b5b601f19601f8301169050602081019050919050565b60008190508160005260206000209050919050565b600081519050919050565b600081519050919050565b600082825260208201905092915050565b600081905092915050565b600082825260208201905092915050565b600081905092915050565b60006147c282614948565b91506147cd83614948565b9250827fffffffffffffffffffffffffffffffffffffffffffffffffffffffffffffffff0382111561480257614801614a4d565b5b828201905092915050565b600061481882614948565b915061482383614948565b92508261483357614832614a7c565b5b828204905092915050565b600061484982614948565b915061485483614948565b9250817fffffffffffffffffffffffffffffffffffffffffffffffffffffffffffffffff048311821515161561488d5761488c614a4d565b5b828202905092915050565b60006148a382614948565b91506148ae83614948565b9250828210156148c1576148c0614a4d565b5b828203905092915050565b60006148d782614928565b9050919050565b60006148e982614928565b9050919050565b60008115159050919050565b60007fffffffff0000000000000000000000000000000000000000000000000000000082169050919050565b600073ffffffffffffffffffffffffffffffffffffffff82169050919050565b6000819050919050565b600060ff82169050919050565b82818337600083830152505050565b60005b8381101561498c578082015181840152602081019050614971565b8381111561499b576000848401525b50505050565b600060028204905060018216806149b957607f821691505b602082108114156149cd576149cc614aab565b5b50919050565b60006149de82614948565b91507fffffffffffffffffffffffffffffffffffffffffffffffffffffffffffffffff821415614a1157614a10614a4d565b5b600182019050919050565b6000614a2782614948565b9150614a3283614948565b925082614a4257614a41614a7c565b5b828206905092915050565b7f4e487b7100000000000000000000000000000000000000000000000000000000600052601160045260246000fd5b7f4e487b7100000000000000000000000000000000000000000000000000000000600052601260045260246000fd5b7f4e487b7100000000000000000000000000000000000000000000000000000000600052602260045260246000fd5b7f4e487b7100000000000000000000000000000000000000000000000000000000600052604160045260246000fd5b6000601f19601f8301169050919050565b614b23816148cc565b8114614b2e57600080fd5b50565b614b3a816148de565b8114614b4557600080fd5b50565b614b51816148f0565b8114614b5c57600080fd5b50565b614b68816148fc565b8114614b7357600080fd5b50565b614b7f81614948565b8114614b8a57600080fd5b5056fea2646970667358221220bed9a28455dc33dd579dfb1c6f4ed7179282bc3765f6724bcda1080dd533ab7664736f6c63430008000033608060405234801561001057600080fd5b5061002d61002261003260201b60201c565b61003a60201b60201c565b6100fe565b600033905090565b60008060009054906101000a900473ffffffffffffffffffffffffffffffffffffffff169050816000806101000a81548173ffffffffffffffffffffffffffffffffffffffff021916908373ffffffffffffffffffffffffffffffffffffffff1602179055508173ffffffffffffffffffffffffffffffffffffffff168173ffffffffffffffffffffffffffffffffffffffff167f8be0079c531659141344cd1fd0a4f28419497f9722a3daafe3b4186f6b6457e060405160405180910390a35050565b610bc08061010d6000396000f3fe6080604052600436106100555760003560e01c806351cff8d91461005a578063715018a6146100835780638da5cb5b1461009a578063e3a9db1a146100c5578063f2fde38b14610102578063f340fa011461012b575b600080fd5b34801561006657600080fd5b50610081600480360381019061007c91906107f5565b610147565b005b34801561008f57600080fd5b506100986102c7565b005b3480156100a657600080fd5b506100af61034f565b6040516100bc91906109b7565b60405180910390f35b3480156100d157600080fd5b506100ec60048036038101906100e791906107cc565b610378565b6040516100f99190610a52565b60405180910390f35b34801561010e57600080fd5b50610129600480360381019061012491906107cc565b6103c1565b005b610145600480360381019061014091906107cc565b6104b9565b005b61014f6105e2565b73ffffffffffffffffffffffffffffffffffffffff1661016d61034f565b73ffffffffffffffffffffffffffffffffffffffff16146101c3576040517f08c379a00000000000000000000000000000000000000000000000000000000081526004016101ba90610a32565b60405180910390fd5b6000600160008373ffffffffffffffffffffffffffffffffffffffff1673ffffffffffffffffffffffffffffffffffffffff1681526020019081526020016000205490506000600160008473ffffffffffffffffffffffffffffffffffffffff1673ffffffffffffffffffffffffffffffffffffffff16815260200190815260200160002081905550610275818373ffffffffffffffffffffffffffffffffffffffff166105ea90919063ffffffff16565b8173ffffffffffffffffffffffffffffffffffffffff167f7084f5476618d8e60b11ef0d7d3f06914655adb8793e28ff7f018d4c76d505d5826040516102bb9190610a52565b60405180910390a25050565b6102cf6105e2565b73ffffffffffffffffffffffffffffffffffffffff166102ed61034f565b73ffffffffffffffffffffffffffffffffffffffff1614610343576040517f08c379a000000000000000000000000000000000000000000000000000000000815260040161033a90610a32565b60405180910390fd5b61034d60006106de565b565b60008060009054906101000a900473ffffffffffffffffffffffffffffffffffffffff16905090565b6000600160008373ffffffffffffffffffffffffffffffffffffffff1673ffffffffffffffffffffffffffffffffffffffff168152602001908152602001600020549050919050565b6103c96105e2565b73ffffffffffffffffffffffffffffffffffffffff166103e761034f565b73ffffffffffffffffffffffffffffffffffffffff161461043d576040517f08c379a000000000000000000000000000000000000000000000000000000000815260040161043490610a32565b60405180910390fd5b600073ffffffffffffffffffffffffffffffffffffffff168173ffffffffffffffffffffffffffffffffffffffff1614156104ad576040517f08c379a00000000000000000000000000000000000000000000000000000000081526004016104a4906109d2565b60405180910390fd5b6104b6816106de565b50565b6104c16105e2565b73ffffffffffffffffffffffffffffffffffffffff166104df61034f565b73ffffffffffffffffffffffffffffffffffffffff1614610535576040517f08c379a000000000000000000000000000000000000000000000000000000000815260040161052c90610a32565b60405180910390fd5b600034905080600160008473ffffffffffffffffffffffffffffffffffffffff1673ffffffffffffffffffffffffffffffffffffffff16815260200190815260200160002060008282546105899190610a89565b925050819055508173ffffffffffffffffffffffffffffffffffffffff167f2da466a7b24304f47e87fa2e1e5a81b9831ce54fec19055ce277ca2f39ba42c4826040516105d69190610a52565b60405180910390a25050565b600033905090565b8047101561062d576040517f08c379a000000000000000000000000000000000000000000000000000000000815260040161062490610a12565b60405180910390fd5b60008273ffffffffffffffffffffffffffffffffffffffff1682604051610653906109a2565b60006040518083038185875af1925050503d8060008114610690576040519150601f19603f3d011682016040523d82523d6000602084013e610695565b606091505b50509050806106d9576040517f08c379a00000000000000000000000000000000000000000000000000000000081526004016106d0906109f2565b60405180910390fd5b505050565b60008060009054906101000a900473ffffffffffffffffffffffffffffffffffffffff169050816000806101000a81548173ffffffffffffffffffffffffffffffffffffffff021916908373ffffffffffffffffffffffffffffffffffffffff1602179055508173ffffffffffffffffffffffffffffffffffffffff168173ffffffffffffffffffffffffffffffffffffffff167f8be0079c531659141344cd1fd0a4f28419497f9722a3daafe3b4186f6b6457e060405160405180910390a35050565b6000813590506107b181610b5c565b92915050565b6000813590506107c681610b73565b92915050565b6000602082840312156107de57600080fd5b60006107ec848285016107a2565b91505092915050565b60006020828403121561080757600080fd5b6000610815848285016107b7565b91505092915050565b61082781610adf565b82525050565b600061083a602683610a78565b91507f4f776e61626c653a206e6577206f776e657220697320746865207a65726f206160008301527f64647265737300000000000000000000000000000000000000000000000000006020830152604082019050919050565b60006108a0603a83610a78565b91507f416464726573733a20756e61626c6520746f2073656e642076616c75652c207260008301527f6563697069656e74206d617920686176652072657665727465640000000000006020830152604082019050919050565b6000610906601d83610a78565b91507f416464726573733a20696e73756666696369656e742062616c616e63650000006000830152602082019050919050565b6000610946602083610a78565b91507f4f776e61626c653a2063616c6c6572206973206e6f7420746865206f776e65726000830152602082019050919050565b6000610986600083610a6d565b9150600082019050919050565b61099c81610b23565b82525050565b60006109ad82610979565b9150819050919050565b60006020820190506109cc600083018461081e565b92915050565b600060208201905081810360008301526109eb8161082d565b9050919050565b60006020820190508181036000830152610a0b81610893565b9050919050565b60006020820190508181036000830152610a2b816108f9565b9050919050565b60006020820190508181036000830152610a4b81610939565b9050919050565b6000602082019050610a676000830184610993565b92915050565b600081905092915050565b600082825260208201905092915050565b6000610a9482610b23565b9150610a9f83610b23565b9250827fffffffffffffffffffffffffffffffffffffffffffffffffffffffffffffffff03821115610ad457610ad3610b2d565b5b828201905092915050565b6000610aea82610b03565b9050919050565b6000610afc82610b03565b9050919050565b600073ffffffffffffffffffffffffffffffffffffffff82169050919050565b6000819050919050565b7f4e487b7100000000000000000000000000000000000000000000000000000000600052601160045260246000fd5b610b6581610adf565b8114610b7057600080fd5b50565b610b7c81610af1565b8114610b8757600080fd5b5056fea26469706673582212204e8ab707adc9ee645b828ddc4f791bd246fea3a80e8eeba1ce50ca1d3c28c2cb64736f6c63430008000033",
  "linkReferences": {},
  "deployedLinkReferences": {}
}